{
  "contracts/CharityPool.sol": {
    "CharityPool": {
      "abi": [
        {
          "anonymous": false,
          "inputs": [
            {
              "indexed": false,
              "internalType": "address",
              "name": "from",
              "type": "address"
            },
            {
              "indexed": false,
              "internalType": "address",
              "name": "to",
              "type": "address"
            },
            {
              "indexed": false,
              "internalType": "string",
              "name": "message",
              "type": "string"
            }
          ],
          "name": "InternalError",
          "type": "event"
        },
        {
          "anonymous": false,
          "inputs": [
            {
              "indexed": false,
              "internalType": "address",
              "name": "from",
              "type": "address"
            },
            {
              "indexed": false,
              "internalType": "address",
              "name": "to",
              "type": "address"
            },
            {
              "indexed": false,
              "internalType": "uint256",
              "name": "amount",
              "type": "uint256"
            }
          ],
          "name": "MinimumTokenRequired",
          "type": "event"
        },
        {
          "anonymous": false,
          "inputs": [
            {
              "indexed": false,
              "internalType": "address",
              "name": "from",
              "type": "address"
            },
            {
              "indexed": false,
              "internalType": "address",
              "name": "to",
              "type": "address"
            },
            {
              "indexed": false,
              "internalType": "uint256",
              "name": "amount",
              "type": "uint256"
            },
            {
              "indexed": false,
              "internalType": "string",
              "name": "message",
              "type": "string"
            }
          ],
          "name": "ReceivedToken",
          "type": "event"
        },
        {
          "anonymous": false,
          "inputs": [
            {
              "indexed": false,
              "internalType": "address",
              "name": "from",
              "type": "address"
            },
            {
              "indexed": false,
              "internalType": "address",
              "name": "to",
              "type": "address"
            },
            {
              "indexed": false,
              "internalType": "uint256",
              "name": "amount",
              "type": "uint256"
            }
          ],
          "name": "TokensWithdrawn",
          "type": "event"
        },
        {
          "inputs": [
            {
              "internalType": "address",
              "name": "_address",
              "type": "address"
            },
            {
              "internalType": "string",
              "name": "name",
              "type": "string"
            },
            {
              "internalType": "string",
              "name": "cause",
              "type": "string"
            },
            {
              "internalType": "string",
              "name": "link",
              "type": "string"
            }
          ],
          "name": "addNewParty",
          "outputs": [
            {
              "internalType": "bool",
              "name": "",
              "type": "bool"
            }
          ],
          "stateMutability": "nonpayable",
          "type": "function"
        },
        {
          "inputs": [
            {
              "internalType": "uint256",
              "name": "index",
              "type": "uint256"
            },
            {
              "internalType": "string",
              "name": "unit",
              "type": "string"
            }
          ],
          "name": "donate",
          "outputs": [
            {
              "internalType": "bool",
              "name": "",
              "type": "bool"
            }
          ],
          "stateMutability": "payable",
          "type": "function"
        },
        {
          "inputs": [
            {
              "internalType": "uint256",
              "name": "index",
              "type": "uint256"
            }
          ],
          "name": "getContractAddress",
          "outputs": [
            {
              "internalType": "address",
              "name": "",
              "type": "address"
            }
          ],
          "stateMutability": "view",
          "type": "function"
        },
        {
          "inputs": [],
          "name": "getCurrentContractAddress",
          "outputs": [
            {
              "internalType": "address",
              "name": "",
              "type": "address"
            }
          ],
          "stateMutability": "view",
          "type": "function"
        },
        {
          "inputs": [],
          "name": "getCurrentContractBalance",
          "outputs": [
            {
              "internalType": "uint256",
              "name": "",
              "type": "uint256"
            }
          ],
          "stateMutability": "view",
          "type": "function"
        },
        {
          "inputs": [
            {
              "internalType": "uint256",
              "name": "index",
              "type": "uint256"
            }
          ],
          "name": "getPartyAddress",
          "outputs": [
            {
              "internalType": "address",
              "name": "",
              "type": "address"
            }
          ],
          "stateMutability": "view",
          "type": "function"
        },
        {
          "inputs": [
            {
              "internalType": "uint256",
              "name": "index",
              "type": "uint256"
            }
          ],
          "name": "getPartyBalance",
          "outputs": [
            {
              "internalType": "uint256",
              "name": "partyBalance",
              "type": "uint256"
            }
          ],
          "stateMutability": "view",
          "type": "function"
        },
        {
          "inputs": [
            {
              "internalType": "uint256",
              "name": "index",
              "type": "uint256"
            }
          ],
          "name": "getPartyDetails",
          "outputs": [
            {
              "internalType": "string",
              "name": "name",
              "type": "string"
            },
            {
              "internalType": "string",
              "name": "cause",
              "type": "string"
            },
            {
              "internalType": "string",
              "name": "link",
              "type": "string"
            }
          ],
          "stateMutability": "view",
          "type": "function"
        },
        {
          "inputs": [
            {
              "internalType": "uint256",
              "name": "",
              "type": "uint256"
            }
          ],
          "name": "parties",
          "outputs": [
            {
              "internalType": "contract PartyContract",
              "name": "",
              "type": "address"
            }
          ],
          "stateMutability": "view",
          "type": "function"
        },
        {
          "inputs": [],
          "name": "totalEntries",
          "outputs": [
            {
              "internalType": "uint256",
              "name": "",
              "type": "uint256"
            }
          ],
          "stateMutability": "view",
          "type": "function"
        }
      ],
      "evm": {
        "bytecode": {
          "linkReferences": {},
          "object": "608060405234801561001057600080fd5b50611cea806100206000396000f3fe6080604052600436106200009e5760003560e01c80638d59d1f111620000615780638d59d1f114620001d1578063a267d6a51462000207578063aefa7d98146200024b578063be5e0077146200028f578063c6fd102014620002d3576200009e565b8063024789a914620000a3578063392b5f0214620000e95780636d790081146200012d57806370651a18146200015d5780637fef036e14620001a1575b600080fd5b348015620000b057600080fd5b50620000cf6004803603810190620000c9919062000b4c565b62000303565b604051620000e09392919062000da2565b60405180910390f35b348015620000f657600080fd5b506200011560048036038101906200010f919062000b4c565b62000407565b60405162000124919062000c95565b60405180910390f35b3480156200013a57600080fd5b5062000145620004fc565b60405162000154919062000df4565b60405180910390f35b3480156200016a57600080fd5b5062000189600480360381019062000183919062000b4c565b62000504565b60405162000198919062000d85565b60405180910390f35b348015620001ae57600080fd5b50620001b962000544565b604051620001c8919062000df4565b60405180910390f35b620001ef6004803603810190620001e9919062000b78565b6200054a565b604051620001fe919062000d68565b60405180910390f35b3480156200021457600080fd5b506200023360048036038101906200022d919062000b4c565b6200069b565b60405162000242919062000df4565b60405180910390f35b3480156200025857600080fd5b5062000277600480360381019062000271919062000b4c565b6200074a565b60405162000286919062000c95565b60405180910390f35b3480156200029c57600080fd5b50620002bb6004803603810190620002b59190620009f4565b620007be565b604051620002ca919062000d68565b60405180910390f35b348015620002e057600080fd5b50620002eb62000889565b604051620002fa919062000c95565b60405180910390f35b606080606060006001858154811062000345577f4e487b7100000000000000000000000000000000000000000000000000000000600052603260045260246000fd5b9060005260206000200160009054906101000a900473ffffffffffffffffffffffffffffffffffffffff1690508073ffffffffffffffffffffffffffffffffffffffff1663dd9eba576040518163ffffffff1660e01b815260040160006040518083038186803b158015620003b957600080fd5b505afa158015620003ce573d6000803e3d6000fd5b505050506040513d6000823e3d601f19601f82011682018060405250810190620003f9919062000aab565b935093509350509193909250565b6000806001838154811062000445577f4e487b7100000000000000000000000000000000000000000000000000000000600052603260045260246000fd5b9060005260206000200160009054906101000a900473ffffffffffffffffffffffffffffffffffffffff1690508073ffffffffffffffffffffffffffffffffffffffff16638995bc2e6040518163ffffffff1660e01b815260040160206040518083038186803b158015620004b957600080fd5b505afa158015620004ce573d6000803e3d6000fd5b505050506040513d601f19601f82011682018060405250810190620004f49190620009c8565b915050919050565b600047905090565b600181815481106200051557600080fd5b906000526020600020016000915054906101000a900473ffffffffffffffffffffffffffffffffffffffff1681565b60005481565b60007f11bc892157fdd60df9ebcf9d5ad60ca17a129ed098afb31c5a34ebe3489ab15e3330348560405162000583949392919062000cb2565b60405180910390a160003073ffffffffffffffffffffffffffffffffffffffff1663aefa7d98856040518263ffffffff1660e01b8152600401620005c8919062000df4565b60206040518083038186803b158015620005e157600080fd5b505afa158015620005f6573d6000803e3d6000fd5b505050506040513d601f19601f820116820180604052508101906200061c9190620009c8565b905060008173ffffffffffffffffffffffffffffffffffffffff1634604051620006469062000c7e565b60006040518083038185875af1925050503d806000811462000685576040519150601f19603f3d011682016040523d82523d6000602084013e6200068a565b606091505b505080915050809250505092915050565b60003073ffffffffffffffffffffffffffffffffffffffff1663aefa7d98836040518263ffffffff1660e01b8152600401620006d8919062000df4565b60206040518083038186803b158015620006f157600080fd5b505afa15801562000706573d6000803e3d6000fd5b505050506040513d601f19601f820116820180604052508101906200072c9190620009c8565b73ffffffffffffffffffffffffffffffffffffffff16319050919050565b6000806001838154811062000788577f4e487b7100000000000000000000000000000000000000000000000000000000600052603260045260246000fd5b9060005260206000200160009054906101000a900473ffffffffffffffffffffffffffffffffffffffff16905080915050919050565b60008085858585604051620007d39062000891565b620007e2949392919062000d06565b604051809103906000f080158015620007ff573d6000803e3d6000fd5b5090506001819080600181540180825580915050600190039060005260206000200160009091909190916101000a81548173ffffffffffffffffffffffffffffffffffffffff021916908373ffffffffffffffffffffffffffffffffffffffff160217905550600160005462000876919062000e97565b6000819055506001915050949350505050565b600030905090565b610c2d806200108883390190565b6000620008b6620008b08462000e3a565b62000e11565b905082815260208101848484011115620008cf57600080fd5b620008dc84828562000f66565b509392505050565b6000620008fb620008f58462000e3a565b62000e11565b9050828152602081018484840111156200091457600080fd5b6200092184828562000f75565b509392505050565b6000813590506200093a8162001053565b92915050565b600081519050620009518162001053565b92915050565b600082601f8301126200096957600080fd5b81356200097b8482602086016200089f565b91505092915050565b600082601f8301126200099657600080fd5b8151620009a8848260208601620008e4565b91505092915050565b600081359050620009c2816200106d565b92915050565b600060208284031215620009db57600080fd5b6000620009eb8482850162000940565b91505092915050565b6000806000806080858703121562000a0b57600080fd5b600062000a1b8782880162000929565b945050602085013567ffffffffffffffff81111562000a3957600080fd5b62000a478782880162000957565b935050604085013567ffffffffffffffff81111562000a6557600080fd5b62000a738782880162000957565b925050606085013567ffffffffffffffff81111562000a9157600080fd5b62000a9f8782880162000957565b91505092959194509250565b60008060006060848603121562000ac157600080fd5b600084015167ffffffffffffffff81111562000adc57600080fd5b62000aea8682870162000984565b935050602084015167ffffffffffffffff81111562000b0857600080fd5b62000b168682870162000984565b925050604084015167ffffffffffffffff81111562000b3457600080fd5b62000b428682870162000984565b9150509250925092565b60006020828403121562000b5f57600080fd5b600062000b6f84828501620009b1565b91505092915050565b6000806040838503121562000b8c57600080fd5b600062000b9c85828601620009b1565b925050602083013567ffffffffffffffff81111562000bba57600080fd5b62000bc88582860162000957565b9150509250929050565b62000bdd8162000ef4565b82525050565b62000bee8162000f08565b82525050565b62000bff8162000f3e565b82525050565b600062000c128262000e70565b62000c1e818562000e86565b935062000c3081856020860162000f75565b62000c3b816200103f565b840191505092915050565b600062000c5560008362000e7b565b915062000c628262001050565b600082019050919050565b62000c788162000f34565b82525050565b600062000c8b8262000c46565b9150819050919050565b600060208201905062000cac600083018462000bd2565b92915050565b600060808201905062000cc9600083018762000bd2565b62000cd8602083018662000bd2565b62000ce7604083018562000c6d565b818103606083015262000cfb818462000c05565b905095945050505050565b600060808201905062000d1d600083018762000bd2565b818103602083015262000d31818662000c05565b9050818103604083015262000d47818562000c05565b9050818103606083015262000d5d818462000c05565b905095945050505050565b600060208201905062000d7f600083018462000be3565b92915050565b600060208201905062000d9c600083018462000bf4565b92915050565b6000606082019050818103600083015262000dbe818662000c05565b9050818103602083015262000dd4818562000c05565b9050818103604083015262000dea818462000c05565b9050949350505050565b600060208201905062000e0b600083018462000c6d565b92915050565b600062000e1d62000e30565b905062000e2b828262000fab565b919050565b6000604051905090565b600067ffffffffffffffff82111562000e585762000e5762001010565b5b62000e63826200103f565b9050602081019050919050565b600081519050919050565b600081905092915050565b600082825260208201905092915050565b600062000ea48262000f34565b915062000eb18362000f34565b9250827fffffffffffffffffffffffffffffffffffffffffffffffffffffffffffffffff0382111562000ee95762000ee862000fe1565b5b828201905092915050565b600062000f018262000f14565b9050919050565b60008115159050919050565b600073ffffffffffffffffffffffffffffffffffffffff82169050919050565b6000819050919050565b600062000f4b8262000f52565b9050919050565b600062000f5f8262000f14565b9050919050565b82818337600083830152505050565b60005b8381101562000f9557808201518184015260208101905062000f78565b8381111562000fa5576000848401525b50505050565b62000fb6826200103f565b810181811067ffffffffffffffff8211171562000fd85762000fd762001010565b5b80604052505050565b7f4e487b7100000000000000000000000000000000000000000000000000000000600052601160045260246000fd5b7f4e487b7100000000000000000000000000000000000000000000000000000000600052604160045260246000fd5b6000601f19601f8301169050919050565b50565b6200105e8162000ef4565b81146200106a57600080fd5b50565b620010788162000f34565b81146200108457600080fd5b5056fe60806040523480156200001157600080fd5b5060405162000c2d38038062000c2d833981810160405281019062000037919062000205565b836000806101000a81548173ffffffffffffffffffffffffffffffffffffffff021916908373ffffffffffffffffffffffffffffffffffffffff16021790555082600190805190602001906200008f929190620000cc565b508160029080519060200190620000a8929190620000cc565b508060039080519060200190620000c1929190620000cc565b50505050506200047a565b828054620000da9062000385565b90600052602060002090601f016020900481019282620000fe57600085556200014a565b82601f106200011957805160ff19168380011785556200014a565b828001600101855582156200014a579182015b82811115620001495782518255916020019190600101906200012c565b5b5090506200015991906200015d565b5090565b5b80821115620001785760008160009055506001016200015e565b5090565b6000620001936200018d84620002e5565b620002bc565b905082815260208101848484011115620001ac57600080fd5b620001b98482856200034f565b509392505050565b600081519050620001d28162000460565b92915050565b600082601f830112620001ea57600080fd5b8151620001fc8482602086016200017c565b91505092915050565b600080600080608085870312156200021c57600080fd5b60006200022c87828801620001c1565b945050602085015167ffffffffffffffff8111156200024a57600080fd5b6200025887828801620001d8565b935050604085015167ffffffffffffffff8111156200027657600080fd5b6200028487828801620001d8565b925050606085015167ffffffffffffffff811115620002a257600080fd5b620002b087828801620001d8565b91505092959194509250565b6000620002c8620002db565b9050620002d68282620003bb565b919050565b6000604051905090565b600067ffffffffffffffff82111562000303576200030262000420565b5b6200030e826200044f565b9050602081019050919050565b600062000328826200032f565b9050919050565b600073ffffffffffffffffffffffffffffffffffffffff82169050919050565b60005b838110156200036f57808201518184015260208101905062000352565b838111156200037f576000848401525b50505050565b600060028204905060018216806200039e57607f821691505b60208210811415620003b557620003b4620003f1565b5b50919050565b620003c6826200044f565b810181811067ffffffffffffffff82111715620003e857620003e762000420565b5b80604052505050565b7f4e487b7100000000000000000000000000000000000000000000000000000000600052602260045260246000fd5b7f4e487b7100000000000000000000000000000000000000000000000000000000600052604160045260246000fd5b6000601f19601f8301169050919050565b6200046b816200031b565b81146200047757600080fd5b50565b6107a3806200048a6000396000f3fe6080604052600436106100435760003560e01c80633ccfd60b1461008a578063580aa5d3146100a15780638995bc2e146100cc578063dd9eba57146100f757610085565b36610085577f11bc892157fdd60df9ebcf9d5ad60ca17a129ed098afb31c5a34ebe3489ab15e33303460405161007b93929190610527565b60405180910390a1005b600080fd5b34801561009657600080fd5b5061009f610124565b005b3480156100ad57600080fd5b506100b6610256565b6040516100c391906105dd565b60405180910390f35b3480156100d857600080fd5b506100e161025e565b6040516100ee91906104d5565b60405180910390f35b34801561010357600080fd5b5061010c610287565b60405161011b93929190610571565b60405180910390f35b60008054906101000a900473ffffffffffffffffffffffffffffffffffffffff1673ffffffffffffffffffffffffffffffffffffffff163373ffffffffffffffffffffffffffffffffffffffff16146101b2576040517f08c379a00000000000000000000000000000000000000000000000000000000081526004016101a9906105bd565b60405180910390fd5b3373ffffffffffffffffffffffffffffffffffffffff166108fc479081150290604051600060405180830381858888f193505050501580156101f8573d6000803e3d6000fd5b507f6337ed398c0e8467698c581374fdce4db14922df487b5a39483079f5f59b60a43060008054906101000a900473ffffffffffffffffffffffffffffffffffffffff164760405161024c939291906104f0565b60405180910390a1565b600047905090565b60008060009054906101000a900473ffffffffffffffffffffffffffffffffffffffff16905090565b60608060606001805461029990610683565b80601f01602080910402602001604051908101604052809291908181526020018280546102c590610683565b80156103125780601f106102e757610100808354040283529160200191610312565b820191906000526020600020905b8154815290600101906020018083116102f557829003601f168201915b505050505092506002805461032690610683565b80601f016020809104026020016040519081016040528092919081815260200182805461035290610683565b801561039f5780601f106103745761010080835404028352916020019161039f565b820191906000526020600020905b81548152906001019060200180831161038257829003601f168201915b50505050509150600380546103b390610683565b80601f01602080910402602001604051908101604052809291908181526020018280546103df90610683565b801561042c5780601f106104015761010080835404028352916020019161042c565b820191906000526020600020905b81548152906001019060200180831161040f57829003601f168201915b50505050509050909192565b61044181610614565b82525050565b6000610452826105f8565b61045c8185610603565b935061046c818560208601610650565b610475816106e4565b840191505092915050565b600061048d601883610603565b9150610498826106f5565b602082019050919050565b60006104b0602883610603565b91506104bb8261071e565b604082019050919050565b6104cf81610646565b82525050565b60006020820190506104ea6000830184610438565b92915050565b60006060820190506105056000830186610438565b6105126020830185610438565b61051f60408301846104c6565b949350505050565b600060808201905061053c6000830186610438565b6105496020830185610438565b61055660408301846104c6565b818103606083015261056781610480565b9050949350505050565b6000606082019050818103600083015261058b8186610447565b9050818103602083015261059f8185610447565b905081810360408301526105b38184610447565b9050949350505050565b600060208201905081810360008301526105d6816104a3565b9050919050565b60006020820190506105f260008301846104c6565b92915050565b600081519050919050565b600082825260208201905092915050565b600061061f82610626565b9050919050565b600073ffffffffffffffffffffffffffffffffffffffff82169050919050565b6000819050919050565b60005b8381101561066e578082015181840152602081019050610653565b8381111561067d576000848401525b50505050565b6000600282049050600182168061069b57607f821691505b602082108114156106af576106ae6106b5565b5b50919050565b7f4e487b7100000000000000000000000000000000000000000000000000000000600052602260045260246000fd5b6000601f19601f8301169050919050565b7f546f6b656e2072656365697665642066726f6d20506f6f6c0000000000000000600082015250565b7f596f75206d757374206265207265676973746572656420746f2077697468647260008201527f61772066756e647300000000000000000000000000000000000000000000000060208201525056fea2646970667358221220833a4d19092dd1f5b84e9b8cf65e6c4dca3b4c0d71566a171f9c543c093db1a964736f6c63430008040033a26469706673582212203ad4b8909533597ba8fddfcebfa44814ce954d5f784fb9a3a53408c60a1f3f5164736f6c63430008040033",
          "opcodes": "PUSH1 0x80 PUSH1 0x40 MSTORE CALLVALUE DUP1 ISZERO PUSH2 0x10 JUMPI PUSH1 0x0 DUP1 REVERT JUMPDEST POP PUSH2 0x1CEA DUP1 PUSH2 0x20 PUSH1 0x0 CODECOPY PUSH1 0x0 RETURN INVALID PUSH1 0x80 PUSH1 0x40 MSTORE PUSH1 0x4 CALLDATASIZE LT PUSH3 0x9E JUMPI PUSH1 0x0 CALLDATALOAD PUSH1 0xE0 SHR DUP1 PUSH4 0x8D59D1F1 GT PUSH3 0x61 JUMPI DUP1 PUSH4 0x8D59D1F1 EQ PUSH3 0x1D1 JUMPI DUP1 PUSH4 0xA267D6A5 EQ PUSH3 0x207 JUMPI DUP1 PUSH4 0xAEFA7D98 EQ PUSH3 0x24B JUMPI DUP1 PUSH4 0xBE5E0077 EQ PUSH3 0x28F JUMPI DUP1 PUSH4 0xC6FD1020 EQ PUSH3 0x2D3 JUMPI PUSH3 0x9E JUMP JUMPDEST DUP1 PUSH4 0x24789A9 EQ PUSH3 0xA3 JUMPI DUP1 PUSH4 0x392B5F02 EQ PUSH3 0xE9 JUMPI DUP1 PUSH4 0x6D790081 EQ PUSH3 0x12D JUMPI DUP1 PUSH4 0x70651A18 EQ PUSH3 0x15D JUMPI DUP1 PUSH4 0x7FEF036E EQ PUSH3 0x1A1 JUMPI JUMPDEST PUSH1 0x0 DUP1 REVERT JUMPDEST CALLVALUE DUP1 ISZERO PUSH3 0xB0 JUMPI PUSH1 0x0 DUP1 REVERT JUMPDEST POP PUSH3 0xCF PUSH1 0x4 DUP1 CALLDATASIZE SUB DUP2 ADD SWAP1 PUSH3 0xC9 SWAP2 SWAP1 PUSH3 0xB4C JUMP JUMPDEST PUSH3 0x303 JUMP JUMPDEST PUSH1 0x40 MLOAD PUSH3 0xE0 SWAP4 SWAP3 SWAP2 SWAP1 PUSH3 0xDA2 JUMP JUMPDEST PUSH1 0x40 MLOAD DUP1 SWAP2 SUB SWAP1 RETURN JUMPDEST CALLVALUE DUP1 ISZERO PUSH3 0xF6 JUMPI PUSH1 0x0 DUP1 REVERT JUMPDEST POP PUSH3 0x115 PUSH1 0x4 DUP1 CALLDATASIZE SUB DUP2 ADD SWAP1 PUSH3 0x10F SWAP2 SWAP1 PUSH3 0xB4C JUMP JUMPDEST PUSH3 0x407 JUMP JUMPDEST PUSH1 0x40 MLOAD PUSH3 0x124 SWAP2 SWAP1 PUSH3 0xC95 JUMP JUMPDEST PUSH1 0x40 MLOAD DUP1 SWAP2 SUB SWAP1 RETURN JUMPDEST CALLVALUE DUP1 ISZERO PUSH3 0x13A JUMPI PUSH1 0x0 DUP1 REVERT JUMPDEST POP PUSH3 0x145 PUSH3 0x4FC JUMP JUMPDEST PUSH1 0x40 MLOAD PUSH3 0x154 SWAP2 SWAP1 PUSH3 0xDF4 JUMP JUMPDEST PUSH1 0x40 MLOAD DUP1 SWAP2 SUB SWAP1 RETURN JUMPDEST CALLVALUE DUP1 ISZERO PUSH3 0x16A JUMPI PUSH1 0x0 DUP1 REVERT JUMPDEST POP PUSH3 0x189 PUSH1 0x4 DUP1 CALLDATASIZE SUB DUP2 ADD SWAP1 PUSH3 0x183 SWAP2 SWAP1 PUSH3 0xB4C JUMP JUMPDEST PUSH3 0x504 JUMP JUMPDEST PUSH1 0x40 MLOAD PUSH3 0x198 SWAP2 SWAP1 PUSH3 0xD85 JUMP JUMPDEST PUSH1 0x40 MLOAD DUP1 SWAP2 SUB SWAP1 RETURN JUMPDEST CALLVALUE DUP1 ISZERO PUSH3 0x1AE JUMPI PUSH1 0x0 DUP1 REVERT JUMPDEST POP PUSH3 0x1B9 PUSH3 0x544 JUMP JUMPDEST PUSH1 0x40 MLOAD PUSH3 0x1C8 SWAP2 SWAP1 PUSH3 0xDF4 JUMP JUMPDEST PUSH1 0x40 MLOAD DUP1 SWAP2 SUB SWAP1 RETURN JUMPDEST PUSH3 0x1EF PUSH1 0x4 DUP1 CALLDATASIZE SUB DUP2 ADD SWAP1 PUSH3 0x1E9 SWAP2 SWAP1 PUSH3 0xB78 JUMP JUMPDEST PUSH3 0x54A JUMP JUMPDEST PUSH1 0x40 MLOAD PUSH3 0x1FE SWAP2 SWAP1 PUSH3 0xD68 JUMP JUMPDEST PUSH1 0x40 MLOAD DUP1 SWAP2 SUB SWAP1 RETURN JUMPDEST CALLVALUE DUP1 ISZERO PUSH3 0x214 JUMPI PUSH1 0x0 DUP1 REVERT JUMPDEST POP PUSH3 0x233 PUSH1 0x4 DUP1 CALLDATASIZE SUB DUP2 ADD SWAP1 PUSH3 0x22D SWAP2 SWAP1 PUSH3 0xB4C JUMP JUMPDEST PUSH3 0x69B JUMP JUMPDEST PUSH1 0x40 MLOAD PUSH3 0x242 SWAP2 SWAP1 PUSH3 0xDF4 JUMP JUMPDEST PUSH1 0x40 MLOAD DUP1 SWAP2 SUB SWAP1 RETURN JUMPDEST CALLVALUE DUP1 ISZERO PUSH3 0x258 JUMPI PUSH1 0x0 DUP1 REVERT JUMPDEST POP PUSH3 0x277 PUSH1 0x4 DUP1 CALLDATASIZE SUB DUP2 ADD SWAP1 PUSH3 0x271 SWAP2 SWAP1 PUSH3 0xB4C JUMP JUMPDEST PUSH3 0x74A JUMP JUMPDEST PUSH1 0x40 MLOAD PUSH3 0x286 SWAP2 SWAP1 PUSH3 0xC95 JUMP JUMPDEST PUSH1 0x40 MLOAD DUP1 SWAP2 SUB SWAP1 RETURN JUMPDEST CALLVALUE DUP1 ISZERO PUSH3 0x29C JUMPI PUSH1 0x0 DUP1 REVERT JUMPDEST POP PUSH3 0x2BB PUSH1 0x4 DUP1 CALLDATASIZE SUB DUP2 ADD SWAP1 PUSH3 0x2B5 SWAP2 SWAP1 PUSH3 0x9F4 JUMP JUMPDEST PUSH3 0x7BE JUMP JUMPDEST PUSH1 0x40 MLOAD PUSH3 0x2CA SWAP2 SWAP1 PUSH3 0xD68 JUMP JUMPDEST PUSH1 0x40 MLOAD DUP1 SWAP2 SUB SWAP1 RETURN JUMPDEST CALLVALUE DUP1 ISZERO PUSH3 0x2E0 JUMPI PUSH1 0x0 DUP1 REVERT JUMPDEST POP PUSH3 0x2EB PUSH3 0x889 JUMP JUMPDEST PUSH1 0x40 MLOAD PUSH3 0x2FA SWAP2 SWAP1 PUSH3 0xC95 JUMP JUMPDEST PUSH1 0x40 MLOAD DUP1 SWAP2 SUB SWAP1 RETURN JUMPDEST PUSH1 0x60 DUP1 PUSH1 0x60 PUSH1 0x0 PUSH1 0x1 DUP6 DUP2 SLOAD DUP2 LT PUSH3 0x345 JUMPI PUSH32 0x4E487B7100000000000000000000000000000000000000000000000000000000 PUSH1 0x0 MSTORE PUSH1 0x32 PUSH1 0x4 MSTORE PUSH1 0x24 PUSH1 0x0 REVERT JUMPDEST SWAP1 PUSH1 0x0 MSTORE PUSH1 0x20 PUSH1 0x0 KECCAK256 ADD PUSH1 0x0 SWAP1 SLOAD SWAP1 PUSH2 0x100 EXP SWAP1 DIV PUSH20 0xFFFFFFFFFFFFFFFFFFFFFFFFFFFFFFFFFFFFFFFF AND SWAP1 POP DUP1 PUSH20 0xFFFFFFFFFFFFFFFFFFFFFFFFFFFFFFFFFFFFFFFF AND PUSH4 0xDD9EBA57 PUSH1 0x40 MLOAD DUP2 PUSH4 0xFFFFFFFF AND PUSH1 0xE0 SHL DUP2 MSTORE PUSH1 0x4 ADD PUSH1 0x0 PUSH1 0x40 MLOAD DUP1 DUP4 SUB DUP2 DUP7 DUP1 EXTCODESIZE ISZERO DUP1 ISZERO PUSH3 0x3B9 JUMPI PUSH1 0x0 DUP1 REVERT JUMPDEST POP GAS STATICCALL ISZERO DUP1 ISZERO PUSH3 0x3CE JUMPI RETURNDATASIZE PUSH1 0x0 DUP1 RETURNDATACOPY RETURNDATASIZE PUSH1 0x0 REVERT JUMPDEST POP POP POP POP PUSH1 0x40 MLOAD RETURNDATASIZE PUSH1 0x0 DUP3 RETURNDATACOPY RETURNDATASIZE PUSH1 0x1F NOT PUSH1 0x1F DUP3 ADD AND DUP3 ADD DUP1 PUSH1 0x40 MSTORE POP DUP2 ADD SWAP1 PUSH3 0x3F9 SWAP2 SWAP1 PUSH3 0xAAB JUMP JUMPDEST SWAP4 POP SWAP4 POP SWAP4 POP POP SWAP2 SWAP4 SWAP1 SWAP3 POP JUMP JUMPDEST PUSH1 0x0 DUP1 PUSH1 0x1 DUP4 DUP2 SLOAD DUP2 LT PUSH3 0x445 JUMPI PUSH32 0x4E487B7100000000000000000000000000000000000000000000000000000000 PUSH1 0x0 MSTORE PUSH1 0x32 PUSH1 0x4 MSTORE PUSH1 0x24 PUSH1 0x0 REVERT JUMPDEST SWAP1 PUSH1 0x0 MSTORE PUSH1 0x20 PUSH1 0x0 KECCAK256 ADD PUSH1 0x0 SWAP1 SLOAD SWAP1 PUSH2 0x100 EXP SWAP1 DIV PUSH20 0xFFFFFFFFFFFFFFFFFFFFFFFFFFFFFFFFFFFFFFFF AND SWAP1 POP DUP1 PUSH20 0xFFFFFFFFFFFFFFFFFFFFFFFFFFFFFFFFFFFFFFFF AND PUSH4 0x8995BC2E PUSH1 0x40 MLOAD DUP2 PUSH4 0xFFFFFFFF AND PUSH1 0xE0 SHL DUP2 MSTORE PUSH1 0x4 ADD PUSH1 0x20 PUSH1 0x40 MLOAD DUP1 DUP4 SUB DUP2 DUP7 DUP1 EXTCODESIZE ISZERO DUP1 ISZERO PUSH3 0x4B9 JUMPI PUSH1 0x0 DUP1 REVERT JUMPDEST POP GAS STATICCALL ISZERO DUP1 ISZERO PUSH3 0x4CE JUMPI RETURNDATASIZE PUSH1 0x0 DUP1 RETURNDATACOPY RETURNDATASIZE PUSH1 0x0 REVERT JUMPDEST POP POP POP POP PUSH1 0x40 MLOAD RETURNDATASIZE PUSH1 0x1F NOT PUSH1 0x1F DUP3 ADD AND DUP3 ADD DUP1 PUSH1 0x40 MSTORE POP DUP2 ADD SWAP1 PUSH3 0x4F4 SWAP2 SWAP1 PUSH3 0x9C8 JUMP JUMPDEST SWAP2 POP POP SWAP2 SWAP1 POP JUMP JUMPDEST PUSH1 0x0 SELFBALANCE SWAP1 POP SWAP1 JUMP JUMPDEST PUSH1 0x1 DUP2 DUP2 SLOAD DUP2 LT PUSH3 0x515 JUMPI PUSH1 0x0 DUP1 REVERT JUMPDEST SWAP1 PUSH1 0x0 MSTORE PUSH1 0x20 PUSH1 0x0 KECCAK256 ADD PUSH1 0x0 SWAP2 POP SLOAD SWAP1 PUSH2 0x100 EXP SWAP1 DIV PUSH20 0xFFFFFFFFFFFFFFFFFFFFFFFFFFFFFFFFFFFFFFFF AND DUP2 JUMP JUMPDEST PUSH1 0x0 SLOAD DUP2 JUMP JUMPDEST PUSH1 0x0 PUSH32 0x11BC892157FDD60DF9EBCF9D5AD60CA17A129ED098AFB31C5A34EBE3489AB15E CALLER ADDRESS CALLVALUE DUP6 PUSH1 0x40 MLOAD PUSH3 0x583 SWAP5 SWAP4 SWAP3 SWAP2 SWAP1 PUSH3 0xCB2 JUMP JUMPDEST PUSH1 0x40 MLOAD DUP1 SWAP2 SUB SWAP1 LOG1 PUSH1 0x0 ADDRESS PUSH20 0xFFFFFFFFFFFFFFFFFFFFFFFFFFFFFFFFFFFFFFFF AND PUSH4 0xAEFA7D98 DUP6 PUSH1 0x40 MLOAD DUP3 PUSH4 0xFFFFFFFF AND PUSH1 0xE0 SHL DUP2 MSTORE PUSH1 0x4 ADD PUSH3 0x5C8 SWAP2 SWAP1 PUSH3 0xDF4 JUMP JUMPDEST PUSH1 0x20 PUSH1 0x40 MLOAD DUP1 DUP4 SUB DUP2 DUP7 DUP1 EXTCODESIZE ISZERO DUP1 ISZERO PUSH3 0x5E1 JUMPI PUSH1 0x0 DUP1 REVERT JUMPDEST POP GAS STATICCALL ISZERO DUP1 ISZERO PUSH3 0x5F6 JUMPI RETURNDATASIZE PUSH1 0x0 DUP1 RETURNDATACOPY RETURNDATASIZE PUSH1 0x0 REVERT JUMPDEST POP POP POP POP PUSH1 0x40 MLOAD RETURNDATASIZE PUSH1 0x1F NOT PUSH1 0x1F DUP3 ADD AND DUP3 ADD DUP1 PUSH1 0x40 MSTORE POP DUP2 ADD SWAP1 PUSH3 0x61C SWAP2 SWAP1 PUSH3 0x9C8 JUMP JUMPDEST SWAP1 POP PUSH1 0x0 DUP2 PUSH20 0xFFFFFFFFFFFFFFFFFFFFFFFFFFFFFFFFFFFFFFFF AND CALLVALUE PUSH1 0x40 MLOAD PUSH3 0x646 SWAP1 PUSH3 0xC7E JUMP JUMPDEST PUSH1 0x0 PUSH1 0x40 MLOAD DUP1 DUP4 SUB DUP2 DUP6 DUP8 GAS CALL SWAP3 POP POP POP RETURNDATASIZE DUP1 PUSH1 0x0 DUP2 EQ PUSH3 0x685 JUMPI PUSH1 0x40 MLOAD SWAP2 POP PUSH1 0x1F NOT PUSH1 0x3F RETURNDATASIZE ADD AND DUP3 ADD PUSH1 0x40 MSTORE RETURNDATASIZE DUP3 MSTORE RETURNDATASIZE PUSH1 0x0 PUSH1 0x20 DUP5 ADD RETURNDATACOPY PUSH3 0x68A JUMP JUMPDEST PUSH1 0x60 SWAP2 POP JUMPDEST POP POP DUP1 SWAP2 POP POP DUP1 SWAP3 POP POP POP SWAP3 SWAP2 POP POP JUMP JUMPDEST PUSH1 0x0 ADDRESS PUSH20 0xFFFFFFFFFFFFFFFFFFFFFFFFFFFFFFFFFFFFFFFF AND PUSH4 0xAEFA7D98 DUP4 PUSH1 0x40 MLOAD DUP3 PUSH4 0xFFFFFFFF AND PUSH1 0xE0 SHL DUP2 MSTORE PUSH1 0x4 ADD PUSH3 0x6D8 SWAP2 SWAP1 PUSH3 0xDF4 JUMP JUMPDEST PUSH1 0x20 PUSH1 0x40 MLOAD DUP1 DUP4 SUB DUP2 DUP7 DUP1 EXTCODESIZE ISZERO DUP1 ISZERO PUSH3 0x6F1 JUMPI PUSH1 0x0 DUP1 REVERT JUMPDEST POP GAS STATICCALL ISZERO DUP1 ISZERO PUSH3 0x706 JUMPI RETURNDATASIZE PUSH1 0x0 DUP1 RETURNDATACOPY RETURNDATASIZE PUSH1 0x0 REVERT JUMPDEST POP POP POP POP PUSH1 0x40 MLOAD RETURNDATASIZE PUSH1 0x1F NOT PUSH1 0x1F DUP3 ADD AND DUP3 ADD DUP1 PUSH1 0x40 MSTORE POP DUP2 ADD SWAP1 PUSH3 0x72C SWAP2 SWAP1 PUSH3 0x9C8 JUMP JUMPDEST PUSH20 0xFFFFFFFFFFFFFFFFFFFFFFFFFFFFFFFFFFFFFFFF AND BALANCE SWAP1 POP SWAP2 SWAP1 POP JUMP JUMPDEST PUSH1 0x0 DUP1 PUSH1 0x1 DUP4 DUP2 SLOAD DUP2 LT PUSH3 0x788 JUMPI PUSH32 0x4E487B7100000000000000000000000000000000000000000000000000000000 PUSH1 0x0 MSTORE PUSH1 0x32 PUSH1 0x4 MSTORE PUSH1 0x24 PUSH1 0x0 REVERT JUMPDEST SWAP1 PUSH1 0x0 MSTORE PUSH1 0x20 PUSH1 0x0 KECCAK256 ADD PUSH1 0x0 SWAP1 SLOAD SWAP1 PUSH2 0x100 EXP SWAP1 DIV PUSH20 0xFFFFFFFFFFFFFFFFFFFFFFFFFFFFFFFFFFFFFFFF AND SWAP1 POP DUP1 SWAP2 POP POP SWAP2 SWAP1 POP JUMP JUMPDEST PUSH1 0x0 DUP1 DUP6 DUP6 DUP6 DUP6 PUSH1 0x40 MLOAD PUSH3 0x7D3 SWAP1 PUSH3 0x891 JUMP JUMPDEST PUSH3 0x7E2 SWAP5 SWAP4 SWAP3 SWAP2 SWAP1 PUSH3 0xD06 JUMP JUMPDEST PUSH1 0x40 MLOAD DUP1 SWAP2 SUB SWAP1 PUSH1 0x0 CREATE DUP1 ISZERO DUP1 ISZERO PUSH3 0x7FF JUMPI RETURNDATASIZE PUSH1 0x0 DUP1 RETURNDATACOPY RETURNDATASIZE PUSH1 0x0 REVERT JUMPDEST POP SWAP1 POP PUSH1 0x1 DUP2 SWAP1 DUP1 PUSH1 0x1 DUP2 SLOAD ADD DUP1 DUP3 SSTORE DUP1 SWAP2 POP POP PUSH1 0x1 SWAP1 SUB SWAP1 PUSH1 0x0 MSTORE PUSH1 0x20 PUSH1 0x0 KECCAK256 ADD PUSH1 0x0 SWAP1 SWAP2 SWAP1 SWAP2 SWAP1 SWAP2 PUSH2 0x100 EXP DUP2 SLOAD DUP2 PUSH20 0xFFFFFFFFFFFFFFFFFFFFFFFFFFFFFFFFFFFFFFFF MUL NOT AND SWAP1 DUP4 PUSH20 0xFFFFFFFFFFFFFFFFFFFFFFFFFFFFFFFFFFFFFFFF AND MUL OR SWAP1 SSTORE POP PUSH1 0x1 PUSH1 0x0 SLOAD PUSH3 0x876 SWAP2 SWAP1 PUSH3 0xE97 JUMP JUMPDEST PUSH1 0x0 DUP2 SWAP1 SSTORE POP PUSH1 0x1 SWAP2 POP POP SWAP5 SWAP4 POP POP POP POP JUMP JUMPDEST PUSH1 0x0 ADDRESS SWAP1 POP SWAP1 JUMP JUMPDEST PUSH2 0xC2D DUP1 PUSH3 0x1088 DUP4 CODECOPY ADD SWAP1 JUMP JUMPDEST PUSH1 0x0 PUSH3 0x8B6 PUSH3 0x8B0 DUP5 PUSH3 0xE3A JUMP JUMPDEST PUSH3 0xE11 JUMP JUMPDEST SWAP1 POP DUP3 DUP2 MSTORE PUSH1 0x20 DUP2 ADD DUP5 DUP5 DUP5 ADD GT ISZERO PUSH3 0x8CF JUMPI PUSH1 0x0 DUP1 REVERT JUMPDEST PUSH3 0x8DC DUP5 DUP3 DUP6 PUSH3 0xF66 JUMP JUMPDEST POP SWAP4 SWAP3 POP POP POP JUMP JUMPDEST PUSH1 0x0 PUSH3 0x8FB PUSH3 0x8F5 DUP5 PUSH3 0xE3A JUMP JUMPDEST PUSH3 0xE11 JUMP JUMPDEST SWAP1 POP DUP3 DUP2 MSTORE PUSH1 0x20 DUP2 ADD DUP5 DUP5 DUP5 ADD GT ISZERO PUSH3 0x914 JUMPI PUSH1 0x0 DUP1 REVERT JUMPDEST PUSH3 0x921 DUP5 DUP3 DUP6 PUSH3 0xF75 JUMP JUMPDEST POP SWAP4 SWAP3 POP POP POP JUMP JUMPDEST PUSH1 0x0 DUP2 CALLDATALOAD SWAP1 POP PUSH3 0x93A DUP2 PUSH3 0x1053 JUMP JUMPDEST SWAP3 SWAP2 POP POP JUMP JUMPDEST PUSH1 0x0 DUP2 MLOAD SWAP1 POP PUSH3 0x951 DUP2 PUSH3 0x1053 JUMP JUMPDEST SWAP3 SWAP2 POP POP JUMP JUMPDEST PUSH1 0x0 DUP3 PUSH1 0x1F DUP4 ADD SLT PUSH3 0x969 JUMPI PUSH1 0x0 DUP1 REVERT JUMPDEST DUP2 CALLDATALOAD PUSH3 0x97B DUP5 DUP3 PUSH1 0x20 DUP7 ADD PUSH3 0x89F JUMP JUMPDEST SWAP2 POP POP SWAP3 SWAP2 POP POP JUMP JUMPDEST PUSH1 0x0 DUP3 PUSH1 0x1F DUP4 ADD SLT PUSH3 0x996 JUMPI PUSH1 0x0 DUP1 REVERT JUMPDEST DUP2 MLOAD PUSH3 0x9A8 DUP5 DUP3 PUSH1 0x20 DUP7 ADD PUSH3 0x8E4 JUMP JUMPDEST SWAP2 POP POP SWAP3 SWAP2 POP POP JUMP JUMPDEST PUSH1 0x0 DUP2 CALLDATALOAD SWAP1 POP PUSH3 0x9C2 DUP2 PUSH3 0x106D JUMP JUMPDEST SWAP3 SWAP2 POP POP JUMP JUMPDEST PUSH1 0x0 PUSH1 0x20 DUP3 DUP5 SUB SLT ISZERO PUSH3 0x9DB JUMPI PUSH1 0x0 DUP1 REVERT JUMPDEST PUSH1 0x0 PUSH3 0x9EB DUP5 DUP3 DUP6 ADD PUSH3 0x940 JUMP JUMPDEST SWAP2 POP POP SWAP3 SWAP2 POP POP JUMP JUMPDEST PUSH1 0x0 DUP1 PUSH1 0x0 DUP1 PUSH1 0x80 DUP6 DUP8 SUB SLT ISZERO PUSH3 0xA0B JUMPI PUSH1 0x0 DUP1 REVERT JUMPDEST PUSH1 0x0 PUSH3 0xA1B DUP8 DUP3 DUP9 ADD PUSH3 0x929 JUMP JUMPDEST SWAP5 POP POP PUSH1 0x20 DUP6 ADD CALLDATALOAD PUSH8 0xFFFFFFFFFFFFFFFF DUP2 GT ISZERO PUSH3 0xA39 JUMPI PUSH1 0x0 DUP1 REVERT JUMPDEST PUSH3 0xA47 DUP8 DUP3 DUP9 ADD PUSH3 0x957 JUMP JUMPDEST SWAP4 POP POP PUSH1 0x40 DUP6 ADD CALLDATALOAD PUSH8 0xFFFFFFFFFFFFFFFF DUP2 GT ISZERO PUSH3 0xA65 JUMPI PUSH1 0x0 DUP1 REVERT JUMPDEST PUSH3 0xA73 DUP8 DUP3 DUP9 ADD PUSH3 0x957 JUMP JUMPDEST SWAP3 POP POP PUSH1 0x60 DUP6 ADD CALLDATALOAD PUSH8 0xFFFFFFFFFFFFFFFF DUP2 GT ISZERO PUSH3 0xA91 JUMPI PUSH1 0x0 DUP1 REVERT JUMPDEST PUSH3 0xA9F DUP8 DUP3 DUP9 ADD PUSH3 0x957 JUMP JUMPDEST SWAP2 POP POP SWAP3 SWAP6 SWAP2 SWAP5 POP SWAP3 POP JUMP JUMPDEST PUSH1 0x0 DUP1 PUSH1 0x0 PUSH1 0x60 DUP5 DUP7 SUB SLT ISZERO PUSH3 0xAC1 JUMPI PUSH1 0x0 DUP1 REVERT JUMPDEST PUSH1 0x0 DUP5 ADD MLOAD PUSH8 0xFFFFFFFFFFFFFFFF DUP2 GT ISZERO PUSH3 0xADC JUMPI PUSH1 0x0 DUP1 REVERT JUMPDEST PUSH3 0xAEA DUP7 DUP3 DUP8 ADD PUSH3 0x984 JUMP JUMPDEST SWAP4 POP POP PUSH1 0x20 DUP5 ADD MLOAD PUSH8 0xFFFFFFFFFFFFFFFF DUP2 GT ISZERO PUSH3 0xB08 JUMPI PUSH1 0x0 DUP1 REVERT JUMPDEST PUSH3 0xB16 DUP7 DUP3 DUP8 ADD PUSH3 0x984 JUMP JUMPDEST SWAP3 POP POP PUSH1 0x40 DUP5 ADD MLOAD PUSH8 0xFFFFFFFFFFFFFFFF DUP2 GT ISZERO PUSH3 0xB34 JUMPI PUSH1 0x0 DUP1 REVERT JUMPDEST PUSH3 0xB42 DUP7 DUP3 DUP8 ADD PUSH3 0x984 JUMP JUMPDEST SWAP2 POP POP SWAP3 POP SWAP3 POP SWAP3 JUMP JUMPDEST PUSH1 0x0 PUSH1 0x20 DUP3 DUP5 SUB SLT ISZERO PUSH3 0xB5F JUMPI PUSH1 0x0 DUP1 REVERT JUMPDEST PUSH1 0x0 PUSH3 0xB6F DUP5 DUP3 DUP6 ADD PUSH3 0x9B1 JUMP JUMPDEST SWAP2 POP POP SWAP3 SWAP2 POP POP JUMP JUMPDEST PUSH1 0x0 DUP1 PUSH1 0x40 DUP4 DUP6 SUB SLT ISZERO PUSH3 0xB8C JUMPI PUSH1 0x0 DUP1 REVERT JUMPDEST PUSH1 0x0 PUSH3 0xB9C DUP6 DUP3 DUP7 ADD PUSH3 0x9B1 JUMP JUMPDEST SWAP3 POP POP PUSH1 0x20 DUP4 ADD CALLDATALOAD PUSH8 0xFFFFFFFFFFFFFFFF DUP2 GT ISZERO PUSH3 0xBBA JUMPI PUSH1 0x0 DUP1 REVERT JUMPDEST PUSH3 0xBC8 DUP6 DUP3 DUP7 ADD PUSH3 0x957 JUMP JUMPDEST SWAP2 POP POP SWAP3 POP SWAP3 SWAP1 POP JUMP JUMPDEST PUSH3 0xBDD DUP2 PUSH3 0xEF4 JUMP JUMPDEST DUP3 MSTORE POP POP JUMP JUMPDEST PUSH3 0xBEE DUP2 PUSH3 0xF08 JUMP JUMPDEST DUP3 MSTORE POP POP JUMP JUMPDEST PUSH3 0xBFF DUP2 PUSH3 0xF3E JUMP JUMPDEST DUP3 MSTORE POP POP JUMP JUMPDEST PUSH1 0x0 PUSH3 0xC12 DUP3 PUSH3 0xE70 JUMP JUMPDEST PUSH3 0xC1E DUP2 DUP6 PUSH3 0xE86 JUMP JUMPDEST SWAP4 POP PUSH3 0xC30 DUP2 DUP6 PUSH1 0x20 DUP7 ADD PUSH3 0xF75 JUMP JUMPDEST PUSH3 0xC3B DUP2 PUSH3 0x103F JUMP JUMPDEST DUP5 ADD SWAP2 POP POP SWAP3 SWAP2 POP POP JUMP JUMPDEST PUSH1 0x0 PUSH3 0xC55 PUSH1 0x0 DUP4 PUSH3 0xE7B JUMP JUMPDEST SWAP2 POP PUSH3 0xC62 DUP3 PUSH3 0x1050 JUMP JUMPDEST PUSH1 0x0 DUP3 ADD SWAP1 POP SWAP2 SWAP1 POP JUMP JUMPDEST PUSH3 0xC78 DUP2 PUSH3 0xF34 JUMP JUMPDEST DUP3 MSTORE POP POP JUMP JUMPDEST PUSH1 0x0 PUSH3 0xC8B DUP3 PUSH3 0xC46 JUMP JUMPDEST SWAP2 POP DUP2 SWAP1 POP SWAP2 SWAP1 POP JUMP JUMPDEST PUSH1 0x0 PUSH1 0x20 DUP3 ADD SWAP1 POP PUSH3 0xCAC PUSH1 0x0 DUP4 ADD DUP5 PUSH3 0xBD2 JUMP JUMPDEST SWAP3 SWAP2 POP POP JUMP JUMPDEST PUSH1 0x0 PUSH1 0x80 DUP3 ADD SWAP1 POP PUSH3 0xCC9 PUSH1 0x0 DUP4 ADD DUP8 PUSH3 0xBD2 JUMP JUMPDEST PUSH3 0xCD8 PUSH1 0x20 DUP4 ADD DUP7 PUSH3 0xBD2 JUMP JUMPDEST PUSH3 0xCE7 PUSH1 0x40 DUP4 ADD DUP6 PUSH3 0xC6D JUMP JUMPDEST DUP2 DUP2 SUB PUSH1 0x60 DUP4 ADD MSTORE PUSH3 0xCFB DUP2 DUP5 PUSH3 0xC05 JUMP JUMPDEST SWAP1 POP SWAP6 SWAP5 POP POP POP POP POP JUMP JUMPDEST PUSH1 0x0 PUSH1 0x80 DUP3 ADD SWAP1 POP PUSH3 0xD1D PUSH1 0x0 DUP4 ADD DUP8 PUSH3 0xBD2 JUMP JUMPDEST DUP2 DUP2 SUB PUSH1 0x20 DUP4 ADD MSTORE PUSH3 0xD31 DUP2 DUP7 PUSH3 0xC05 JUMP JUMPDEST SWAP1 POP DUP2 DUP2 SUB PUSH1 0x40 DUP4 ADD MSTORE PUSH3 0xD47 DUP2 DUP6 PUSH3 0xC05 JUMP JUMPDEST SWAP1 POP DUP2 DUP2 SUB PUSH1 0x60 DUP4 ADD MSTORE PUSH3 0xD5D DUP2 DUP5 PUSH3 0xC05 JUMP JUMPDEST SWAP1 POP SWAP6 SWAP5 POP POP POP POP POP JUMP JUMPDEST PUSH1 0x0 PUSH1 0x20 DUP3 ADD SWAP1 POP PUSH3 0xD7F PUSH1 0x0 DUP4 ADD DUP5 PUSH3 0xBE3 JUMP JUMPDEST SWAP3 SWAP2 POP POP JUMP JUMPDEST PUSH1 0x0 PUSH1 0x20 DUP3 ADD SWAP1 POP PUSH3 0xD9C PUSH1 0x0 DUP4 ADD DUP5 PUSH3 0xBF4 JUMP JUMPDEST SWAP3 SWAP2 POP POP JUMP JUMPDEST PUSH1 0x0 PUSH1 0x60 DUP3 ADD SWAP1 POP DUP2 DUP2 SUB PUSH1 0x0 DUP4 ADD MSTORE PUSH3 0xDBE DUP2 DUP7 PUSH3 0xC05 JUMP JUMPDEST SWAP1 POP DUP2 DUP2 SUB PUSH1 0x20 DUP4 ADD MSTORE PUSH3 0xDD4 DUP2 DUP6 PUSH3 0xC05 JUMP JUMPDEST SWAP1 POP DUP2 DUP2 SUB PUSH1 0x40 DUP4 ADD MSTORE PUSH3 0xDEA DUP2 DUP5 PUSH3 0xC05 JUMP JUMPDEST SWAP1 POP SWAP5 SWAP4 POP POP POP POP JUMP JUMPDEST PUSH1 0x0 PUSH1 0x20 DUP3 ADD SWAP1 POP PUSH3 0xE0B PUSH1 0x0 DUP4 ADD DUP5 PUSH3 0xC6D JUMP JUMPDEST SWAP3 SWAP2 POP POP JUMP JUMPDEST PUSH1 0x0 PUSH3 0xE1D PUSH3 0xE30 JUMP JUMPDEST SWAP1 POP PUSH3 0xE2B DUP3 DUP3 PUSH3 0xFAB JUMP JUMPDEST SWAP2 SWAP1 POP JUMP JUMPDEST PUSH1 0x0 PUSH1 0x40 MLOAD SWAP1 POP SWAP1 JUMP JUMPDEST PUSH1 0x0 PUSH8 0xFFFFFFFFFFFFFFFF DUP3 GT ISZERO PUSH3 0xE58 JUMPI PUSH3 0xE57 PUSH3 0x1010 JUMP JUMPDEST JUMPDEST PUSH3 0xE63 DUP3 PUSH3 0x103F JUMP JUMPDEST SWAP1 POP PUSH1 0x20 DUP2 ADD SWAP1 POP SWAP2 SWAP1 POP JUMP JUMPDEST PUSH1 0x0 DUP2 MLOAD SWAP1 POP SWAP2 SWAP1 POP JUMP JUMPDEST PUSH1 0x0 DUP2 SWAP1 POP SWAP3 SWAP2 POP POP JUMP JUMPDEST PUSH1 0x0 DUP3 DUP3 MSTORE PUSH1 0x20 DUP3 ADD SWAP1 POP SWAP3 SWAP2 POP POP JUMP JUMPDEST PUSH1 0x0 PUSH3 0xEA4 DUP3 PUSH3 0xF34 JUMP JUMPDEST SWAP2 POP PUSH3 0xEB1 DUP4 PUSH3 0xF34 JUMP JUMPDEST SWAP3 POP DUP3 PUSH32 0xFFFFFFFFFFFFFFFFFFFFFFFFFFFFFFFFFFFFFFFFFFFFFFFFFFFFFFFFFFFFFFFF SUB DUP3 GT ISZERO PUSH3 0xEE9 JUMPI PUSH3 0xEE8 PUSH3 0xFE1 JUMP JUMPDEST JUMPDEST DUP3 DUP3 ADD SWAP1 POP SWAP3 SWAP2 POP POP JUMP JUMPDEST PUSH1 0x0 PUSH3 0xF01 DUP3 PUSH3 0xF14 JUMP JUMPDEST SWAP1 POP SWAP2 SWAP1 POP JUMP JUMPDEST PUSH1 0x0 DUP2 ISZERO ISZERO SWAP1 POP SWAP2 SWAP1 POP JUMP JUMPDEST PUSH1 0x0 PUSH20 0xFFFFFFFFFFFFFFFFFFFFFFFFFFFFFFFFFFFFFFFF DUP3 AND SWAP1 POP SWAP2 SWAP1 POP JUMP JUMPDEST PUSH1 0x0 DUP2 SWAP1 POP SWAP2 SWAP1 POP JUMP JUMPDEST PUSH1 0x0 PUSH3 0xF4B DUP3 PUSH3 0xF52 JUMP JUMPDEST SWAP1 POP SWAP2 SWAP1 POP JUMP JUMPDEST PUSH1 0x0 PUSH3 0xF5F DUP3 PUSH3 0xF14 JUMP JUMPDEST SWAP1 POP SWAP2 SWAP1 POP JUMP JUMPDEST DUP3 DUP2 DUP4 CALLDATACOPY PUSH1 0x0 DUP4 DUP4 ADD MSTORE POP POP POP JUMP JUMPDEST PUSH1 0x0 JUMPDEST DUP4 DUP2 LT ISZERO PUSH3 0xF95 JUMPI DUP1 DUP3 ADD MLOAD DUP2 DUP5 ADD MSTORE PUSH1 0x20 DUP2 ADD SWAP1 POP PUSH3 0xF78 JUMP JUMPDEST DUP4 DUP2 GT ISZERO PUSH3 0xFA5 JUMPI PUSH1 0x0 DUP5 DUP5 ADD MSTORE JUMPDEST POP POP POP POP JUMP JUMPDEST PUSH3 0xFB6 DUP3 PUSH3 0x103F JUMP JUMPDEST DUP2 ADD DUP2 DUP2 LT PUSH8 0xFFFFFFFFFFFFFFFF DUP3 GT OR ISZERO PUSH3 0xFD8 JUMPI PUSH3 0xFD7 PUSH3 0x1010 JUMP JUMPDEST JUMPDEST DUP1 PUSH1 0x40 MSTORE POP POP POP JUMP JUMPDEST PUSH32 0x4E487B7100000000000000000000000000000000000000000000000000000000 PUSH1 0x0 MSTORE PUSH1 0x11 PUSH1 0x4 MSTORE PUSH1 0x24 PUSH1 0x0 REVERT JUMPDEST PUSH32 0x4E487B7100000000000000000000000000000000000000000000000000000000 PUSH1 0x0 MSTORE PUSH1 0x41 PUSH1 0x4 MSTORE PUSH1 0x24 PUSH1 0x0 REVERT JUMPDEST PUSH1 0x0 PUSH1 0x1F NOT PUSH1 0x1F DUP4 ADD AND SWAP1 POP SWAP2 SWAP1 POP JUMP JUMPDEST POP JUMP JUMPDEST PUSH3 0x105E DUP2 PUSH3 0xEF4 JUMP JUMPDEST DUP2 EQ PUSH3 0x106A JUMPI PUSH1 0x0 DUP1 REVERT JUMPDEST POP JUMP JUMPDEST PUSH3 0x1078 DUP2 PUSH3 0xF34 JUMP JUMPDEST DUP2 EQ PUSH3 0x1084 JUMPI PUSH1 0x0 DUP1 REVERT JUMPDEST POP JUMP INVALID PUSH1 0x80 PUSH1 0x40 MSTORE CALLVALUE DUP1 ISZERO PUSH3 0x11 JUMPI PUSH1 0x0 DUP1 REVERT JUMPDEST POP PUSH1 0x40 MLOAD PUSH3 0xC2D CODESIZE SUB DUP1 PUSH3 0xC2D DUP4 CODECOPY DUP2 DUP2 ADD PUSH1 0x40 MSTORE DUP2 ADD SWAP1 PUSH3 0x37 SWAP2 SWAP1 PUSH3 0x205 JUMP JUMPDEST DUP4 PUSH1 0x0 DUP1 PUSH2 0x100 EXP DUP2 SLOAD DUP2 PUSH20 0xFFFFFFFFFFFFFFFFFFFFFFFFFFFFFFFFFFFFFFFF MUL NOT AND SWAP1 DUP4 PUSH20 0xFFFFFFFFFFFFFFFFFFFFFFFFFFFFFFFFFFFFFFFF AND MUL OR SWAP1 SSTORE POP DUP3 PUSH1 0x1 SWAP1 DUP1 MLOAD SWAP1 PUSH1 0x20 ADD SWAP1 PUSH3 0x8F SWAP3 SWAP2 SWAP1 PUSH3 0xCC JUMP JUMPDEST POP DUP2 PUSH1 0x2 SWAP1 DUP1 MLOAD SWAP1 PUSH1 0x20 ADD SWAP1 PUSH3 0xA8 SWAP3 SWAP2 SWAP1 PUSH3 0xCC JUMP JUMPDEST POP DUP1 PUSH1 0x3 SWAP1 DUP1 MLOAD SWAP1 PUSH1 0x20 ADD SWAP1 PUSH3 0xC1 SWAP3 SWAP2 SWAP1 PUSH3 0xCC JUMP JUMPDEST POP POP POP POP POP PUSH3 0x47A JUMP JUMPDEST DUP3 DUP1 SLOAD PUSH3 0xDA SWAP1 PUSH3 0x385 JUMP JUMPDEST SWAP1 PUSH1 0x0 MSTORE PUSH1 0x20 PUSH1 0x0 KECCAK256 SWAP1 PUSH1 0x1F ADD PUSH1 0x20 SWAP1 DIV DUP2 ADD SWAP3 DUP3 PUSH3 0xFE JUMPI PUSH1 0x0 DUP6 SSTORE PUSH3 0x14A JUMP JUMPDEST DUP3 PUSH1 0x1F LT PUSH3 0x119 JUMPI DUP1 MLOAD PUSH1 0xFF NOT AND DUP4 DUP1 ADD OR DUP6 SSTORE PUSH3 0x14A JUMP JUMPDEST DUP3 DUP1 ADD PUSH1 0x1 ADD DUP6 SSTORE DUP3 ISZERO PUSH3 0x14A JUMPI SWAP2 DUP3 ADD JUMPDEST DUP3 DUP2 GT ISZERO PUSH3 0x149 JUMPI DUP3 MLOAD DUP3 SSTORE SWAP2 PUSH1 0x20 ADD SWAP2 SWAP1 PUSH1 0x1 ADD SWAP1 PUSH3 0x12C JUMP JUMPDEST JUMPDEST POP SWAP1 POP PUSH3 0x159 SWAP2 SWAP1 PUSH3 0x15D JUMP JUMPDEST POP SWAP1 JUMP JUMPDEST JUMPDEST DUP1 DUP3 GT ISZERO PUSH3 0x178 JUMPI PUSH1 0x0 DUP2 PUSH1 0x0 SWAP1 SSTORE POP PUSH1 0x1 ADD PUSH3 0x15E JUMP JUMPDEST POP SWAP1 JUMP JUMPDEST PUSH1 0x0 PUSH3 0x193 PUSH3 0x18D DUP5 PUSH3 0x2E5 JUMP JUMPDEST PUSH3 0x2BC JUMP JUMPDEST SWAP1 POP DUP3 DUP2 MSTORE PUSH1 0x20 DUP2 ADD DUP5 DUP5 DUP5 ADD GT ISZERO PUSH3 0x1AC JUMPI PUSH1 0x0 DUP1 REVERT JUMPDEST PUSH3 0x1B9 DUP5 DUP3 DUP6 PUSH3 0x34F JUMP JUMPDEST POP SWAP4 SWAP3 POP POP POP JUMP JUMPDEST PUSH1 0x0 DUP2 MLOAD SWAP1 POP PUSH3 0x1D2 DUP2 PUSH3 0x460 JUMP JUMPDEST SWAP3 SWAP2 POP POP JUMP JUMPDEST PUSH1 0x0 DUP3 PUSH1 0x1F DUP4 ADD SLT PUSH3 0x1EA JUMPI PUSH1 0x0 DUP1 REVERT JUMPDEST DUP2 MLOAD PUSH3 0x1FC DUP5 DUP3 PUSH1 0x20 DUP7 ADD PUSH3 0x17C JUMP JUMPDEST SWAP2 POP POP SWAP3 SWAP2 POP POP JUMP JUMPDEST PUSH1 0x0 DUP1 PUSH1 0x0 DUP1 PUSH1 0x80 DUP6 DUP8 SUB SLT ISZERO PUSH3 0x21C JUMPI PUSH1 0x0 DUP1 REVERT JUMPDEST PUSH1 0x0 PUSH3 0x22C DUP8 DUP3 DUP9 ADD PUSH3 0x1C1 JUMP JUMPDEST SWAP5 POP POP PUSH1 0x20 DUP6 ADD MLOAD PUSH8 0xFFFFFFFFFFFFFFFF DUP2 GT ISZERO PUSH3 0x24A JUMPI PUSH1 0x0 DUP1 REVERT JUMPDEST PUSH3 0x258 DUP8 DUP3 DUP9 ADD PUSH3 0x1D8 JUMP JUMPDEST SWAP4 POP POP PUSH1 0x40 DUP6 ADD MLOAD PUSH8 0xFFFFFFFFFFFFFFFF DUP2 GT ISZERO PUSH3 0x276 JUMPI PUSH1 0x0 DUP1 REVERT JUMPDEST PUSH3 0x284 DUP8 DUP3 DUP9 ADD PUSH3 0x1D8 JUMP JUMPDEST SWAP3 POP POP PUSH1 0x60 DUP6 ADD MLOAD PUSH8 0xFFFFFFFFFFFFFFFF DUP2 GT ISZERO PUSH3 0x2A2 JUMPI PUSH1 0x0 DUP1 REVERT JUMPDEST PUSH3 0x2B0 DUP8 DUP3 DUP9 ADD PUSH3 0x1D8 JUMP JUMPDEST SWAP2 POP POP SWAP3 SWAP6 SWAP2 SWAP5 POP SWAP3 POP JUMP JUMPDEST PUSH1 0x0 PUSH3 0x2C8 PUSH3 0x2DB JUMP JUMPDEST SWAP1 POP PUSH3 0x2D6 DUP3 DUP3 PUSH3 0x3BB JUMP JUMPDEST SWAP2 SWAP1 POP JUMP JUMPDEST PUSH1 0x0 PUSH1 0x40 MLOAD SWAP1 POP SWAP1 JUMP JUMPDEST PUSH1 0x0 PUSH8 0xFFFFFFFFFFFFFFFF DUP3 GT ISZERO PUSH3 0x303 JUMPI PUSH3 0x302 PUSH3 0x420 JUMP JUMPDEST JUMPDEST PUSH3 0x30E DUP3 PUSH3 0x44F JUMP JUMPDEST SWAP1 POP PUSH1 0x20 DUP2 ADD SWAP1 POP SWAP2 SWAP1 POP JUMP JUMPDEST PUSH1 0x0 PUSH3 0x328 DUP3 PUSH3 0x32F JUMP JUMPDEST SWAP1 POP SWAP2 SWAP1 POP JUMP JUMPDEST PUSH1 0x0 PUSH20 0xFFFFFFFFFFFFFFFFFFFFFFFFFFFFFFFFFFFFFFFF DUP3 AND SWAP1 POP SWAP2 SWAP1 POP JUMP JUMPDEST PUSH1 0x0 JUMPDEST DUP4 DUP2 LT ISZERO PUSH3 0x36F JUMPI DUP1 DUP3 ADD MLOAD DUP2 DUP5 ADD MSTORE PUSH1 0x20 DUP2 ADD SWAP1 POP PUSH3 0x352 JUMP JUMPDEST DUP4 DUP2 GT ISZERO PUSH3 0x37F JUMPI PUSH1 0x0 DUP5 DUP5 ADD MSTORE JUMPDEST POP POP POP POP JUMP JUMPDEST PUSH1 0x0 PUSH1 0x2 DUP3 DIV SWAP1 POP PUSH1 0x1 DUP3 AND DUP1 PUSH3 0x39E JUMPI PUSH1 0x7F DUP3 AND SWAP2 POP JUMPDEST PUSH1 0x20 DUP3 LT DUP2 EQ ISZERO PUSH3 0x3B5 JUMPI PUSH3 0x3B4 PUSH3 0x3F1 JUMP JUMPDEST JUMPDEST POP SWAP2 SWAP1 POP JUMP JUMPDEST PUSH3 0x3C6 DUP3 PUSH3 0x44F JUMP JUMPDEST DUP2 ADD DUP2 DUP2 LT PUSH8 0xFFFFFFFFFFFFFFFF DUP3 GT OR ISZERO PUSH3 0x3E8 JUMPI PUSH3 0x3E7 PUSH3 0x420 JUMP JUMPDEST JUMPDEST DUP1 PUSH1 0x40 MSTORE POP POP POP JUMP JUMPDEST PUSH32 0x4E487B7100000000000000000000000000000000000000000000000000000000 PUSH1 0x0 MSTORE PUSH1 0x22 PUSH1 0x4 MSTORE PUSH1 0x24 PUSH1 0x0 REVERT JUMPDEST PUSH32 0x4E487B7100000000000000000000000000000000000000000000000000000000 PUSH1 0x0 MSTORE PUSH1 0x41 PUSH1 0x4 MSTORE PUSH1 0x24 PUSH1 0x0 REVERT JUMPDEST PUSH1 0x0 PUSH1 0x1F NOT PUSH1 0x1F DUP4 ADD AND SWAP1 POP SWAP2 SWAP1 POP JUMP JUMPDEST PUSH3 0x46B DUP2 PUSH3 0x31B JUMP JUMPDEST DUP2 EQ PUSH3 0x477 JUMPI PUSH1 0x0 DUP1 REVERT JUMPDEST POP JUMP JUMPDEST PUSH2 0x7A3 DUP1 PUSH3 0x48A PUSH1 0x0 CODECOPY PUSH1 0x0 RETURN INVALID PUSH1 0x80 PUSH1 0x40 MSTORE PUSH1 0x4 CALLDATASIZE LT PUSH2 0x43 JUMPI PUSH1 0x0 CALLDATALOAD PUSH1 0xE0 SHR DUP1 PUSH4 0x3CCFD60B EQ PUSH2 0x8A JUMPI DUP1 PUSH4 0x580AA5D3 EQ PUSH2 0xA1 JUMPI DUP1 PUSH4 0x8995BC2E EQ PUSH2 0xCC JUMPI DUP1 PUSH4 0xDD9EBA57 EQ PUSH2 0xF7 JUMPI PUSH2 0x85 JUMP JUMPDEST CALLDATASIZE PUSH2 0x85 JUMPI PUSH32 0x11BC892157FDD60DF9EBCF9D5AD60CA17A129ED098AFB31C5A34EBE3489AB15E CALLER ADDRESS CALLVALUE PUSH1 0x40 MLOAD PUSH2 0x7B SWAP4 SWAP3 SWAP2 SWAP1 PUSH2 0x527 JUMP JUMPDEST PUSH1 0x40 MLOAD DUP1 SWAP2 SUB SWAP1 LOG1 STOP JUMPDEST PUSH1 0x0 DUP1 REVERT JUMPDEST CALLVALUE DUP1 ISZERO PUSH2 0x96 JUMPI PUSH1 0x0 DUP1 REVERT JUMPDEST POP PUSH2 0x9F PUSH2 0x124 JUMP JUMPDEST STOP JUMPDEST CALLVALUE DUP1 ISZERO PUSH2 0xAD JUMPI PUSH1 0x0 DUP1 REVERT JUMPDEST POP PUSH2 0xB6 PUSH2 0x256 JUMP JUMPDEST PUSH1 0x40 MLOAD PUSH2 0xC3 SWAP2 SWAP1 PUSH2 0x5DD JUMP JUMPDEST PUSH1 0x40 MLOAD DUP1 SWAP2 SUB SWAP1 RETURN JUMPDEST CALLVALUE DUP1 ISZERO PUSH2 0xD8 JUMPI PUSH1 0x0 DUP1 REVERT JUMPDEST POP PUSH2 0xE1 PUSH2 0x25E JUMP JUMPDEST PUSH1 0x40 MLOAD PUSH2 0xEE SWAP2 SWAP1 PUSH2 0x4D5 JUMP JUMPDEST PUSH1 0x40 MLOAD DUP1 SWAP2 SUB SWAP1 RETURN JUMPDEST CALLVALUE DUP1 ISZERO PUSH2 0x103 JUMPI PUSH1 0x0 DUP1 REVERT JUMPDEST POP PUSH2 0x10C PUSH2 0x287 JUMP JUMPDEST PUSH1 0x40 MLOAD PUSH2 0x11B SWAP4 SWAP3 SWAP2 SWAP1 PUSH2 0x571 JUMP JUMPDEST PUSH1 0x40 MLOAD DUP1 SWAP2 SUB SWAP1 RETURN JUMPDEST PUSH1 0x0 DUP1 SLOAD SWAP1 PUSH2 0x100 EXP SWAP1 DIV PUSH20 0xFFFFFFFFFFFFFFFFFFFFFFFFFFFFFFFFFFFFFFFF AND PUSH20 0xFFFFFFFFFFFFFFFFFFFFFFFFFFFFFFFFFFFFFFFF AND CALLER PUSH20 0xFFFFFFFFFFFFFFFFFFFFFFFFFFFFFFFFFFFFFFFF AND EQ PUSH2 0x1B2 JUMPI PUSH1 0x40 MLOAD PUSH32 0x8C379A000000000000000000000000000000000000000000000000000000000 DUP2 MSTORE PUSH1 0x4 ADD PUSH2 0x1A9 SWAP1 PUSH2 0x5BD JUMP JUMPDEST PUSH1 0x40 MLOAD DUP1 SWAP2 SUB SWAP1 REVERT JUMPDEST CALLER PUSH20 0xFFFFFFFFFFFFFFFFFFFFFFFFFFFFFFFFFFFFFFFF AND PUSH2 0x8FC SELFBALANCE SWAP1 DUP2 ISZERO MUL SWAP1 PUSH1 0x40 MLOAD PUSH1 0x0 PUSH1 0x40 MLOAD DUP1 DUP4 SUB DUP2 DUP6 DUP9 DUP9 CALL SWAP4 POP POP POP POP ISZERO DUP1 ISZERO PUSH2 0x1F8 JUMPI RETURNDATASIZE PUSH1 0x0 DUP1 RETURNDATACOPY RETURNDATASIZE PUSH1 0x0 REVERT JUMPDEST POP PUSH32 0x6337ED398C0E8467698C581374FDCE4DB14922DF487B5A39483079F5F59B60A4 ADDRESS PUSH1 0x0 DUP1 SLOAD SWAP1 PUSH2 0x100 EXP SWAP1 DIV PUSH20 0xFFFFFFFFFFFFFFFFFFFFFFFFFFFFFFFFFFFFFFFF AND SELFBALANCE PUSH1 0x40 MLOAD PUSH2 0x24C SWAP4 SWAP3 SWAP2 SWAP1 PUSH2 0x4F0 JUMP JUMPDEST PUSH1 0x40 MLOAD DUP1 SWAP2 SUB SWAP1 LOG1 JUMP JUMPDEST PUSH1 0x0 SELFBALANCE SWAP1 POP SWAP1 JUMP JUMPDEST PUSH1 0x0 DUP1 PUSH1 0x0 SWAP1 SLOAD SWAP1 PUSH2 0x100 EXP SWAP1 DIV PUSH20 0xFFFFFFFFFFFFFFFFFFFFFFFFFFFFFFFFFFFFFFFF AND SWAP1 POP SWAP1 JUMP JUMPDEST PUSH1 0x60 DUP1 PUSH1 0x60 PUSH1 0x1 DUP1 SLOAD PUSH2 0x299 SWAP1 PUSH2 0x683 JUMP JUMPDEST DUP1 PUSH1 0x1F ADD PUSH1 0x20 DUP1 SWAP2 DIV MUL PUSH1 0x20 ADD PUSH1 0x40 MLOAD SWAP1 DUP2 ADD PUSH1 0x40 MSTORE DUP1 SWAP3 SWAP2 SWAP1 DUP2 DUP2 MSTORE PUSH1 0x20 ADD DUP3 DUP1 SLOAD PUSH2 0x2C5 SWAP1 PUSH2 0x683 JUMP JUMPDEST DUP1 ISZERO PUSH2 0x312 JUMPI DUP1 PUSH1 0x1F LT PUSH2 0x2E7 JUMPI PUSH2 0x100 DUP1 DUP4 SLOAD DIV MUL DUP4 MSTORE SWAP2 PUSH1 0x20 ADD SWAP2 PUSH2 0x312 JUMP JUMPDEST DUP3 ADD SWAP2 SWAP1 PUSH1 0x0 MSTORE PUSH1 0x20 PUSH1 0x0 KECCAK256 SWAP1 JUMPDEST DUP2 SLOAD DUP2 MSTORE SWAP1 PUSH1 0x1 ADD SWAP1 PUSH1 0x20 ADD DUP1 DUP4 GT PUSH2 0x2F5 JUMPI DUP3 SWAP1 SUB PUSH1 0x1F AND DUP3 ADD SWAP2 JUMPDEST POP POP POP POP POP SWAP3 POP PUSH1 0x2 DUP1 SLOAD PUSH2 0x326 SWAP1 PUSH2 0x683 JUMP JUMPDEST DUP1 PUSH1 0x1F ADD PUSH1 0x20 DUP1 SWAP2 DIV MUL PUSH1 0x20 ADD PUSH1 0x40 MLOAD SWAP1 DUP2 ADD PUSH1 0x40 MSTORE DUP1 SWAP3 SWAP2 SWAP1 DUP2 DUP2 MSTORE PUSH1 0x20 ADD DUP3 DUP1 SLOAD PUSH2 0x352 SWAP1 PUSH2 0x683 JUMP JUMPDEST DUP1 ISZERO PUSH2 0x39F JUMPI DUP1 PUSH1 0x1F LT PUSH2 0x374 JUMPI PUSH2 0x100 DUP1 DUP4 SLOAD DIV MUL DUP4 MSTORE SWAP2 PUSH1 0x20 ADD SWAP2 PUSH2 0x39F JUMP JUMPDEST DUP3 ADD SWAP2 SWAP1 PUSH1 0x0 MSTORE PUSH1 0x20 PUSH1 0x0 KECCAK256 SWAP1 JUMPDEST DUP2 SLOAD DUP2 MSTORE SWAP1 PUSH1 0x1 ADD SWAP1 PUSH1 0x20 ADD DUP1 DUP4 GT PUSH2 0x382 JUMPI DUP3 SWAP1 SUB PUSH1 0x1F AND DUP3 ADD SWAP2 JUMPDEST POP POP POP POP POP SWAP2 POP PUSH1 0x3 DUP1 SLOAD PUSH2 0x3B3 SWAP1 PUSH2 0x683 JUMP JUMPDEST DUP1 PUSH1 0x1F ADD PUSH1 0x20 DUP1 SWAP2 DIV MUL PUSH1 0x20 ADD PUSH1 0x40 MLOAD SWAP1 DUP2 ADD PUSH1 0x40 MSTORE DUP1 SWAP3 SWAP2 SWAP1 DUP2 DUP2 MSTORE PUSH1 0x20 ADD DUP3 DUP1 SLOAD PUSH2 0x3DF SWAP1 PUSH2 0x683 JUMP JUMPDEST DUP1 ISZERO PUSH2 0x42C JUMPI DUP1 PUSH1 0x1F LT PUSH2 0x401 JUMPI PUSH2 0x100 DUP1 DUP4 SLOAD DIV MUL DUP4 MSTORE SWAP2 PUSH1 0x20 ADD SWAP2 PUSH2 0x42C JUMP JUMPDEST DUP3 ADD SWAP2 SWAP1 PUSH1 0x0 MSTORE PUSH1 0x20 PUSH1 0x0 KECCAK256 SWAP1 JUMPDEST DUP2 SLOAD DUP2 MSTORE SWAP1 PUSH1 0x1 ADD SWAP1 PUSH1 0x20 ADD DUP1 DUP4 GT PUSH2 0x40F JUMPI DUP3 SWAP1 SUB PUSH1 0x1F AND DUP3 ADD SWAP2 JUMPDEST POP POP POP POP POP SWAP1 POP SWAP1 SWAP2 SWAP3 JUMP JUMPDEST PUSH2 0x441 DUP2 PUSH2 0x614 JUMP JUMPDEST DUP3 MSTORE POP POP JUMP JUMPDEST PUSH1 0x0 PUSH2 0x452 DUP3 PUSH2 0x5F8 JUMP JUMPDEST PUSH2 0x45C DUP2 DUP6 PUSH2 0x603 JUMP JUMPDEST SWAP4 POP PUSH2 0x46C DUP2 DUP6 PUSH1 0x20 DUP7 ADD PUSH2 0x650 JUMP JUMPDEST PUSH2 0x475 DUP2 PUSH2 0x6E4 JUMP JUMPDEST DUP5 ADD SWAP2 POP POP SWAP3 SWAP2 POP POP JUMP JUMPDEST PUSH1 0x0 PUSH2 0x48D PUSH1 0x18 DUP4 PUSH2 0x603 JUMP JUMPDEST SWAP2 POP PUSH2 0x498 DUP3 PUSH2 0x6F5 JUMP JUMPDEST PUSH1 0x20 DUP3 ADD SWAP1 POP SWAP2 SWAP1 POP JUMP JUMPDEST PUSH1 0x0 PUSH2 0x4B0 PUSH1 0x28 DUP4 PUSH2 0x603 JUMP JUMPDEST SWAP2 POP PUSH2 0x4BB DUP3 PUSH2 0x71E JUMP JUMPDEST PUSH1 0x40 DUP3 ADD SWAP1 POP SWAP2 SWAP1 POP JUMP JUMPDEST PUSH2 0x4CF DUP2 PUSH2 0x646 JUMP JUMPDEST DUP3 MSTORE POP POP JUMP JUMPDEST PUSH1 0x0 PUSH1 0x20 DUP3 ADD SWAP1 POP PUSH2 0x4EA PUSH1 0x0 DUP4 ADD DUP5 PUSH2 0x438 JUMP JUMPDEST SWAP3 SWAP2 POP POP JUMP JUMPDEST PUSH1 0x0 PUSH1 0x60 DUP3 ADD SWAP1 POP PUSH2 0x505 PUSH1 0x0 DUP4 ADD DUP7 PUSH2 0x438 JUMP JUMPDEST PUSH2 0x512 PUSH1 0x20 DUP4 ADD DUP6 PUSH2 0x438 JUMP JUMPDEST PUSH2 0x51F PUSH1 0x40 DUP4 ADD DUP5 PUSH2 0x4C6 JUMP JUMPDEST SWAP5 SWAP4 POP POP POP POP JUMP JUMPDEST PUSH1 0x0 PUSH1 0x80 DUP3 ADD SWAP1 POP PUSH2 0x53C PUSH1 0x0 DUP4 ADD DUP7 PUSH2 0x438 JUMP JUMPDEST PUSH2 0x549 PUSH1 0x20 DUP4 ADD DUP6 PUSH2 0x438 JUMP JUMPDEST PUSH2 0x556 PUSH1 0x40 DUP4 ADD DUP5 PUSH2 0x4C6 JUMP JUMPDEST DUP2 DUP2 SUB PUSH1 0x60 DUP4 ADD MSTORE PUSH2 0x567 DUP2 PUSH2 0x480 JUMP JUMPDEST SWAP1 POP SWAP5 SWAP4 POP POP POP POP JUMP JUMPDEST PUSH1 0x0 PUSH1 0x60 DUP3 ADD SWAP1 POP DUP2 DUP2 SUB PUSH1 0x0 DUP4 ADD MSTORE PUSH2 0x58B DUP2 DUP7 PUSH2 0x447 JUMP JUMPDEST SWAP1 POP DUP2 DUP2 SUB PUSH1 0x20 DUP4 ADD MSTORE PUSH2 0x59F DUP2 DUP6 PUSH2 0x447 JUMP JUMPDEST SWAP1 POP DUP2 DUP2 SUB PUSH1 0x40 DUP4 ADD MSTORE PUSH2 0x5B3 DUP2 DUP5 PUSH2 0x447 JUMP JUMPDEST SWAP1 POP SWAP5 SWAP4 POP POP POP POP JUMP JUMPDEST PUSH1 0x0 PUSH1 0x20 DUP3 ADD SWAP1 POP DUP2 DUP2 SUB PUSH1 0x0 DUP4 ADD MSTORE PUSH2 0x5D6 DUP2 PUSH2 0x4A3 JUMP JUMPDEST SWAP1 POP SWAP2 SWAP1 POP JUMP JUMPDEST PUSH1 0x0 PUSH1 0x20 DUP3 ADD SWAP1 POP PUSH2 0x5F2 PUSH1 0x0 DUP4 ADD DUP5 PUSH2 0x4C6 JUMP JUMPDEST SWAP3 SWAP2 POP POP JUMP JUMPDEST PUSH1 0x0 DUP2 MLOAD SWAP1 POP SWAP2 SWAP1 POP JUMP JUMPDEST PUSH1 0x0 DUP3 DUP3 MSTORE PUSH1 0x20 DUP3 ADD SWAP1 POP SWAP3 SWAP2 POP POP JUMP JUMPDEST PUSH1 0x0 PUSH2 0x61F DUP3 PUSH2 0x626 JUMP JUMPDEST SWAP1 POP SWAP2 SWAP1 POP JUMP JUMPDEST PUSH1 0x0 PUSH20 0xFFFFFFFFFFFFFFFFFFFFFFFFFFFFFFFFFFFFFFFF DUP3 AND SWAP1 POP SWAP2 SWAP1 POP JUMP JUMPDEST PUSH1 0x0 DUP2 SWAP1 POP SWAP2 SWAP1 POP JUMP JUMPDEST PUSH1 0x0 JUMPDEST DUP4 DUP2 LT ISZERO PUSH2 0x66E JUMPI DUP1 DUP3 ADD MLOAD DUP2 DUP5 ADD MSTORE PUSH1 0x20 DUP2 ADD SWAP1 POP PUSH2 0x653 JUMP JUMPDEST DUP4 DUP2 GT ISZERO PUSH2 0x67D JUMPI PUSH1 0x0 DUP5 DUP5 ADD MSTORE JUMPDEST POP POP POP POP JUMP JUMPDEST PUSH1 0x0 PUSH1 0x2 DUP3 DIV SWAP1 POP PUSH1 0x1 DUP3 AND DUP1 PUSH2 0x69B JUMPI PUSH1 0x7F DUP3 AND SWAP2 POP JUMPDEST PUSH1 0x20 DUP3 LT DUP2 EQ ISZERO PUSH2 0x6AF JUMPI PUSH2 0x6AE PUSH2 0x6B5 JUMP JUMPDEST JUMPDEST POP SWAP2 SWAP1 POP JUMP JUMPDEST PUSH32 0x4E487B7100000000000000000000000000000000000000000000000000000000 PUSH1 0x0 MSTORE PUSH1 0x22 PUSH1 0x4 MSTORE PUSH1 0x24 PUSH1 0x0 REVERT JUMPDEST PUSH1 0x0 PUSH1 0x1F NOT PUSH1 0x1F DUP4 ADD AND SWAP1 POP SWAP2 SWAP1 POP JUMP JUMPDEST PUSH32 0x546F6B656E2072656365697665642066726F6D20506F6F6C0000000000000000 PUSH1 0x0 DUP3 ADD MSTORE POP JUMP JUMPDEST PUSH32 0x596F75206D757374206265207265676973746572656420746F20776974686472 PUSH1 0x0 DUP3 ADD MSTORE PUSH32 0x61772066756E6473000000000000000000000000000000000000000000000000 PUSH1 0x20 DUP3 ADD MSTORE POP JUMP INVALID LOG2 PUSH5 0x6970667358 0x22 SLT KECCAK256 DUP4 GASPRICE 0x4D NOT MULMOD 0x2D 0xD1 CREATE2 0xB8 0x4E SWAP12 DUP13 0xF6 0x5E PUSH13 0x4DCA3B4C0D71566A171F9C543C MULMOD RETURNDATASIZE 0xB1 0xA9 PUSH5 0x736F6C6343 STOP ADDMOD DIV STOP CALLER LOG2 PUSH5 0x6970667358 0x22 SLT KECCAK256 GASPRICE 0xD4 0xB8 SWAP1 SWAP6 CALLER MSIZE PUSH28 0xA8FDDFCEBFA44814CE954D5F784FB9A3A53408C60A1F3F5164736F6C PUSH4 0x43000804 STOP CALLER "
        },
        "methodIdentifiers": {
          "addNewParty(address,string,string,string)": "be5e0077",
          "donate(uint256,string)": "8d59d1f1",
          "getContractAddress(uint256)": "aefa7d98",
          "getCurrentContractAddress()": "c6fd1020",
          "getCurrentContractBalance()": "6d790081",
          "getPartyAddress(uint256)": "392b5f02",
          "getPartyBalance(uint256)": "a267d6a5",
          "getPartyDetails(uint256)": "024789a9",
          "parties(uint256)": "70651a18",
          "totalEntries()": "7fef036e"
        }
      }
    }
  }
}