{
  "contracts/CharityPool.sol": {
    "CharityPool": {
      "abi": [
        {
          "anonymous": false,
          "inputs": [
            {
              "indexed": false,
              "internalType": "address",
              "name": "from",
              "type": "address"
            },
            {
              "indexed": false,
              "internalType": "address",
              "name": "to",
              "type": "address"
            },
            {
              "indexed": false,
              "internalType": "string",
              "name": "message",
              "type": "string"
            }
          ],
          "name": "InternalError",
          "type": "event"
        },
        {
          "anonymous": false,
          "inputs": [
            {
              "indexed": false,
              "internalType": "address",
              "name": "from",
              "type": "address"
            },
            {
              "indexed": false,
              "internalType": "address",
              "name": "to",
              "type": "address"
            },
            {
              "indexed": false,
              "internalType": "uint256",
              "name": "amount",
              "type": "uint256"
            }
          ],
          "name": "MinimumTokenRequired",
          "type": "event"
        },
        {
          "anonymous": false,
          "inputs": [
            {
              "indexed": false,
              "internalType": "address",
              "name": "from",
              "type": "address"
            },
            {
              "indexed": false,
              "internalType": "address",
              "name": "to",
              "type": "address"
            },
            {
              "indexed": false,
              "internalType": "uint256",
              "name": "amount",
              "type": "uint256"
            },
            {
              "indexed": false,
              "internalType": "string",
              "name": "message",
              "type": "string"
            }
          ],
          "name": "ReceivedToken",
          "type": "event"
        },
        {
          "anonymous": false,
          "inputs": [
            {
              "indexed": false,
              "internalType": "address",
              "name": "from",
              "type": "address"
            },
            {
              "indexed": false,
              "internalType": "address",
              "name": "to",
              "type": "address"
            },
            {
              "indexed": false,
              "internalType": "uint256",
              "name": "amount",
              "type": "uint256"
            }
          ],
          "name": "TokensWithdrawn",
          "type": "event"
        },
        {
          "inputs": [
            {
              "internalType": "address",
              "name": "_address",
              "type": "address"
            },
            {
              "internalType": "string",
              "name": "name",
              "type": "string"
            },
            {
              "internalType": "string",
              "name": "cause",
              "type": "string"
            },
            {
              "internalType": "string",
              "name": "link",
              "type": "string"
            }
          ],
          "name": "addNewParty",
          "outputs": [
            {
              "internalType": "address",
              "name": "",
              "type": "address"
            }
          ],
          "stateMutability": "nonpayable",
          "type": "function"
        },
        {
          "inputs": [
            {
              "internalType": "uint256",
              "name": "index",
              "type": "uint256"
            },
            {
              "internalType": "string",
              "name": "unit",
              "type": "string"
            }
          ],
          "name": "donate",
          "outputs": [
            {
              "internalType": "bool",
              "name": "",
              "type": "bool"
            }
          ],
          "stateMutability": "payable",
          "type": "function"
        },
        {
          "inputs": [
            {
              "internalType": "uint256",
              "name": "index",
              "type": "uint256"
            }
          ],
          "name": "getContractAddress",
          "outputs": [
            {
              "internalType": "address",
              "name": "",
              "type": "address"
            }
          ],
          "stateMutability": "view",
          "type": "function"
        },
        {
          "inputs": [],
          "name": "getCurrentContractAddress",
          "outputs": [
            {
              "internalType": "address",
              "name": "",
              "type": "address"
            }
          ],
          "stateMutability": "view",
          "type": "function"
        },
        {
          "inputs": [],
          "name": "getCurrentContractBalance",
          "outputs": [
            {
              "internalType": "uint256",
              "name": "",
              "type": "uint256"
            }
          ],
          "stateMutability": "view",
          "type": "function"
        },
        {
          "inputs": [
            {
              "internalType": "uint256",
              "name": "index",
              "type": "uint256"
            }
          ],
          "name": "getPartyAddress",
          "outputs": [
            {
              "internalType": "address",
              "name": "",
              "type": "address"
            }
          ],
          "stateMutability": "view",
          "type": "function"
        },
        {
          "inputs": [
            {
              "internalType": "uint256",
              "name": "index",
              "type": "uint256"
            }
          ],
          "name": "getPartyBalance",
          "outputs": [
            {
              "internalType": "uint256",
              "name": "partyBalance",
              "type": "uint256"
            }
          ],
          "stateMutability": "view",
          "type": "function"
        },
        {
          "inputs": [
            {
              "internalType": "uint256",
              "name": "index",
              "type": "uint256"
            }
          ],
          "name": "getPartyDetails",
          "outputs": [
            {
              "internalType": "string",
              "name": "name",
              "type": "string"
            },
            {
              "internalType": "string",
              "name": "cause",
              "type": "string"
            },
            {
              "internalType": "string",
              "name": "link",
              "type": "string"
            }
          ],
          "stateMutability": "view",
          "type": "function"
        },
        {
          "inputs": [],
          "name": "getTotalParties",
          "outputs": [
            {
              "internalType": "uint256",
              "name": "",
              "type": "uint256"
            }
          ],
          "stateMutability": "view",
          "type": "function"
        },
        {
          "inputs": [
            {
              "internalType": "uint256",
              "name": "",
              "type": "uint256"
            }
          ],
          "name": "parties",
          "outputs": [
            {
              "internalType": "contract PartyContract",
              "name": "",
              "type": "address"
            }
          ],
          "stateMutability": "view",
          "type": "function"
        },
        {
          "inputs": [],
          "name": "totalEntries",
          "outputs": [
            {
              "internalType": "uint256",
              "name": "",
              "type": "uint256"
            }
          ],
          "stateMutability": "view",
          "type": "function"
        }
      ],
      "evm": {
        "bytecode": {
          "linkReferences": {},
          "object": "608060405234801561001057600080fd5b50611d2e806100206000396000f3fe608060405260043610620000aa5760003560e01c80638d59d1f1116200006d5780638d59d1f114620001dd578063a267d6a51462000213578063aefa7d981462000257578063be5e0077146200029b578063c236bf9b14620002df578063c6fd1020146200030f57620000aa565b8063024789a914620000af578063392b5f0214620000f55780636d790081146200013957806370651a1814620001695780637fef036e14620001ad575b600080fd5b348015620000bc57600080fd5b50620000db6004803603810190620000d5919062000b90565b6200033f565b604051620000ec9392919062000de6565b60405180910390f35b3480156200010257600080fd5b506200012160048036038101906200011b919062000b90565b62000443565b60405162000130919062000cd9565b60405180910390f35b3480156200014657600080fd5b506200015162000538565b60405162000160919062000e38565b60405180910390f35b3480156200017657600080fd5b506200019560048036038101906200018f919062000b90565b62000540565b604051620001a4919062000dc9565b60405180910390f35b348015620001ba57600080fd5b50620001c562000580565b604051620001d4919062000e38565b60405180910390f35b620001fb6004803603810190620001f5919062000bbc565b62000586565b6040516200020a919062000dac565b60405180910390f35b3480156200022057600080fd5b506200023f600480360381019062000239919062000b90565b620006d7565b6040516200024e919062000e38565b60405180910390f35b3480156200026457600080fd5b506200028360048036038101906200027d919062000b90565b62000786565b60405162000292919062000cd9565b60405180910390f35b348015620002a857600080fd5b50620002c76004803603810190620002c1919062000a38565b620007fa565b604051620002d6919062000cd9565b60405180910390f35b348015620002ec57600080fd5b50620002f7620008c4565b60405162000306919062000e38565b60405180910390f35b3480156200031c57600080fd5b5062000327620008cd565b60405162000336919062000cd9565b60405180910390f35b606080606060006001858154811062000381577f4e487b7100000000000000000000000000000000000000000000000000000000600052603260045260246000fd5b9060005260206000200160009054906101000a900473ffffffffffffffffffffffffffffffffffffffff1690508073ffffffffffffffffffffffffffffffffffffffff1663dd9eba576040518163ffffffff1660e01b815260040160006040518083038186803b158015620003f557600080fd5b505afa1580156200040a573d6000803e3d6000fd5b505050506040513d6000823e3d601f19601f8201168201806040525081019062000435919062000aef565b935093509350509193909250565b6000806001838154811062000481577f4e487b7100000000000000000000000000000000000000000000000000000000600052603260045260246000fd5b9060005260206000200160009054906101000a900473ffffffffffffffffffffffffffffffffffffffff1690508073ffffffffffffffffffffffffffffffffffffffff16638995bc2e6040518163ffffffff1660e01b815260040160206040518083038186803b158015620004f557600080fd5b505afa1580156200050a573d6000803e3d6000fd5b505050506040513d601f19601f8201168201806040525081019062000530919062000a0c565b915050919050565b600047905090565b600181815481106200055157600080fd5b906000526020600020016000915054906101000a900473ffffffffffffffffffffffffffffffffffffffff1681565b60005481565b60007f11bc892157fdd60df9ebcf9d5ad60ca17a129ed098afb31c5a34ebe3489ab15e33303485604051620005bf949392919062000cf6565b60405180910390a160003073ffffffffffffffffffffffffffffffffffffffff1663aefa7d98856040518263ffffffff1660e01b815260040162000604919062000e38565b60206040518083038186803b1580156200061d57600080fd5b505afa15801562000632573d6000803e3d6000fd5b505050506040513d601f19601f8201168201806040525081019062000658919062000a0c565b905060008173ffffffffffffffffffffffffffffffffffffffff1634604051620006829062000cc2565b60006040518083038185875af1925050503d8060008114620006c1576040519150601f19603f3d011682016040523d82523d6000602084013e620006c6565b606091505b505080915050809250505092915050565b60003073ffffffffffffffffffffffffffffffffffffffff1663aefa7d98836040518263ffffffff1660e01b815260040162000714919062000e38565b60206040518083038186803b1580156200072d57600080fd5b505afa15801562000742573d6000803e3d6000fd5b505050506040513d601f19601f8201168201806040525081019062000768919062000a0c565b73ffffffffffffffffffffffffffffffffffffffff16319050919050565b60008060018381548110620007c4577f4e487b7100000000000000000000000000000000000000000000000000000000600052603260045260246000fd5b9060005260206000200160009054906101000a900473ffffffffffffffffffffffffffffffffffffffff16905080915050919050565b600080858585856040516200080f90620008d5565b6200081e949392919062000d4a565b604051809103906000f0801580156200083b573d6000803e3d6000fd5b5090506001819080600181540180825580915050600190039060005260206000200160009091909190916101000a81548173ffffffffffffffffffffffffffffffffffffffff021916908373ffffffffffffffffffffffffffffffffffffffff1602179055506001600054620008b2919062000edb565b60008190555080915050949350505050565b60008054905090565b600030905090565b610c2d80620010cc83390190565b6000620008fa620008f48462000e7e565b62000e55565b9050828152602081018484840111156200091357600080fd5b6200092084828562000faa565b509392505050565b60006200093f620009398462000e7e565b62000e55565b9050828152602081018484840111156200095857600080fd5b6200096584828562000fb9565b509392505050565b6000813590506200097e8162001097565b92915050565b600081519050620009958162001097565b92915050565b600082601f830112620009ad57600080fd5b8135620009bf848260208601620008e3565b91505092915050565b600082601f830112620009da57600080fd5b8151620009ec84826020860162000928565b91505092915050565b60008135905062000a0681620010b1565b92915050565b60006020828403121562000a1f57600080fd5b600062000a2f8482850162000984565b91505092915050565b6000806000806080858703121562000a4f57600080fd5b600062000a5f878288016200096d565b945050602085013567ffffffffffffffff81111562000a7d57600080fd5b62000a8b878288016200099b565b935050604085013567ffffffffffffffff81111562000aa957600080fd5b62000ab7878288016200099b565b925050606085013567ffffffffffffffff81111562000ad557600080fd5b62000ae3878288016200099b565b91505092959194509250565b60008060006060848603121562000b0557600080fd5b600084015167ffffffffffffffff81111562000b2057600080fd5b62000b2e86828701620009c8565b935050602084015167ffffffffffffffff81111562000b4c57600080fd5b62000b5a86828701620009c8565b925050604084015167ffffffffffffffff81111562000b7857600080fd5b62000b8686828701620009c8565b9150509250925092565b60006020828403121562000ba357600080fd5b600062000bb384828501620009f5565b91505092915050565b6000806040838503121562000bd057600080fd5b600062000be085828601620009f5565b925050602083013567ffffffffffffffff81111562000bfe57600080fd5b62000c0c858286016200099b565b9150509250929050565b62000c218162000f38565b82525050565b62000c328162000f4c565b82525050565b62000c438162000f82565b82525050565b600062000c568262000eb4565b62000c62818562000eca565b935062000c7481856020860162000fb9565b62000c7f8162001083565b840191505092915050565b600062000c9960008362000ebf565b915062000ca68262001094565b600082019050919050565b62000cbc8162000f78565b82525050565b600062000ccf8262000c8a565b9150819050919050565b600060208201905062000cf0600083018462000c16565b92915050565b600060808201905062000d0d600083018762000c16565b62000d1c602083018662000c16565b62000d2b604083018562000cb1565b818103606083015262000d3f818462000c49565b905095945050505050565b600060808201905062000d61600083018762000c16565b818103602083015262000d75818662000c49565b9050818103604083015262000d8b818562000c49565b9050818103606083015262000da1818462000c49565b905095945050505050565b600060208201905062000dc3600083018462000c27565b92915050565b600060208201905062000de0600083018462000c38565b92915050565b6000606082019050818103600083015262000e02818662000c49565b9050818103602083015262000e18818562000c49565b9050818103604083015262000e2e818462000c49565b9050949350505050565b600060208201905062000e4f600083018462000cb1565b92915050565b600062000e6162000e74565b905062000e6f828262000fef565b919050565b6000604051905090565b600067ffffffffffffffff82111562000e9c5762000e9b62001054565b5b62000ea78262001083565b9050602081019050919050565b600081519050919050565b600081905092915050565b600082825260208201905092915050565b600062000ee88262000f78565b915062000ef58362000f78565b9250827fffffffffffffffffffffffffffffffffffffffffffffffffffffffffffffffff0382111562000f2d5762000f2c62001025565b5b828201905092915050565b600062000f458262000f58565b9050919050565b60008115159050919050565b600073ffffffffffffffffffffffffffffffffffffffff82169050919050565b6000819050919050565b600062000f8f8262000f96565b9050919050565b600062000fa38262000f58565b9050919050565b82818337600083830152505050565b60005b8381101562000fd957808201518184015260208101905062000fbc565b8381111562000fe9576000848401525b50505050565b62000ffa8262001083565b810181811067ffffffffffffffff821117156200101c576200101b62001054565b5b80604052505050565b7f4e487b7100000000000000000000000000000000000000000000000000000000600052601160045260246000fd5b7f4e487b7100000000000000000000000000000000000000000000000000000000600052604160045260246000fd5b6000601f19601f8301169050919050565b50565b620010a28162000f38565b8114620010ae57600080fd5b50565b620010bc8162000f78565b8114620010c857600080fd5b5056fe60806040523480156200001157600080fd5b5060405162000c2d38038062000c2d833981810160405281019062000037919062000205565b836000806101000a81548173ffffffffffffffffffffffffffffffffffffffff021916908373ffffffffffffffffffffffffffffffffffffffff16021790555082600190805190602001906200008f929190620000cc565b508160029080519060200190620000a8929190620000cc565b508060039080519060200190620000c1929190620000cc565b50505050506200047a565b828054620000da9062000385565b90600052602060002090601f016020900481019282620000fe57600085556200014a565b82601f106200011957805160ff19168380011785556200014a565b828001600101855582156200014a579182015b82811115620001495782518255916020019190600101906200012c565b5b5090506200015991906200015d565b5090565b5b80821115620001785760008160009055506001016200015e565b5090565b6000620001936200018d84620002e5565b620002bc565b905082815260208101848484011115620001ac57600080fd5b620001b98482856200034f565b509392505050565b600081519050620001d28162000460565b92915050565b600082601f830112620001ea57600080fd5b8151620001fc8482602086016200017c565b91505092915050565b600080600080608085870312156200021c57600080fd5b60006200022c87828801620001c1565b945050602085015167ffffffffffffffff8111156200024a57600080fd5b6200025887828801620001d8565b935050604085015167ffffffffffffffff8111156200027657600080fd5b6200028487828801620001d8565b925050606085015167ffffffffffffffff811115620002a257600080fd5b620002b087828801620001d8565b91505092959194509250565b6000620002c8620002db565b9050620002d68282620003bb565b919050565b6000604051905090565b600067ffffffffffffffff82111562000303576200030262000420565b5b6200030e826200044f565b9050602081019050919050565b600062000328826200032f565b9050919050565b600073ffffffffffffffffffffffffffffffffffffffff82169050919050565b60005b838110156200036f57808201518184015260208101905062000352565b838111156200037f576000848401525b50505050565b600060028204905060018216806200039e57607f821691505b60208210811415620003b557620003b4620003f1565b5b50919050565b620003c6826200044f565b810181811067ffffffffffffffff82111715620003e857620003e762000420565b5b80604052505050565b7f4e487b7100000000000000000000000000000000000000000000000000000000600052602260045260246000fd5b7f4e487b7100000000000000000000000000000000000000000000000000000000600052604160045260246000fd5b6000601f19601f8301169050919050565b6200046b816200031b565b81146200047757600080fd5b50565b6107a3806200048a6000396000f3fe6080604052600436106100435760003560e01c80633ccfd60b1461008a578063580aa5d3146100a15780638995bc2e146100cc578063dd9eba57146100f757610085565b36610085577f11bc892157fdd60df9ebcf9d5ad60ca17a129ed098afb31c5a34ebe3489ab15e33303460405161007b93929190610527565b60405180910390a1005b600080fd5b34801561009657600080fd5b5061009f610124565b005b3480156100ad57600080fd5b506100b6610256565b6040516100c391906105dd565b60405180910390f35b3480156100d857600080fd5b506100e161025e565b6040516100ee91906104d5565b60405180910390f35b34801561010357600080fd5b5061010c610287565b60405161011b93929190610571565b60405180910390f35b60008054906101000a900473ffffffffffffffffffffffffffffffffffffffff1673ffffffffffffffffffffffffffffffffffffffff163373ffffffffffffffffffffffffffffffffffffffff16146101b2576040517f08c379a00000000000000000000000000000000000000000000000000000000081526004016101a9906105bd565b60405180910390fd5b3373ffffffffffffffffffffffffffffffffffffffff166108fc479081150290604051600060405180830381858888f193505050501580156101f8573d6000803e3d6000fd5b507f6337ed398c0e8467698c581374fdce4db14922df487b5a39483079f5f59b60a43060008054906101000a900473ffffffffffffffffffffffffffffffffffffffff164760405161024c939291906104f0565b60405180910390a1565b600047905090565b60008060009054906101000a900473ffffffffffffffffffffffffffffffffffffffff16905090565b60608060606001805461029990610683565b80601f01602080910402602001604051908101604052809291908181526020018280546102c590610683565b80156103125780601f106102e757610100808354040283529160200191610312565b820191906000526020600020905b8154815290600101906020018083116102f557829003601f168201915b505050505092506002805461032690610683565b80601f016020809104026020016040519081016040528092919081815260200182805461035290610683565b801561039f5780601f106103745761010080835404028352916020019161039f565b820191906000526020600020905b81548152906001019060200180831161038257829003601f168201915b50505050509150600380546103b390610683565b80601f01602080910402602001604051908101604052809291908181526020018280546103df90610683565b801561042c5780601f106104015761010080835404028352916020019161042c565b820191906000526020600020905b81548152906001019060200180831161040f57829003601f168201915b50505050509050909192565b61044181610614565b82525050565b6000610452826105f8565b61045c8185610603565b935061046c818560208601610650565b610475816106e4565b840191505092915050565b600061048d601883610603565b9150610498826106f5565b602082019050919050565b60006104b0602883610603565b91506104bb8261071e565b604082019050919050565b6104cf81610646565b82525050565b60006020820190506104ea6000830184610438565b92915050565b60006060820190506105056000830186610438565b6105126020830185610438565b61051f60408301846104c6565b949350505050565b600060808201905061053c6000830186610438565b6105496020830185610438565b61055660408301846104c6565b818103606083015261056781610480565b9050949350505050565b6000606082019050818103600083015261058b8186610447565b9050818103602083015261059f8185610447565b905081810360408301526105b38184610447565b9050949350505050565b600060208201905081810360008301526105d6816104a3565b9050919050565b60006020820190506105f260008301846104c6565b92915050565b600081519050919050565b600082825260208201905092915050565b600061061f82610626565b9050919050565b600073ffffffffffffffffffffffffffffffffffffffff82169050919050565b6000819050919050565b60005b8381101561066e578082015181840152602081019050610653565b8381111561067d576000848401525b50505050565b6000600282049050600182168061069b57607f821691505b602082108114156106af576106ae6106b5565b5b50919050565b7f4e487b7100000000000000000000000000000000000000000000000000000000600052602260045260246000fd5b6000601f19601f8301169050919050565b7f546f6b656e2072656365697665642066726f6d20506f6f6c0000000000000000600082015250565b7f596f75206d757374206265207265676973746572656420746f2077697468647260008201527f61772066756e647300000000000000000000000000000000000000000000000060208201525056fea2646970667358221220833a4d19092dd1f5b84e9b8cf65e6c4dca3b4c0d71566a171f9c543c093db1a964736f6c63430008040033a2646970667358221220239c9b644c5a36a9f68c60d75b28a87ef9448e2b1bba32ae50aa2f1bf9e0307864736f6c63430008040033",
          "opcodes": "PUSH1 0x80 PUSH1 0x40 MSTORE CALLVALUE DUP1 ISZERO PUSH2 0x10 JUMPI PUSH1 0x0 DUP1 REVERT JUMPDEST POP PUSH2 0x1D2E DUP1 PUSH2 0x20 PUSH1 0x0 CODECOPY PUSH1 0x0 RETURN INVALID PUSH1 0x80 PUSH1 0x40 MSTORE PUSH1 0x4 CALLDATASIZE LT PUSH3 0xAA JUMPI PUSH1 0x0 CALLDATALOAD PUSH1 0xE0 SHR DUP1 PUSH4 0x8D59D1F1 GT PUSH3 0x6D JUMPI DUP1 PUSH4 0x8D59D1F1 EQ PUSH3 0x1DD JUMPI DUP1 PUSH4 0xA267D6A5 EQ PUSH3 0x213 JUMPI DUP1 PUSH4 0xAEFA7D98 EQ PUSH3 0x257 JUMPI DUP1 PUSH4 0xBE5E0077 EQ PUSH3 0x29B JUMPI DUP1 PUSH4 0xC236BF9B EQ PUSH3 0x2DF JUMPI DUP1 PUSH4 0xC6FD1020 EQ PUSH3 0x30F JUMPI PUSH3 0xAA JUMP JUMPDEST DUP1 PUSH4 0x24789A9 EQ PUSH3 0xAF JUMPI DUP1 PUSH4 0x392B5F02 EQ PUSH3 0xF5 JUMPI DUP1 PUSH4 0x6D790081 EQ PUSH3 0x139 JUMPI DUP1 PUSH4 0x70651A18 EQ PUSH3 0x169 JUMPI DUP1 PUSH4 0x7FEF036E EQ PUSH3 0x1AD JUMPI JUMPDEST PUSH1 0x0 DUP1 REVERT JUMPDEST CALLVALUE DUP1 ISZERO PUSH3 0xBC JUMPI PUSH1 0x0 DUP1 REVERT JUMPDEST POP PUSH3 0xDB PUSH1 0x4 DUP1 CALLDATASIZE SUB DUP2 ADD SWAP1 PUSH3 0xD5 SWAP2 SWAP1 PUSH3 0xB90 JUMP JUMPDEST PUSH3 0x33F JUMP JUMPDEST PUSH1 0x40 MLOAD PUSH3 0xEC SWAP4 SWAP3 SWAP2 SWAP1 PUSH3 0xDE6 JUMP JUMPDEST PUSH1 0x40 MLOAD DUP1 SWAP2 SUB SWAP1 RETURN JUMPDEST CALLVALUE DUP1 ISZERO PUSH3 0x102 JUMPI PUSH1 0x0 DUP1 REVERT JUMPDEST POP PUSH3 0x121 PUSH1 0x4 DUP1 CALLDATASIZE SUB DUP2 ADD SWAP1 PUSH3 0x11B SWAP2 SWAP1 PUSH3 0xB90 JUMP JUMPDEST PUSH3 0x443 JUMP JUMPDEST PUSH1 0x40 MLOAD PUSH3 0x130 SWAP2 SWAP1 PUSH3 0xCD9 JUMP JUMPDEST PUSH1 0x40 MLOAD DUP1 SWAP2 SUB SWAP1 RETURN JUMPDEST CALLVALUE DUP1 ISZERO PUSH3 0x146 JUMPI PUSH1 0x0 DUP1 REVERT JUMPDEST POP PUSH3 0x151 PUSH3 0x538 JUMP JUMPDEST PUSH1 0x40 MLOAD PUSH3 0x160 SWAP2 SWAP1 PUSH3 0xE38 JUMP JUMPDEST PUSH1 0x40 MLOAD DUP1 SWAP2 SUB SWAP1 RETURN JUMPDEST CALLVALUE DUP1 ISZERO PUSH3 0x176 JUMPI PUSH1 0x0 DUP1 REVERT JUMPDEST POP PUSH3 0x195 PUSH1 0x4 DUP1 CALLDATASIZE SUB DUP2 ADD SWAP1 PUSH3 0x18F SWAP2 SWAP1 PUSH3 0xB90 JUMP JUMPDEST PUSH3 0x540 JUMP JUMPDEST PUSH1 0x40 MLOAD PUSH3 0x1A4 SWAP2 SWAP1 PUSH3 0xDC9 JUMP JUMPDEST PUSH1 0x40 MLOAD DUP1 SWAP2 SUB SWAP1 RETURN JUMPDEST CALLVALUE DUP1 ISZERO PUSH3 0x1BA JUMPI PUSH1 0x0 DUP1 REVERT JUMPDEST POP PUSH3 0x1C5 PUSH3 0x580 JUMP JUMPDEST PUSH1 0x40 MLOAD PUSH3 0x1D4 SWAP2 SWAP1 PUSH3 0xE38 JUMP JUMPDEST PUSH1 0x40 MLOAD DUP1 SWAP2 SUB SWAP1 RETURN JUMPDEST PUSH3 0x1FB PUSH1 0x4 DUP1 CALLDATASIZE SUB DUP2 ADD SWAP1 PUSH3 0x1F5 SWAP2 SWAP1 PUSH3 0xBBC JUMP JUMPDEST PUSH3 0x586 JUMP JUMPDEST PUSH1 0x40 MLOAD PUSH3 0x20A SWAP2 SWAP1 PUSH3 0xDAC JUMP JUMPDEST PUSH1 0x40 MLOAD DUP1 SWAP2 SUB SWAP1 RETURN JUMPDEST CALLVALUE DUP1 ISZERO PUSH3 0x220 JUMPI PUSH1 0x0 DUP1 REVERT JUMPDEST POP PUSH3 0x23F PUSH1 0x4 DUP1 CALLDATASIZE SUB DUP2 ADD SWAP1 PUSH3 0x239 SWAP2 SWAP1 PUSH3 0xB90 JUMP JUMPDEST PUSH3 0x6D7 JUMP JUMPDEST PUSH1 0x40 MLOAD PUSH3 0x24E SWAP2 SWAP1 PUSH3 0xE38 JUMP JUMPDEST PUSH1 0x40 MLOAD DUP1 SWAP2 SUB SWAP1 RETURN JUMPDEST CALLVALUE DUP1 ISZERO PUSH3 0x264 JUMPI PUSH1 0x0 DUP1 REVERT JUMPDEST POP PUSH3 0x283 PUSH1 0x4 DUP1 CALLDATASIZE SUB DUP2 ADD SWAP1 PUSH3 0x27D SWAP2 SWAP1 PUSH3 0xB90 JUMP JUMPDEST PUSH3 0x786 JUMP JUMPDEST PUSH1 0x40 MLOAD PUSH3 0x292 SWAP2 SWAP1 PUSH3 0xCD9 JUMP JUMPDEST PUSH1 0x40 MLOAD DUP1 SWAP2 SUB SWAP1 RETURN JUMPDEST CALLVALUE DUP1 ISZERO PUSH3 0x2A8 JUMPI PUSH1 0x0 DUP1 REVERT JUMPDEST POP PUSH3 0x2C7 PUSH1 0x4 DUP1 CALLDATASIZE SUB DUP2 ADD SWAP1 PUSH3 0x2C1 SWAP2 SWAP1 PUSH3 0xA38 JUMP JUMPDEST PUSH3 0x7FA JUMP JUMPDEST PUSH1 0x40 MLOAD PUSH3 0x2D6 SWAP2 SWAP1 PUSH3 0xCD9 JUMP JUMPDEST PUSH1 0x40 MLOAD DUP1 SWAP2 SUB SWAP1 RETURN JUMPDEST CALLVALUE DUP1 ISZERO PUSH3 0x2EC JUMPI PUSH1 0x0 DUP1 REVERT JUMPDEST POP PUSH3 0x2F7 PUSH3 0x8C4 JUMP JUMPDEST PUSH1 0x40 MLOAD PUSH3 0x306 SWAP2 SWAP1 PUSH3 0xE38 JUMP JUMPDEST PUSH1 0x40 MLOAD DUP1 SWAP2 SUB SWAP1 RETURN JUMPDEST CALLVALUE DUP1 ISZERO PUSH3 0x31C JUMPI PUSH1 0x0 DUP1 REVERT JUMPDEST POP PUSH3 0x327 PUSH3 0x8CD JUMP JUMPDEST PUSH1 0x40 MLOAD PUSH3 0x336 SWAP2 SWAP1 PUSH3 0xCD9 JUMP JUMPDEST PUSH1 0x40 MLOAD DUP1 SWAP2 SUB SWAP1 RETURN JUMPDEST PUSH1 0x60 DUP1 PUSH1 0x60 PUSH1 0x0 PUSH1 0x1 DUP6 DUP2 SLOAD DUP2 LT PUSH3 0x381 JUMPI PUSH32 0x4E487B7100000000000000000000000000000000000000000000000000000000 PUSH1 0x0 MSTORE PUSH1 0x32 PUSH1 0x4 MSTORE PUSH1 0x24 PUSH1 0x0 REVERT JUMPDEST SWAP1 PUSH1 0x0 MSTORE PUSH1 0x20 PUSH1 0x0 KECCAK256 ADD PUSH1 0x0 SWAP1 SLOAD SWAP1 PUSH2 0x100 EXP SWAP1 DIV PUSH20 0xFFFFFFFFFFFFFFFFFFFFFFFFFFFFFFFFFFFFFFFF AND SWAP1 POP DUP1 PUSH20 0xFFFFFFFFFFFFFFFFFFFFFFFFFFFFFFFFFFFFFFFF AND PUSH4 0xDD9EBA57 PUSH1 0x40 MLOAD DUP2 PUSH4 0xFFFFFFFF AND PUSH1 0xE0 SHL DUP2 MSTORE PUSH1 0x4 ADD PUSH1 0x0 PUSH1 0x40 MLOAD DUP1 DUP4 SUB DUP2 DUP7 DUP1 EXTCODESIZE ISZERO DUP1 ISZERO PUSH3 0x3F5 JUMPI PUSH1 0x0 DUP1 REVERT JUMPDEST POP GAS STATICCALL ISZERO DUP1 ISZERO PUSH3 0x40A JUMPI RETURNDATASIZE PUSH1 0x0 DUP1 RETURNDATACOPY RETURNDATASIZE PUSH1 0x0 REVERT JUMPDEST POP POP POP POP PUSH1 0x40 MLOAD RETURNDATASIZE PUSH1 0x0 DUP3 RETURNDATACOPY RETURNDATASIZE PUSH1 0x1F NOT PUSH1 0x1F DUP3 ADD AND DUP3 ADD DUP1 PUSH1 0x40 MSTORE POP DUP2 ADD SWAP1 PUSH3 0x435 SWAP2 SWAP1 PUSH3 0xAEF JUMP JUMPDEST SWAP4 POP SWAP4 POP SWAP4 POP POP SWAP2 SWAP4 SWAP1 SWAP3 POP JUMP JUMPDEST PUSH1 0x0 DUP1 PUSH1 0x1 DUP4 DUP2 SLOAD DUP2 LT PUSH3 0x481 JUMPI PUSH32 0x4E487B7100000000000000000000000000000000000000000000000000000000 PUSH1 0x0 MSTORE PUSH1 0x32 PUSH1 0x4 MSTORE PUSH1 0x24 PUSH1 0x0 REVERT JUMPDEST SWAP1 PUSH1 0x0 MSTORE PUSH1 0x20 PUSH1 0x0 KECCAK256 ADD PUSH1 0x0 SWAP1 SLOAD SWAP1 PUSH2 0x100 EXP SWAP1 DIV PUSH20 0xFFFFFFFFFFFFFFFFFFFFFFFFFFFFFFFFFFFFFFFF AND SWAP1 POP DUP1 PUSH20 0xFFFFFFFFFFFFFFFFFFFFFFFFFFFFFFFFFFFFFFFF AND PUSH4 0x8995BC2E PUSH1 0x40 MLOAD DUP2 PUSH4 0xFFFFFFFF AND PUSH1 0xE0 SHL DUP2 MSTORE PUSH1 0x4 ADD PUSH1 0x20 PUSH1 0x40 MLOAD DUP1 DUP4 SUB DUP2 DUP7 DUP1 EXTCODESIZE ISZERO DUP1 ISZERO PUSH3 0x4F5 JUMPI PUSH1 0x0 DUP1 REVERT JUMPDEST POP GAS STATICCALL ISZERO DUP1 ISZERO PUSH3 0x50A JUMPI RETURNDATASIZE PUSH1 0x0 DUP1 RETURNDATACOPY RETURNDATASIZE PUSH1 0x0 REVERT JUMPDEST POP POP POP POP PUSH1 0x40 MLOAD RETURNDATASIZE PUSH1 0x1F NOT PUSH1 0x1F DUP3 ADD AND DUP3 ADD DUP1 PUSH1 0x40 MSTORE POP DUP2 ADD SWAP1 PUSH3 0x530 SWAP2 SWAP1 PUSH3 0xA0C JUMP JUMPDEST SWAP2 POP POP SWAP2 SWAP1 POP JUMP JUMPDEST PUSH1 0x0 SELFBALANCE SWAP1 POP SWAP1 JUMP JUMPDEST PUSH1 0x1 DUP2 DUP2 SLOAD DUP2 LT PUSH3 0x551 JUMPI PUSH1 0x0 DUP1 REVERT JUMPDEST SWAP1 PUSH1 0x0 MSTORE PUSH1 0x20 PUSH1 0x0 KECCAK256 ADD PUSH1 0x0 SWAP2 POP SLOAD SWAP1 PUSH2 0x100 EXP SWAP1 DIV PUSH20 0xFFFFFFFFFFFFFFFFFFFFFFFFFFFFFFFFFFFFFFFF AND DUP2 JUMP JUMPDEST PUSH1 0x0 SLOAD DUP2 JUMP JUMPDEST PUSH1 0x0 PUSH32 0x11BC892157FDD60DF9EBCF9D5AD60CA17A129ED098AFB31C5A34EBE3489AB15E CALLER ADDRESS CALLVALUE DUP6 PUSH1 0x40 MLOAD PUSH3 0x5BF SWAP5 SWAP4 SWAP3 SWAP2 SWAP1 PUSH3 0xCF6 JUMP JUMPDEST PUSH1 0x40 MLOAD DUP1 SWAP2 SUB SWAP1 LOG1 PUSH1 0x0 ADDRESS PUSH20 0xFFFFFFFFFFFFFFFFFFFFFFFFFFFFFFFFFFFFFFFF AND PUSH4 0xAEFA7D98 DUP6 PUSH1 0x40 MLOAD DUP3 PUSH4 0xFFFFFFFF AND PUSH1 0xE0 SHL DUP2 MSTORE PUSH1 0x4 ADD PUSH3 0x604 SWAP2 SWAP1 PUSH3 0xE38 JUMP JUMPDEST PUSH1 0x20 PUSH1 0x40 MLOAD DUP1 DUP4 SUB DUP2 DUP7 DUP1 EXTCODESIZE ISZERO DUP1 ISZERO PUSH3 0x61D JUMPI PUSH1 0x0 DUP1 REVERT JUMPDEST POP GAS STATICCALL ISZERO DUP1 ISZERO PUSH3 0x632 JUMPI RETURNDATASIZE PUSH1 0x0 DUP1 RETURNDATACOPY RETURNDATASIZE PUSH1 0x0 REVERT JUMPDEST POP POP POP POP PUSH1 0x40 MLOAD RETURNDATASIZE PUSH1 0x1F NOT PUSH1 0x1F DUP3 ADD AND DUP3 ADD DUP1 PUSH1 0x40 MSTORE POP DUP2 ADD SWAP1 PUSH3 0x658 SWAP2 SWAP1 PUSH3 0xA0C JUMP JUMPDEST SWAP1 POP PUSH1 0x0 DUP2 PUSH20 0xFFFFFFFFFFFFFFFFFFFFFFFFFFFFFFFFFFFFFFFF AND CALLVALUE PUSH1 0x40 MLOAD PUSH3 0x682 SWAP1 PUSH3 0xCC2 JUMP JUMPDEST PUSH1 0x0 PUSH1 0x40 MLOAD DUP1 DUP4 SUB DUP2 DUP6 DUP8 GAS CALL SWAP3 POP POP POP RETURNDATASIZE DUP1 PUSH1 0x0 DUP2 EQ PUSH3 0x6C1 JUMPI PUSH1 0x40 MLOAD SWAP2 POP PUSH1 0x1F NOT PUSH1 0x3F RETURNDATASIZE ADD AND DUP3 ADD PUSH1 0x40 MSTORE RETURNDATASIZE DUP3 MSTORE RETURNDATASIZE PUSH1 0x0 PUSH1 0x20 DUP5 ADD RETURNDATACOPY PUSH3 0x6C6 JUMP JUMPDEST PUSH1 0x60 SWAP2 POP JUMPDEST POP POP DUP1 SWAP2 POP POP DUP1 SWAP3 POP POP POP SWAP3 SWAP2 POP POP JUMP JUMPDEST PUSH1 0x0 ADDRESS PUSH20 0xFFFFFFFFFFFFFFFFFFFFFFFFFFFFFFFFFFFFFFFF AND PUSH4 0xAEFA7D98 DUP4 PUSH1 0x40 MLOAD DUP3 PUSH4 0xFFFFFFFF AND PUSH1 0xE0 SHL DUP2 MSTORE PUSH1 0x4 ADD PUSH3 0x714 SWAP2 SWAP1 PUSH3 0xE38 JUMP JUMPDEST PUSH1 0x20 PUSH1 0x40 MLOAD DUP1 DUP4 SUB DUP2 DUP7 DUP1 EXTCODESIZE ISZERO DUP1 ISZERO PUSH3 0x72D JUMPI PUSH1 0x0 DUP1 REVERT JUMPDEST POP GAS STATICCALL ISZERO DUP1 ISZERO PUSH3 0x742 JUMPI RETURNDATASIZE PUSH1 0x0 DUP1 RETURNDATACOPY RETURNDATASIZE PUSH1 0x0 REVERT JUMPDEST POP POP POP POP PUSH1 0x40 MLOAD RETURNDATASIZE PUSH1 0x1F NOT PUSH1 0x1F DUP3 ADD AND DUP3 ADD DUP1 PUSH1 0x40 MSTORE POP DUP2 ADD SWAP1 PUSH3 0x768 SWAP2 SWAP1 PUSH3 0xA0C JUMP JUMPDEST PUSH20 0xFFFFFFFFFFFFFFFFFFFFFFFFFFFFFFFFFFFFFFFF AND BALANCE SWAP1 POP SWAP2 SWAP1 POP JUMP JUMPDEST PUSH1 0x0 DUP1 PUSH1 0x1 DUP4 DUP2 SLOAD DUP2 LT PUSH3 0x7C4 JUMPI PUSH32 0x4E487B7100000000000000000000000000000000000000000000000000000000 PUSH1 0x0 MSTORE PUSH1 0x32 PUSH1 0x4 MSTORE PUSH1 0x24 PUSH1 0x0 REVERT JUMPDEST SWAP1 PUSH1 0x0 MSTORE PUSH1 0x20 PUSH1 0x0 KECCAK256 ADD PUSH1 0x0 SWAP1 SLOAD SWAP1 PUSH2 0x100 EXP SWAP1 DIV PUSH20 0xFFFFFFFFFFFFFFFFFFFFFFFFFFFFFFFFFFFFFFFF AND SWAP1 POP DUP1 SWAP2 POP POP SWAP2 SWAP1 POP JUMP JUMPDEST PUSH1 0x0 DUP1 DUP6 DUP6 DUP6 DUP6 PUSH1 0x40 MLOAD PUSH3 0x80F SWAP1 PUSH3 0x8D5 JUMP JUMPDEST PUSH3 0x81E SWAP5 SWAP4 SWAP3 SWAP2 SWAP1 PUSH3 0xD4A JUMP JUMPDEST PUSH1 0x40 MLOAD DUP1 SWAP2 SUB SWAP1 PUSH1 0x0 CREATE DUP1 ISZERO DUP1 ISZERO PUSH3 0x83B JUMPI RETURNDATASIZE PUSH1 0x0 DUP1 RETURNDATACOPY RETURNDATASIZE PUSH1 0x0 REVERT JUMPDEST POP SWAP1 POP PUSH1 0x1 DUP2 SWAP1 DUP1 PUSH1 0x1 DUP2 SLOAD ADD DUP1 DUP3 SSTORE DUP1 SWAP2 POP POP PUSH1 0x1 SWAP1 SUB SWAP1 PUSH1 0x0 MSTORE PUSH1 0x20 PUSH1 0x0 KECCAK256 ADD PUSH1 0x0 SWAP1 SWAP2 SWAP1 SWAP2 SWAP1 SWAP2 PUSH2 0x100 EXP DUP2 SLOAD DUP2 PUSH20 0xFFFFFFFFFFFFFFFFFFFFFFFFFFFFFFFFFFFFFFFF MUL NOT AND SWAP1 DUP4 PUSH20 0xFFFFFFFFFFFFFFFFFFFFFFFFFFFFFFFFFFFFFFFF AND MUL OR SWAP1 SSTORE POP PUSH1 0x1 PUSH1 0x0 SLOAD PUSH3 0x8B2 SWAP2 SWAP1 PUSH3 0xEDB JUMP JUMPDEST PUSH1 0x0 DUP2 SWAP1 SSTORE POP DUP1 SWAP2 POP POP SWAP5 SWAP4 POP POP POP POP JUMP JUMPDEST PUSH1 0x0 DUP1 SLOAD SWAP1 POP SWAP1 JUMP JUMPDEST PUSH1 0x0 ADDRESS SWAP1 POP SWAP1 JUMP JUMPDEST PUSH2 0xC2D DUP1 PUSH3 0x10CC DUP4 CODECOPY ADD SWAP1 JUMP JUMPDEST PUSH1 0x0 PUSH3 0x8FA PUSH3 0x8F4 DUP5 PUSH3 0xE7E JUMP JUMPDEST PUSH3 0xE55 JUMP JUMPDEST SWAP1 POP DUP3 DUP2 MSTORE PUSH1 0x20 DUP2 ADD DUP5 DUP5 DUP5 ADD GT ISZERO PUSH3 0x913 JUMPI PUSH1 0x0 DUP1 REVERT JUMPDEST PUSH3 0x920 DUP5 DUP3 DUP6 PUSH3 0xFAA JUMP JUMPDEST POP SWAP4 SWAP3 POP POP POP JUMP JUMPDEST PUSH1 0x0 PUSH3 0x93F PUSH3 0x939 DUP5 PUSH3 0xE7E JUMP JUMPDEST PUSH3 0xE55 JUMP JUMPDEST SWAP1 POP DUP3 DUP2 MSTORE PUSH1 0x20 DUP2 ADD DUP5 DUP5 DUP5 ADD GT ISZERO PUSH3 0x958 JUMPI PUSH1 0x0 DUP1 REVERT JUMPDEST PUSH3 0x965 DUP5 DUP3 DUP6 PUSH3 0xFB9 JUMP JUMPDEST POP SWAP4 SWAP3 POP POP POP JUMP JUMPDEST PUSH1 0x0 DUP2 CALLDATALOAD SWAP1 POP PUSH3 0x97E DUP2 PUSH3 0x1097 JUMP JUMPDEST SWAP3 SWAP2 POP POP JUMP JUMPDEST PUSH1 0x0 DUP2 MLOAD SWAP1 POP PUSH3 0x995 DUP2 PUSH3 0x1097 JUMP JUMPDEST SWAP3 SWAP2 POP POP JUMP JUMPDEST PUSH1 0x0 DUP3 PUSH1 0x1F DUP4 ADD SLT PUSH3 0x9AD JUMPI PUSH1 0x0 DUP1 REVERT JUMPDEST DUP2 CALLDATALOAD PUSH3 0x9BF DUP5 DUP3 PUSH1 0x20 DUP7 ADD PUSH3 0x8E3 JUMP JUMPDEST SWAP2 POP POP SWAP3 SWAP2 POP POP JUMP JUMPDEST PUSH1 0x0 DUP3 PUSH1 0x1F DUP4 ADD SLT PUSH3 0x9DA JUMPI PUSH1 0x0 DUP1 REVERT JUMPDEST DUP2 MLOAD PUSH3 0x9EC DUP5 DUP3 PUSH1 0x20 DUP7 ADD PUSH3 0x928 JUMP JUMPDEST SWAP2 POP POP SWAP3 SWAP2 POP POP JUMP JUMPDEST PUSH1 0x0 DUP2 CALLDATALOAD SWAP1 POP PUSH3 0xA06 DUP2 PUSH3 0x10B1 JUMP JUMPDEST SWAP3 SWAP2 POP POP JUMP JUMPDEST PUSH1 0x0 PUSH1 0x20 DUP3 DUP5 SUB SLT ISZERO PUSH3 0xA1F JUMPI PUSH1 0x0 DUP1 REVERT JUMPDEST PUSH1 0x0 PUSH3 0xA2F DUP5 DUP3 DUP6 ADD PUSH3 0x984 JUMP JUMPDEST SWAP2 POP POP SWAP3 SWAP2 POP POP JUMP JUMPDEST PUSH1 0x0 DUP1 PUSH1 0x0 DUP1 PUSH1 0x80 DUP6 DUP8 SUB SLT ISZERO PUSH3 0xA4F JUMPI PUSH1 0x0 DUP1 REVERT JUMPDEST PUSH1 0x0 PUSH3 0xA5F DUP8 DUP3 DUP9 ADD PUSH3 0x96D JUMP JUMPDEST SWAP5 POP POP PUSH1 0x20 DUP6 ADD CALLDATALOAD PUSH8 0xFFFFFFFFFFFFFFFF DUP2 GT ISZERO PUSH3 0xA7D JUMPI PUSH1 0x0 DUP1 REVERT JUMPDEST PUSH3 0xA8B DUP8 DUP3 DUP9 ADD PUSH3 0x99B JUMP JUMPDEST SWAP4 POP POP PUSH1 0x40 DUP6 ADD CALLDATALOAD PUSH8 0xFFFFFFFFFFFFFFFF DUP2 GT ISZERO PUSH3 0xAA9 JUMPI PUSH1 0x0 DUP1 REVERT JUMPDEST PUSH3 0xAB7 DUP8 DUP3 DUP9 ADD PUSH3 0x99B JUMP JUMPDEST SWAP3 POP POP PUSH1 0x60 DUP6 ADD CALLDATALOAD PUSH8 0xFFFFFFFFFFFFFFFF DUP2 GT ISZERO PUSH3 0xAD5 JUMPI PUSH1 0x0 DUP1 REVERT JUMPDEST PUSH3 0xAE3 DUP8 DUP3 DUP9 ADD PUSH3 0x99B JUMP JUMPDEST SWAP2 POP POP SWAP3 SWAP6 SWAP2 SWAP5 POP SWAP3 POP JUMP JUMPDEST PUSH1 0x0 DUP1 PUSH1 0x0 PUSH1 0x60 DUP5 DUP7 SUB SLT ISZERO PUSH3 0xB05 JUMPI PUSH1 0x0 DUP1 REVERT JUMPDEST PUSH1 0x0 DUP5 ADD MLOAD PUSH8 0xFFFFFFFFFFFFFFFF DUP2 GT ISZERO PUSH3 0xB20 JUMPI PUSH1 0x0 DUP1 REVERT JUMPDEST PUSH3 0xB2E DUP7 DUP3 DUP8 ADD PUSH3 0x9C8 JUMP JUMPDEST SWAP4 POP POP PUSH1 0x20 DUP5 ADD MLOAD PUSH8 0xFFFFFFFFFFFFFFFF DUP2 GT ISZERO PUSH3 0xB4C JUMPI PUSH1 0x0 DUP1 REVERT JUMPDEST PUSH3 0xB5A DUP7 DUP3 DUP8 ADD PUSH3 0x9C8 JUMP JUMPDEST SWAP3 POP POP PUSH1 0x40 DUP5 ADD MLOAD PUSH8 0xFFFFFFFFFFFFFFFF DUP2 GT ISZERO PUSH3 0xB78 JUMPI PUSH1 0x0 DUP1 REVERT JUMPDEST PUSH3 0xB86 DUP7 DUP3 DUP8 ADD PUSH3 0x9C8 JUMP JUMPDEST SWAP2 POP POP SWAP3 POP SWAP3 POP SWAP3 JUMP JUMPDEST PUSH1 0x0 PUSH1 0x20 DUP3 DUP5 SUB SLT ISZERO PUSH3 0xBA3 JUMPI PUSH1 0x0 DUP1 REVERT JUMPDEST PUSH1 0x0 PUSH3 0xBB3 DUP5 DUP3 DUP6 ADD PUSH3 0x9F5 JUMP JUMPDEST SWAP2 POP POP SWAP3 SWAP2 POP POP JUMP JUMPDEST PUSH1 0x0 DUP1 PUSH1 0x40 DUP4 DUP6 SUB SLT ISZERO PUSH3 0xBD0 JUMPI PUSH1 0x0 DUP1 REVERT JUMPDEST PUSH1 0x0 PUSH3 0xBE0 DUP6 DUP3 DUP7 ADD PUSH3 0x9F5 JUMP JUMPDEST SWAP3 POP POP PUSH1 0x20 DUP4 ADD CALLDATALOAD PUSH8 0xFFFFFFFFFFFFFFFF DUP2 GT ISZERO PUSH3 0xBFE JUMPI PUSH1 0x0 DUP1 REVERT JUMPDEST PUSH3 0xC0C DUP6 DUP3 DUP7 ADD PUSH3 0x99B JUMP JUMPDEST SWAP2 POP POP SWAP3 POP SWAP3 SWAP1 POP JUMP JUMPDEST PUSH3 0xC21 DUP2 PUSH3 0xF38 JUMP JUMPDEST DUP3 MSTORE POP POP JUMP JUMPDEST PUSH3 0xC32 DUP2 PUSH3 0xF4C JUMP JUMPDEST DUP3 MSTORE POP POP JUMP JUMPDEST PUSH3 0xC43 DUP2 PUSH3 0xF82 JUMP JUMPDEST DUP3 MSTORE POP POP JUMP JUMPDEST PUSH1 0x0 PUSH3 0xC56 DUP3 PUSH3 0xEB4 JUMP JUMPDEST PUSH3 0xC62 DUP2 DUP6 PUSH3 0xECA JUMP JUMPDEST SWAP4 POP PUSH3 0xC74 DUP2 DUP6 PUSH1 0x20 DUP7 ADD PUSH3 0xFB9 JUMP JUMPDEST PUSH3 0xC7F DUP2 PUSH3 0x1083 JUMP JUMPDEST DUP5 ADD SWAP2 POP POP SWAP3 SWAP2 POP POP JUMP JUMPDEST PUSH1 0x0 PUSH3 0xC99 PUSH1 0x0 DUP4 PUSH3 0xEBF JUMP JUMPDEST SWAP2 POP PUSH3 0xCA6 DUP3 PUSH3 0x1094 JUMP JUMPDEST PUSH1 0x0 DUP3 ADD SWAP1 POP SWAP2 SWAP1 POP JUMP JUMPDEST PUSH3 0xCBC DUP2 PUSH3 0xF78 JUMP JUMPDEST DUP3 MSTORE POP POP JUMP JUMPDEST PUSH1 0x0 PUSH3 0xCCF DUP3 PUSH3 0xC8A JUMP JUMPDEST SWAP2 POP DUP2 SWAP1 POP SWAP2 SWAP1 POP JUMP JUMPDEST PUSH1 0x0 PUSH1 0x20 DUP3 ADD SWAP1 POP PUSH3 0xCF0 PUSH1 0x0 DUP4 ADD DUP5 PUSH3 0xC16 JUMP JUMPDEST SWAP3 SWAP2 POP POP JUMP JUMPDEST PUSH1 0x0 PUSH1 0x80 DUP3 ADD SWAP1 POP PUSH3 0xD0D PUSH1 0x0 DUP4 ADD DUP8 PUSH3 0xC16 JUMP JUMPDEST PUSH3 0xD1C PUSH1 0x20 DUP4 ADD DUP7 PUSH3 0xC16 JUMP JUMPDEST PUSH3 0xD2B PUSH1 0x40 DUP4 ADD DUP6 PUSH3 0xCB1 JUMP JUMPDEST DUP2 DUP2 SUB PUSH1 0x60 DUP4 ADD MSTORE PUSH3 0xD3F DUP2 DUP5 PUSH3 0xC49 JUMP JUMPDEST SWAP1 POP SWAP6 SWAP5 POP POP POP POP POP JUMP JUMPDEST PUSH1 0x0 PUSH1 0x80 DUP3 ADD SWAP1 POP PUSH3 0xD61 PUSH1 0x0 DUP4 ADD DUP8 PUSH3 0xC16 JUMP JUMPDEST DUP2 DUP2 SUB PUSH1 0x20 DUP4 ADD MSTORE PUSH3 0xD75 DUP2 DUP7 PUSH3 0xC49 JUMP JUMPDEST SWAP1 POP DUP2 DUP2 SUB PUSH1 0x40 DUP4 ADD MSTORE PUSH3 0xD8B DUP2 DUP6 PUSH3 0xC49 JUMP JUMPDEST SWAP1 POP DUP2 DUP2 SUB PUSH1 0x60 DUP4 ADD MSTORE PUSH3 0xDA1 DUP2 DUP5 PUSH3 0xC49 JUMP JUMPDEST SWAP1 POP SWAP6 SWAP5 POP POP POP POP POP JUMP JUMPDEST PUSH1 0x0 PUSH1 0x20 DUP3 ADD SWAP1 POP PUSH3 0xDC3 PUSH1 0x0 DUP4 ADD DUP5 PUSH3 0xC27 JUMP JUMPDEST SWAP3 SWAP2 POP POP JUMP JUMPDEST PUSH1 0x0 PUSH1 0x20 DUP3 ADD SWAP1 POP PUSH3 0xDE0 PUSH1 0x0 DUP4 ADD DUP5 PUSH3 0xC38 JUMP JUMPDEST SWAP3 SWAP2 POP POP JUMP JUMPDEST PUSH1 0x0 PUSH1 0x60 DUP3 ADD SWAP1 POP DUP2 DUP2 SUB PUSH1 0x0 DUP4 ADD MSTORE PUSH3 0xE02 DUP2 DUP7 PUSH3 0xC49 JUMP JUMPDEST SWAP1 POP DUP2 DUP2 SUB PUSH1 0x20 DUP4 ADD MSTORE PUSH3 0xE18 DUP2 DUP6 PUSH3 0xC49 JUMP JUMPDEST SWAP1 POP DUP2 DUP2 SUB PUSH1 0x40 DUP4 ADD MSTORE PUSH3 0xE2E DUP2 DUP5 PUSH3 0xC49 JUMP JUMPDEST SWAP1 POP SWAP5 SWAP4 POP POP POP POP JUMP JUMPDEST PUSH1 0x0 PUSH1 0x20 DUP3 ADD SWAP1 POP PUSH3 0xE4F PUSH1 0x0 DUP4 ADD DUP5 PUSH3 0xCB1 JUMP JUMPDEST SWAP3 SWAP2 POP POP JUMP JUMPDEST PUSH1 0x0 PUSH3 0xE61 PUSH3 0xE74 JUMP JUMPDEST SWAP1 POP PUSH3 0xE6F DUP3 DUP3 PUSH3 0xFEF JUMP JUMPDEST SWAP2 SWAP1 POP JUMP JUMPDEST PUSH1 0x0 PUSH1 0x40 MLOAD SWAP1 POP SWAP1 JUMP JUMPDEST PUSH1 0x0 PUSH8 0xFFFFFFFFFFFFFFFF DUP3 GT ISZERO PUSH3 0xE9C JUMPI PUSH3 0xE9B PUSH3 0x1054 JUMP JUMPDEST JUMPDEST PUSH3 0xEA7 DUP3 PUSH3 0x1083 JUMP JUMPDEST SWAP1 POP PUSH1 0x20 DUP2 ADD SWAP1 POP SWAP2 SWAP1 POP JUMP JUMPDEST PUSH1 0x0 DUP2 MLOAD SWAP1 POP SWAP2 SWAP1 POP JUMP JUMPDEST PUSH1 0x0 DUP2 SWAP1 POP SWAP3 SWAP2 POP POP JUMP JUMPDEST PUSH1 0x0 DUP3 DUP3 MSTORE PUSH1 0x20 DUP3 ADD SWAP1 POP SWAP3 SWAP2 POP POP JUMP JUMPDEST PUSH1 0x0 PUSH3 0xEE8 DUP3 PUSH3 0xF78 JUMP JUMPDEST SWAP2 POP PUSH3 0xEF5 DUP4 PUSH3 0xF78 JUMP JUMPDEST SWAP3 POP DUP3 PUSH32 0xFFFFFFFFFFFFFFFFFFFFFFFFFFFFFFFFFFFFFFFFFFFFFFFFFFFFFFFFFFFFFFFF SUB DUP3 GT ISZERO PUSH3 0xF2D JUMPI PUSH3 0xF2C PUSH3 0x1025 JUMP JUMPDEST JUMPDEST DUP3 DUP3 ADD SWAP1 POP SWAP3 SWAP2 POP POP JUMP JUMPDEST PUSH1 0x0 PUSH3 0xF45 DUP3 PUSH3 0xF58 JUMP JUMPDEST SWAP1 POP SWAP2 SWAP1 POP JUMP JUMPDEST PUSH1 0x0 DUP2 ISZERO ISZERO SWAP1 POP SWAP2 SWAP1 POP JUMP JUMPDEST PUSH1 0x0 PUSH20 0xFFFFFFFFFFFFFFFFFFFFFFFFFFFFFFFFFFFFFFFF DUP3 AND SWAP1 POP SWAP2 SWAP1 POP JUMP JUMPDEST PUSH1 0x0 DUP2 SWAP1 POP SWAP2 SWAP1 POP JUMP JUMPDEST PUSH1 0x0 PUSH3 0xF8F DUP3 PUSH3 0xF96 JUMP JUMPDEST SWAP1 POP SWAP2 SWAP1 POP JUMP JUMPDEST PUSH1 0x0 PUSH3 0xFA3 DUP3 PUSH3 0xF58 JUMP JUMPDEST SWAP1 POP SWAP2 SWAP1 POP JUMP JUMPDEST DUP3 DUP2 DUP4 CALLDATACOPY PUSH1 0x0 DUP4 DUP4 ADD MSTORE POP POP POP JUMP JUMPDEST PUSH1 0x0 JUMPDEST DUP4 DUP2 LT ISZERO PUSH3 0xFD9 JUMPI DUP1 DUP3 ADD MLOAD DUP2 DUP5 ADD MSTORE PUSH1 0x20 DUP2 ADD SWAP1 POP PUSH3 0xFBC JUMP JUMPDEST DUP4 DUP2 GT ISZERO PUSH3 0xFE9 JUMPI PUSH1 0x0 DUP5 DUP5 ADD MSTORE JUMPDEST POP POP POP POP JUMP JUMPDEST PUSH3 0xFFA DUP3 PUSH3 0x1083 JUMP JUMPDEST DUP2 ADD DUP2 DUP2 LT PUSH8 0xFFFFFFFFFFFFFFFF DUP3 GT OR ISZERO PUSH3 0x101C JUMPI PUSH3 0x101B PUSH3 0x1054 JUMP JUMPDEST JUMPDEST DUP1 PUSH1 0x40 MSTORE POP POP POP JUMP JUMPDEST PUSH32 0x4E487B7100000000000000000000000000000000000000000000000000000000 PUSH1 0x0 MSTORE PUSH1 0x11 PUSH1 0x4 MSTORE PUSH1 0x24 PUSH1 0x0 REVERT JUMPDEST PUSH32 0x4E487B7100000000000000000000000000000000000000000000000000000000 PUSH1 0x0 MSTORE PUSH1 0x41 PUSH1 0x4 MSTORE PUSH1 0x24 PUSH1 0x0 REVERT JUMPDEST PUSH1 0x0 PUSH1 0x1F NOT PUSH1 0x1F DUP4 ADD AND SWAP1 POP SWAP2 SWAP1 POP JUMP JUMPDEST POP JUMP JUMPDEST PUSH3 0x10A2 DUP2 PUSH3 0xF38 JUMP JUMPDEST DUP2 EQ PUSH3 0x10AE JUMPI PUSH1 0x0 DUP1 REVERT JUMPDEST POP JUMP JUMPDEST PUSH3 0x10BC DUP2 PUSH3 0xF78 JUMP JUMPDEST DUP2 EQ PUSH3 0x10C8 JUMPI PUSH1 0x0 DUP1 REVERT JUMPDEST POP JUMP INVALID PUSH1 0x80 PUSH1 0x40 MSTORE CALLVALUE DUP1 ISZERO PUSH3 0x11 JUMPI PUSH1 0x0 DUP1 REVERT JUMPDEST POP PUSH1 0x40 MLOAD PUSH3 0xC2D CODESIZE SUB DUP1 PUSH3 0xC2D DUP4 CODECOPY DUP2 DUP2 ADD PUSH1 0x40 MSTORE DUP2 ADD SWAP1 PUSH3 0x37 SWAP2 SWAP1 PUSH3 0x205 JUMP JUMPDEST DUP4 PUSH1 0x0 DUP1 PUSH2 0x100 EXP DUP2 SLOAD DUP2 PUSH20 0xFFFFFFFFFFFFFFFFFFFFFFFFFFFFFFFFFFFFFFFF MUL NOT AND SWAP1 DUP4 PUSH20 0xFFFFFFFFFFFFFFFFFFFFFFFFFFFFFFFFFFFFFFFF AND MUL OR SWAP1 SSTORE POP DUP3 PUSH1 0x1 SWAP1 DUP1 MLOAD SWAP1 PUSH1 0x20 ADD SWAP1 PUSH3 0x8F SWAP3 SWAP2 SWAP1 PUSH3 0xCC JUMP JUMPDEST POP DUP2 PUSH1 0x2 SWAP1 DUP1 MLOAD SWAP1 PUSH1 0x20 ADD SWAP1 PUSH3 0xA8 SWAP3 SWAP2 SWAP1 PUSH3 0xCC JUMP JUMPDEST POP DUP1 PUSH1 0x3 SWAP1 DUP1 MLOAD SWAP1 PUSH1 0x20 ADD SWAP1 PUSH3 0xC1 SWAP3 SWAP2 SWAP1 PUSH3 0xCC JUMP JUMPDEST POP POP POP POP POP PUSH3 0x47A JUMP JUMPDEST DUP3 DUP1 SLOAD PUSH3 0xDA SWAP1 PUSH3 0x385 JUMP JUMPDEST SWAP1 PUSH1 0x0 MSTORE PUSH1 0x20 PUSH1 0x0 KECCAK256 SWAP1 PUSH1 0x1F ADD PUSH1 0x20 SWAP1 DIV DUP2 ADD SWAP3 DUP3 PUSH3 0xFE JUMPI PUSH1 0x0 DUP6 SSTORE PUSH3 0x14A JUMP JUMPDEST DUP3 PUSH1 0x1F LT PUSH3 0x119 JUMPI DUP1 MLOAD PUSH1 0xFF NOT AND DUP4 DUP1 ADD OR DUP6 SSTORE PUSH3 0x14A JUMP JUMPDEST DUP3 DUP1 ADD PUSH1 0x1 ADD DUP6 SSTORE DUP3 ISZERO PUSH3 0x14A JUMPI SWAP2 DUP3 ADD JUMPDEST DUP3 DUP2 GT ISZERO PUSH3 0x149 JUMPI DUP3 MLOAD DUP3 SSTORE SWAP2 PUSH1 0x20 ADD SWAP2 SWAP1 PUSH1 0x1 ADD SWAP1 PUSH3 0x12C JUMP JUMPDEST JUMPDEST POP SWAP1 POP PUSH3 0x159 SWAP2 SWAP1 PUSH3 0x15D JUMP JUMPDEST POP SWAP1 JUMP JUMPDEST JUMPDEST DUP1 DUP3 GT ISZERO PUSH3 0x178 JUMPI PUSH1 0x0 DUP2 PUSH1 0x0 SWAP1 SSTORE POP PUSH1 0x1 ADD PUSH3 0x15E JUMP JUMPDEST POP SWAP1 JUMP JUMPDEST PUSH1 0x0 PUSH3 0x193 PUSH3 0x18D DUP5 PUSH3 0x2E5 JUMP JUMPDEST PUSH3 0x2BC JUMP JUMPDEST SWAP1 POP DUP3 DUP2 MSTORE PUSH1 0x20 DUP2 ADD DUP5 DUP5 DUP5 ADD GT ISZERO PUSH3 0x1AC JUMPI PUSH1 0x0 DUP1 REVERT JUMPDEST PUSH3 0x1B9 DUP5 DUP3 DUP6 PUSH3 0x34F JUMP JUMPDEST POP SWAP4 SWAP3 POP POP POP JUMP JUMPDEST PUSH1 0x0 DUP2 MLOAD SWAP1 POP PUSH3 0x1D2 DUP2 PUSH3 0x460 JUMP JUMPDEST SWAP3 SWAP2 POP POP JUMP JUMPDEST PUSH1 0x0 DUP3 PUSH1 0x1F DUP4 ADD SLT PUSH3 0x1EA JUMPI PUSH1 0x0 DUP1 REVERT JUMPDEST DUP2 MLOAD PUSH3 0x1FC DUP5 DUP3 PUSH1 0x20 DUP7 ADD PUSH3 0x17C JUMP JUMPDEST SWAP2 POP POP SWAP3 SWAP2 POP POP JUMP JUMPDEST PUSH1 0x0 DUP1 PUSH1 0x0 DUP1 PUSH1 0x80 DUP6 DUP8 SUB SLT ISZERO PUSH3 0x21C JUMPI PUSH1 0x0 DUP1 REVERT JUMPDEST PUSH1 0x0 PUSH3 0x22C DUP8 DUP3 DUP9 ADD PUSH3 0x1C1 JUMP JUMPDEST SWAP5 POP POP PUSH1 0x20 DUP6 ADD MLOAD PUSH8 0xFFFFFFFFFFFFFFFF DUP2 GT ISZERO PUSH3 0x24A JUMPI PUSH1 0x0 DUP1 REVERT JUMPDEST PUSH3 0x258 DUP8 DUP3 DUP9 ADD PUSH3 0x1D8 JUMP JUMPDEST SWAP4 POP POP PUSH1 0x40 DUP6 ADD MLOAD PUSH8 0xFFFFFFFFFFFFFFFF DUP2 GT ISZERO PUSH3 0x276 JUMPI PUSH1 0x0 DUP1 REVERT JUMPDEST PUSH3 0x284 DUP8 DUP3 DUP9 ADD PUSH3 0x1D8 JUMP JUMPDEST SWAP3 POP POP PUSH1 0x60 DUP6 ADD MLOAD PUSH8 0xFFFFFFFFFFFFFFFF DUP2 GT ISZERO PUSH3 0x2A2 JUMPI PUSH1 0x0 DUP1 REVERT JUMPDEST PUSH3 0x2B0 DUP8 DUP3 DUP9 ADD PUSH3 0x1D8 JUMP JUMPDEST SWAP2 POP POP SWAP3 SWAP6 SWAP2 SWAP5 POP SWAP3 POP JUMP JUMPDEST PUSH1 0x0 PUSH3 0x2C8 PUSH3 0x2DB JUMP JUMPDEST SWAP1 POP PUSH3 0x2D6 DUP3 DUP3 PUSH3 0x3BB JUMP JUMPDEST SWAP2 SWAP1 POP JUMP JUMPDEST PUSH1 0x0 PUSH1 0x40 MLOAD SWAP1 POP SWAP1 JUMP JUMPDEST PUSH1 0x0 PUSH8 0xFFFFFFFFFFFFFFFF DUP3 GT ISZERO PUSH3 0x303 JUMPI PUSH3 0x302 PUSH3 0x420 JUMP JUMPDEST JUMPDEST PUSH3 0x30E DUP3 PUSH3 0x44F JUMP JUMPDEST SWAP1 POP PUSH1 0x20 DUP2 ADD SWAP1 POP SWAP2 SWAP1 POP JUMP JUMPDEST PUSH1 0x0 PUSH3 0x328 DUP3 PUSH3 0x32F JUMP JUMPDEST SWAP1 POP SWAP2 SWAP1 POP JUMP JUMPDEST PUSH1 0x0 PUSH20 0xFFFFFFFFFFFFFFFFFFFFFFFFFFFFFFFFFFFFFFFF DUP3 AND SWAP1 POP SWAP2 SWAP1 POP JUMP JUMPDEST PUSH1 0x0 JUMPDEST DUP4 DUP2 LT ISZERO PUSH3 0x36F JUMPI DUP1 DUP3 ADD MLOAD DUP2 DUP5 ADD MSTORE PUSH1 0x20 DUP2 ADD SWAP1 POP PUSH3 0x352 JUMP JUMPDEST DUP4 DUP2 GT ISZERO PUSH3 0x37F JUMPI PUSH1 0x0 DUP5 DUP5 ADD MSTORE JUMPDEST POP POP POP POP JUMP JUMPDEST PUSH1 0x0 PUSH1 0x2 DUP3 DIV SWAP1 POP PUSH1 0x1 DUP3 AND DUP1 PUSH3 0x39E JUMPI PUSH1 0x7F DUP3 AND SWAP2 POP JUMPDEST PUSH1 0x20 DUP3 LT DUP2 EQ ISZERO PUSH3 0x3B5 JUMPI PUSH3 0x3B4 PUSH3 0x3F1 JUMP JUMPDEST JUMPDEST POP SWAP2 SWAP1 POP JUMP JUMPDEST PUSH3 0x3C6 DUP3 PUSH3 0x44F JUMP JUMPDEST DUP2 ADD DUP2 DUP2 LT PUSH8 0xFFFFFFFFFFFFFFFF DUP3 GT OR ISZERO PUSH3 0x3E8 JUMPI PUSH3 0x3E7 PUSH3 0x420 JUMP JUMPDEST JUMPDEST DUP1 PUSH1 0x40 MSTORE POP POP POP JUMP JUMPDEST PUSH32 0x4E487B7100000000000000000000000000000000000000000000000000000000 PUSH1 0x0 MSTORE PUSH1 0x22 PUSH1 0x4 MSTORE PUSH1 0x24 PUSH1 0x0 REVERT JUMPDEST PUSH32 0x4E487B7100000000000000000000000000000000000000000000000000000000 PUSH1 0x0 MSTORE PUSH1 0x41 PUSH1 0x4 MSTORE PUSH1 0x24 PUSH1 0x0 REVERT JUMPDEST PUSH1 0x0 PUSH1 0x1F NOT PUSH1 0x1F DUP4 ADD AND SWAP1 POP SWAP2 SWAP1 POP JUMP JUMPDEST PUSH3 0x46B DUP2 PUSH3 0x31B JUMP JUMPDEST DUP2 EQ PUSH3 0x477 JUMPI PUSH1 0x0 DUP1 REVERT JUMPDEST POP JUMP JUMPDEST PUSH2 0x7A3 DUP1 PUSH3 0x48A PUSH1 0x0 CODECOPY PUSH1 0x0 RETURN INVALID PUSH1 0x80 PUSH1 0x40 MSTORE PUSH1 0x4 CALLDATASIZE LT PUSH2 0x43 JUMPI PUSH1 0x0 CALLDATALOAD PUSH1 0xE0 SHR DUP1 PUSH4 0x3CCFD60B EQ PUSH2 0x8A JUMPI DUP1 PUSH4 0x580AA5D3 EQ PUSH2 0xA1 JUMPI DUP1 PUSH4 0x8995BC2E EQ PUSH2 0xCC JUMPI DUP1 PUSH4 0xDD9EBA57 EQ PUSH2 0xF7 JUMPI PUSH2 0x85 JUMP JUMPDEST CALLDATASIZE PUSH2 0x85 JUMPI PUSH32 0x11BC892157FDD60DF9EBCF9D5AD60CA17A129ED098AFB31C5A34EBE3489AB15E CALLER ADDRESS CALLVALUE PUSH1 0x40 MLOAD PUSH2 0x7B SWAP4 SWAP3 SWAP2 SWAP1 PUSH2 0x527 JUMP JUMPDEST PUSH1 0x40 MLOAD DUP1 SWAP2 SUB SWAP1 LOG1 STOP JUMPDEST PUSH1 0x0 DUP1 REVERT JUMPDEST CALLVALUE DUP1 ISZERO PUSH2 0x96 JUMPI PUSH1 0x0 DUP1 REVERT JUMPDEST POP PUSH2 0x9F PUSH2 0x124 JUMP JUMPDEST STOP JUMPDEST CALLVALUE DUP1 ISZERO PUSH2 0xAD JUMPI PUSH1 0x0 DUP1 REVERT JUMPDEST POP PUSH2 0xB6 PUSH2 0x256 JUMP JUMPDEST PUSH1 0x40 MLOAD PUSH2 0xC3 SWAP2 SWAP1 PUSH2 0x5DD JUMP JUMPDEST PUSH1 0x40 MLOAD DUP1 SWAP2 SUB SWAP1 RETURN JUMPDEST CALLVALUE DUP1 ISZERO PUSH2 0xD8 JUMPI PUSH1 0x0 DUP1 REVERT JUMPDEST POP PUSH2 0xE1 PUSH2 0x25E JUMP JUMPDEST PUSH1 0x40 MLOAD PUSH2 0xEE SWAP2 SWAP1 PUSH2 0x4D5 JUMP JUMPDEST PUSH1 0x40 MLOAD DUP1 SWAP2 SUB SWAP1 RETURN JUMPDEST CALLVALUE DUP1 ISZERO PUSH2 0x103 JUMPI PUSH1 0x0 DUP1 REVERT JUMPDEST POP PUSH2 0x10C PUSH2 0x287 JUMP JUMPDEST PUSH1 0x40 MLOAD PUSH2 0x11B SWAP4 SWAP3 SWAP2 SWAP1 PUSH2 0x571 JUMP JUMPDEST PUSH1 0x40 MLOAD DUP1 SWAP2 SUB SWAP1 RETURN JUMPDEST PUSH1 0x0 DUP1 SLOAD SWAP1 PUSH2 0x100 EXP SWAP1 DIV PUSH20 0xFFFFFFFFFFFFFFFFFFFFFFFFFFFFFFFFFFFFFFFF AND PUSH20 0xFFFFFFFFFFFFFFFFFFFFFFFFFFFFFFFFFFFFFFFF AND CALLER PUSH20 0xFFFFFFFFFFFFFFFFFFFFFFFFFFFFFFFFFFFFFFFF AND EQ PUSH2 0x1B2 JUMPI PUSH1 0x40 MLOAD PUSH32 0x8C379A000000000000000000000000000000000000000000000000000000000 DUP2 MSTORE PUSH1 0x4 ADD PUSH2 0x1A9 SWAP1 PUSH2 0x5BD JUMP JUMPDEST PUSH1 0x40 MLOAD DUP1 SWAP2 SUB SWAP1 REVERT JUMPDEST CALLER PUSH20 0xFFFFFFFFFFFFFFFFFFFFFFFFFFFFFFFFFFFFFFFF AND PUSH2 0x8FC SELFBALANCE SWAP1 DUP2 ISZERO MUL SWAP1 PUSH1 0x40 MLOAD PUSH1 0x0 PUSH1 0x40 MLOAD DUP1 DUP4 SUB DUP2 DUP6 DUP9 DUP9 CALL SWAP4 POP POP POP POP ISZERO DUP1 ISZERO PUSH2 0x1F8 JUMPI RETURNDATASIZE PUSH1 0x0 DUP1 RETURNDATACOPY RETURNDATASIZE PUSH1 0x0 REVERT JUMPDEST POP PUSH32 0x6337ED398C0E8467698C581374FDCE4DB14922DF487B5A39483079F5F59B60A4 ADDRESS PUSH1 0x0 DUP1 SLOAD SWAP1 PUSH2 0x100 EXP SWAP1 DIV PUSH20 0xFFFFFFFFFFFFFFFFFFFFFFFFFFFFFFFFFFFFFFFF AND SELFBALANCE PUSH1 0x40 MLOAD PUSH2 0x24C SWAP4 SWAP3 SWAP2 SWAP1 PUSH2 0x4F0 JUMP JUMPDEST PUSH1 0x40 MLOAD DUP1 SWAP2 SUB SWAP1 LOG1 JUMP JUMPDEST PUSH1 0x0 SELFBALANCE SWAP1 POP SWAP1 JUMP JUMPDEST PUSH1 0x0 DUP1 PUSH1 0x0 SWAP1 SLOAD SWAP1 PUSH2 0x100 EXP SWAP1 DIV PUSH20 0xFFFFFFFFFFFFFFFFFFFFFFFFFFFFFFFFFFFFFFFF AND SWAP1 POP SWAP1 JUMP JUMPDEST PUSH1 0x60 DUP1 PUSH1 0x60 PUSH1 0x1 DUP1 SLOAD PUSH2 0x299 SWAP1 PUSH2 0x683 JUMP JUMPDEST DUP1 PUSH1 0x1F ADD PUSH1 0x20 DUP1 SWAP2 DIV MUL PUSH1 0x20 ADD PUSH1 0x40 MLOAD SWAP1 DUP2 ADD PUSH1 0x40 MSTORE DUP1 SWAP3 SWAP2 SWAP1 DUP2 DUP2 MSTORE PUSH1 0x20 ADD DUP3 DUP1 SLOAD PUSH2 0x2C5 SWAP1 PUSH2 0x683 JUMP JUMPDEST DUP1 ISZERO PUSH2 0x312 JUMPI DUP1 PUSH1 0x1F LT PUSH2 0x2E7 JUMPI PUSH2 0x100 DUP1 DUP4 SLOAD DIV MUL DUP4 MSTORE SWAP2 PUSH1 0x20 ADD SWAP2 PUSH2 0x312 JUMP JUMPDEST DUP3 ADD SWAP2 SWAP1 PUSH1 0x0 MSTORE PUSH1 0x20 PUSH1 0x0 KECCAK256 SWAP1 JUMPDEST DUP2 SLOAD DUP2 MSTORE SWAP1 PUSH1 0x1 ADD SWAP1 PUSH1 0x20 ADD DUP1 DUP4 GT PUSH2 0x2F5 JUMPI DUP3 SWAP1 SUB PUSH1 0x1F AND DUP3 ADD SWAP2 JUMPDEST POP POP POP POP POP SWAP3 POP PUSH1 0x2 DUP1 SLOAD PUSH2 0x326 SWAP1 PUSH2 0x683 JUMP JUMPDEST DUP1 PUSH1 0x1F ADD PUSH1 0x20 DUP1 SWAP2 DIV MUL PUSH1 0x20 ADD PUSH1 0x40 MLOAD SWAP1 DUP2 ADD PUSH1 0x40 MSTORE DUP1 SWAP3 SWAP2 SWAP1 DUP2 DUP2 MSTORE PUSH1 0x20 ADD DUP3 DUP1 SLOAD PUSH2 0x352 SWAP1 PUSH2 0x683 JUMP JUMPDEST DUP1 ISZERO PUSH2 0x39F JUMPI DUP1 PUSH1 0x1F LT PUSH2 0x374 JUMPI PUSH2 0x100 DUP1 DUP4 SLOAD DIV MUL DUP4 MSTORE SWAP2 PUSH1 0x20 ADD SWAP2 PUSH2 0x39F JUMP JUMPDEST DUP3 ADD SWAP2 SWAP1 PUSH1 0x0 MSTORE PUSH1 0x20 PUSH1 0x0 KECCAK256 SWAP1 JUMPDEST DUP2 SLOAD DUP2 MSTORE SWAP1 PUSH1 0x1 ADD SWAP1 PUSH1 0x20 ADD DUP1 DUP4 GT PUSH2 0x382 JUMPI DUP3 SWAP1 SUB PUSH1 0x1F AND DUP3 ADD SWAP2 JUMPDEST POP POP POP POP POP SWAP2 POP PUSH1 0x3 DUP1 SLOAD PUSH2 0x3B3 SWAP1 PUSH2 0x683 JUMP JUMPDEST DUP1 PUSH1 0x1F ADD PUSH1 0x20 DUP1 SWAP2 DIV MUL PUSH1 0x20 ADD PUSH1 0x40 MLOAD SWAP1 DUP2 ADD PUSH1 0x40 MSTORE DUP1 SWAP3 SWAP2 SWAP1 DUP2 DUP2 MSTORE PUSH1 0x20 ADD DUP3 DUP1 SLOAD PUSH2 0x3DF SWAP1 PUSH2 0x683 JUMP JUMPDEST DUP1 ISZERO PUSH2 0x42C JUMPI DUP1 PUSH1 0x1F LT PUSH2 0x401 JUMPI PUSH2 0x100 DUP1 DUP4 SLOAD DIV MUL DUP4 MSTORE SWAP2 PUSH1 0x20 ADD SWAP2 PUSH2 0x42C JUMP JUMPDEST DUP3 ADD SWAP2 SWAP1 PUSH1 0x0 MSTORE PUSH1 0x20 PUSH1 0x0 KECCAK256 SWAP1 JUMPDEST DUP2 SLOAD DUP2 MSTORE SWAP1 PUSH1 0x1 ADD SWAP1 PUSH1 0x20 ADD DUP1 DUP4 GT PUSH2 0x40F JUMPI DUP3 SWAP1 SUB PUSH1 0x1F AND DUP3 ADD SWAP2 JUMPDEST POP POP POP POP POP SWAP1 POP SWAP1 SWAP2 SWAP3 JUMP JUMPDEST PUSH2 0x441 DUP2 PUSH2 0x614 JUMP JUMPDEST DUP3 MSTORE POP POP JUMP JUMPDEST PUSH1 0x0 PUSH2 0x452 DUP3 PUSH2 0x5F8 JUMP JUMPDEST PUSH2 0x45C DUP2 DUP6 PUSH2 0x603 JUMP JUMPDEST SWAP4 POP PUSH2 0x46C DUP2 DUP6 PUSH1 0x20 DUP7 ADD PUSH2 0x650 JUMP JUMPDEST PUSH2 0x475 DUP2 PUSH2 0x6E4 JUMP JUMPDEST DUP5 ADD SWAP2 POP POP SWAP3 SWAP2 POP POP JUMP JUMPDEST PUSH1 0x0 PUSH2 0x48D PUSH1 0x18 DUP4 PUSH2 0x603 JUMP JUMPDEST SWAP2 POP PUSH2 0x498 DUP3 PUSH2 0x6F5 JUMP JUMPDEST PUSH1 0x20 DUP3 ADD SWAP1 POP SWAP2 SWAP1 POP JUMP JUMPDEST PUSH1 0x0 PUSH2 0x4B0 PUSH1 0x28 DUP4 PUSH2 0x603 JUMP JUMPDEST SWAP2 POP PUSH2 0x4BB DUP3 PUSH2 0x71E JUMP JUMPDEST PUSH1 0x40 DUP3 ADD SWAP1 POP SWAP2 SWAP1 POP JUMP JUMPDEST PUSH2 0x4CF DUP2 PUSH2 0x646 JUMP JUMPDEST DUP3 MSTORE POP POP JUMP JUMPDEST PUSH1 0x0 PUSH1 0x20 DUP3 ADD SWAP1 POP PUSH2 0x4EA PUSH1 0x0 DUP4 ADD DUP5 PUSH2 0x438 JUMP JUMPDEST SWAP3 SWAP2 POP POP JUMP JUMPDEST PUSH1 0x0 PUSH1 0x60 DUP3 ADD SWAP1 POP PUSH2 0x505 PUSH1 0x0 DUP4 ADD DUP7 PUSH2 0x438 JUMP JUMPDEST PUSH2 0x512 PUSH1 0x20 DUP4 ADD DUP6 PUSH2 0x438 JUMP JUMPDEST PUSH2 0x51F PUSH1 0x40 DUP4 ADD DUP5 PUSH2 0x4C6 JUMP JUMPDEST SWAP5 SWAP4 POP POP POP POP JUMP JUMPDEST PUSH1 0x0 PUSH1 0x80 DUP3 ADD SWAP1 POP PUSH2 0x53C PUSH1 0x0 DUP4 ADD DUP7 PUSH2 0x438 JUMP JUMPDEST PUSH2 0x549 PUSH1 0x20 DUP4 ADD DUP6 PUSH2 0x438 JUMP JUMPDEST PUSH2 0x556 PUSH1 0x40 DUP4 ADD DUP5 PUSH2 0x4C6 JUMP JUMPDEST DUP2 DUP2 SUB PUSH1 0x60 DUP4 ADD MSTORE PUSH2 0x567 DUP2 PUSH2 0x480 JUMP JUMPDEST SWAP1 POP SWAP5 SWAP4 POP POP POP POP JUMP JUMPDEST PUSH1 0x0 PUSH1 0x60 DUP3 ADD SWAP1 POP DUP2 DUP2 SUB PUSH1 0x0 DUP4 ADD MSTORE PUSH2 0x58B DUP2 DUP7 PUSH2 0x447 JUMP JUMPDEST SWAP1 POP DUP2 DUP2 SUB PUSH1 0x20 DUP4 ADD MSTORE PUSH2 0x59F DUP2 DUP6 PUSH2 0x447 JUMP JUMPDEST SWAP1 POP DUP2 DUP2 SUB PUSH1 0x40 DUP4 ADD MSTORE PUSH2 0x5B3 DUP2 DUP5 PUSH2 0x447 JUMP JUMPDEST SWAP1 POP SWAP5 SWAP4 POP POP POP POP JUMP JUMPDEST PUSH1 0x0 PUSH1 0x20 DUP3 ADD SWAP1 POP DUP2 DUP2 SUB PUSH1 0x0 DUP4 ADD MSTORE PUSH2 0x5D6 DUP2 PUSH2 0x4A3 JUMP JUMPDEST SWAP1 POP SWAP2 SWAP1 POP JUMP JUMPDEST PUSH1 0x0 PUSH1 0x20 DUP3 ADD SWAP1 POP PUSH2 0x5F2 PUSH1 0x0 DUP4 ADD DUP5 PUSH2 0x4C6 JUMP JUMPDEST SWAP3 SWAP2 POP POP JUMP JUMPDEST PUSH1 0x0 DUP2 MLOAD SWAP1 POP SWAP2 SWAP1 POP JUMP JUMPDEST PUSH1 0x0 DUP3 DUP3 MSTORE PUSH1 0x20 DUP3 ADD SWAP1 POP SWAP3 SWAP2 POP POP JUMP JUMPDEST PUSH1 0x0 PUSH2 0x61F DUP3 PUSH2 0x626 JUMP JUMPDEST SWAP1 POP SWAP2 SWAP1 POP JUMP JUMPDEST PUSH1 0x0 PUSH20 0xFFFFFFFFFFFFFFFFFFFFFFFFFFFFFFFFFFFFFFFF DUP3 AND SWAP1 POP SWAP2 SWAP1 POP JUMP JUMPDEST PUSH1 0x0 DUP2 SWAP1 POP SWAP2 SWAP1 POP JUMP JUMPDEST PUSH1 0x0 JUMPDEST DUP4 DUP2 LT ISZERO PUSH2 0x66E JUMPI DUP1 DUP3 ADD MLOAD DUP2 DUP5 ADD MSTORE PUSH1 0x20 DUP2 ADD SWAP1 POP PUSH2 0x653 JUMP JUMPDEST DUP4 DUP2 GT ISZERO PUSH2 0x67D JUMPI PUSH1 0x0 DUP5 DUP5 ADD MSTORE JUMPDEST POP POP POP POP JUMP JUMPDEST PUSH1 0x0 PUSH1 0x2 DUP3 DIV SWAP1 POP PUSH1 0x1 DUP3 AND DUP1 PUSH2 0x69B JUMPI PUSH1 0x7F DUP3 AND SWAP2 POP JUMPDEST PUSH1 0x20 DUP3 LT DUP2 EQ ISZERO PUSH2 0x6AF JUMPI PUSH2 0x6AE PUSH2 0x6B5 JUMP JUMPDEST JUMPDEST POP SWAP2 SWAP1 POP JUMP JUMPDEST PUSH32 0x4E487B7100000000000000000000000000000000000000000000000000000000 PUSH1 0x0 MSTORE PUSH1 0x22 PUSH1 0x4 MSTORE PUSH1 0x24 PUSH1 0x0 REVERT JUMPDEST PUSH1 0x0 PUSH1 0x1F NOT PUSH1 0x1F DUP4 ADD AND SWAP1 POP SWAP2 SWAP1 POP JUMP JUMPDEST PUSH32 0x546F6B656E2072656365697665642066726F6D20506F6F6C0000000000000000 PUSH1 0x0 DUP3 ADD MSTORE POP JUMP JUMPDEST PUSH32 0x596F75206D757374206265207265676973746572656420746F20776974686472 PUSH1 0x0 DUP3 ADD MSTORE PUSH32 0x61772066756E6473000000000000000000000000000000000000000000000000 PUSH1 0x20 DUP3 ADD MSTORE POP JUMP INVALID LOG2 PUSH5 0x6970667358 0x22 SLT KECCAK256 DUP4 GASPRICE 0x4D NOT MULMOD 0x2D 0xD1 CREATE2 0xB8 0x4E SWAP12 DUP13 0xF6 0x5E PUSH13 0x4DCA3B4C0D71566A171F9C543C MULMOD RETURNDATASIZE 0xB1 0xA9 PUSH5 0x736F6C6343 STOP ADDMOD DIV STOP CALLER LOG2 PUSH5 0x6970667358 0x22 SLT KECCAK256 0x23 SWAP13 SWAP12 PUSH5 0x4C5A36A9F6 DUP13 PUSH1 0xD7 JUMPDEST 0x28 0xA8 PUSH31 0xF9448E2B1BBA32AE50AA2F1BF9E0307864736F6C6343000804003300000000 "
        },
        "methodIdentifiers": {
          "addNewParty(address,string,string,string)": "be5e0077",
          "donate(uint256,string)": "8d59d1f1",
          "getContractAddress(uint256)": "aefa7d98",
          "getCurrentContractAddress()": "c6fd1020",
          "getCurrentContractBalance()": "6d790081",
          "getPartyAddress(uint256)": "392b5f02",
          "getPartyBalance(uint256)": "a267d6a5",
          "getPartyDetails(uint256)": "024789a9",
          "getTotalParties()": "c236bf9b",
          "parties(uint256)": "70651a18",
          "totalEntries()": "7fef036e"
        }
      }
    }
  }
}