{
  "_format": "hh-sol-artifact-1",
  "contractName": "PartyContract",
  "sourceName": "contracts/PartyContract.sol",
  "abi": [
    {
      "inputs": [
        {
          "internalType": "address",
          "name": "_owner",
          "type": "address"
        },
        {
          "internalType": "string",
          "name": "_name",
          "type": "string"
        },
        {
          "internalType": "string",
          "name": "_cause",
          "type": "string"
        },
        {
          "internalType": "string",
          "name": "_link",
          "type": "string"
        }
      ],
      "stateMutability": "nonpayable",
      "type": "constructor"
    },
    {
      "anonymous": false,
      "inputs": [
        {
          "indexed": false,
          "internalType": "address",
          "name": "from",
          "type": "address"
        },
        {
          "indexed": false,
          "internalType": "address",
          "name": "to",
          "type": "address"
        },
        {
          "indexed": false,
          "internalType": "string",
          "name": "message",
          "type": "string"
        }
      ],
      "name": "InternalError",
      "type": "event"
    },
    {
      "anonymous": false,
      "inputs": [
        {
          "indexed": false,
          "internalType": "address",
          "name": "from",
          "type": "address"
        },
        {
          "indexed": false,
          "internalType": "address",
          "name": "to",
          "type": "address"
        },
        {
          "indexed": false,
          "internalType": "uint256",
          "name": "amount",
          "type": "uint256"
        }
      ],
      "name": "MinimumTokenRequired",
      "type": "event"
    },
    {
      "anonymous": false,
      "inputs": [
        {
          "indexed": false,
          "internalType": "address",
          "name": "partyAddress",
          "type": "address"
        },
        {
          "indexed": false,
          "internalType": "address",
          "name": "contractAddress",
          "type": "address"
        },
        {
          "indexed": false,
          "internalType": "uint256",
          "name": "partyCount",
          "type": "uint256"
        },
        {
          "indexed": false,
          "internalType": "string",
          "name": "name",
          "type": "string"
        },
        {
          "indexed": false,
          "internalType": "string",
          "name": "cause",
          "type": "string"
        },
        {
          "indexed": false,
          "internalType": "string",
          "name": "link",
          "type": "string"
        }
      ],
      "name": "NewPartyRegistered",
      "type": "event"
    },
    {
      "anonymous": false,
      "inputs": [
        {
          "indexed": false,
          "internalType": "address",
          "name": "from",
          "type": "address"
        },
        {
          "indexed": false,
          "internalType": "address",
          "name": "to",
          "type": "address"
        },
        {
          "indexed": false,
          "internalType": "uint256",
          "name": "amount",
          "type": "uint256"
        },
        {
          "indexed": false,
          "internalType": "string",
          "name": "message",
          "type": "string"
        }
      ],
      "name": "ReceivedToken",
      "type": "event"
    },
    {
      "anonymous": false,
      "inputs": [
        {
          "indexed": false,
          "internalType": "address",
          "name": "from",
          "type": "address"
        },
        {
          "indexed": false,
          "internalType": "address",
          "name": "to",
          "type": "address"
        },
        {
          "indexed": false,
          "internalType": "uint256",
          "name": "amount",
          "type": "uint256"
        }
      ],
      "name": "TokensWithdrawn",
      "type": "event"
    },
    {
      "inputs": [],
      "name": "getPartyAddress",
      "outputs": [
        {
          "internalType": "address",
          "name": "",
          "type": "address"
        }
      ],
      "stateMutability": "view",
      "type": "function"
    },
    {
      "inputs": [],
      "name": "getPartyBalance",
      "outputs": [
        {
          "internalType": "uint256",
          "name": "",
          "type": "uint256"
        }
      ],
      "stateMutability": "view",
      "type": "function"
    },
    {
      "inputs": [],
      "name": "getPartyDetails",
      "outputs": [
        {
          "internalType": "string",
          "name": "_name",
          "type": "string"
        },
        {
          "internalType": "string",
          "name": "_cause",
          "type": "string"
        },
        {
          "internalType": "string",
          "name": "_link",
          "type": "string"
        }
      ],
      "stateMutability": "view",
      "type": "function"
    },
    {
      "inputs": [],
      "name": "withdraw",
      "outputs": [],
      "stateMutability": "nonpayable",
      "type": "function"
    },
    {
      "stateMutability": "payable",
      "type": "receive"
    }
  ],
  "bytecode": "0x60806040523480156200001157600080fd5b5060405162000c2d38038062000c2d833981810160405281019062000037919062000205565b836000806101000a81548173ffffffffffffffffffffffffffffffffffffffff021916908373ffffffffffffffffffffffffffffffffffffffff16021790555082600190805190602001906200008f929190620000cc565b508160029080519060200190620000a8929190620000cc565b508060039080519060200190620000c1929190620000cc565b50505050506200047a565b828054620000da9062000385565b90600052602060002090601f016020900481019282620000fe57600085556200014a565b82601f106200011957805160ff19168380011785556200014a565b828001600101855582156200014a579182015b82811115620001495782518255916020019190600101906200012c565b5b5090506200015991906200015d565b5090565b5b80821115620001785760008160009055506001016200015e565b5090565b6000620001936200018d84620002e5565b620002bc565b905082815260208101848484011115620001ac57600080fd5b620001b98482856200034f565b509392505050565b600081519050620001d28162000460565b92915050565b600082601f830112620001ea57600080fd5b8151620001fc8482602086016200017c565b91505092915050565b600080600080608085870312156200021c57600080fd5b60006200022c87828801620001c1565b945050602085015167ffffffffffffffff8111156200024a57600080fd5b6200025887828801620001d8565b935050604085015167ffffffffffffffff8111156200027657600080fd5b6200028487828801620001d8565b925050606085015167ffffffffffffffff811115620002a257600080fd5b620002b087828801620001d8565b91505092959194509250565b6000620002c8620002db565b9050620002d68282620003bb565b919050565b6000604051905090565b600067ffffffffffffffff82111562000303576200030262000420565b5b6200030e826200044f565b9050602081019050919050565b600062000328826200032f565b9050919050565b600073ffffffffffffffffffffffffffffffffffffffff82169050919050565b60005b838110156200036f57808201518184015260208101905062000352565b838111156200037f576000848401525b50505050565b600060028204905060018216806200039e57607f821691505b60208210811415620003b557620003b4620003f1565b5b50919050565b620003c6826200044f565b810181811067ffffffffffffffff82111715620003e857620003e762000420565b5b80604052505050565b7f4e487b7100000000000000000000000000000000000000000000000000000000600052602260045260246000fd5b7f4e487b7100000000000000000000000000000000000000000000000000000000600052604160045260246000fd5b6000601f19601f8301169050919050565b6200046b816200031b565b81146200047757600080fd5b50565b6107a3806200048a6000396000f3fe6080604052600436106100435760003560e01c80633ccfd60b1461008a578063580aa5d3146100a15780638995bc2e146100cc578063dd9eba57146100f757610085565b36610085577f11bc892157fdd60df9ebcf9d5ad60ca17a129ed098afb31c5a34ebe3489ab15e33303460405161007b93929190610527565b60405180910390a1005b600080fd5b34801561009657600080fd5b5061009f610124565b005b3480156100ad57600080fd5b506100b6610256565b6040516100c391906105dd565b60405180910390f35b3480156100d857600080fd5b506100e161025e565b6040516100ee91906104d5565b60405180910390f35b34801561010357600080fd5b5061010c610287565b60405161011b93929190610571565b60405180910390f35b60008054906101000a900473ffffffffffffffffffffffffffffffffffffffff1673ffffffffffffffffffffffffffffffffffffffff163373ffffffffffffffffffffffffffffffffffffffff16146101b2576040517f08c379a00000000000000000000000000000000000000000000000000000000081526004016101a9906105bd565b60405180910390fd5b3373ffffffffffffffffffffffffffffffffffffffff166108fc479081150290604051600060405180830381858888f193505050501580156101f8573d6000803e3d6000fd5b507f6337ed398c0e8467698c581374fdce4db14922df487b5a39483079f5f59b60a43060008054906101000a900473ffffffffffffffffffffffffffffffffffffffff164760405161024c939291906104f0565b60405180910390a1565b600047905090565b60008060009054906101000a900473ffffffffffffffffffffffffffffffffffffffff16905090565b60608060606001805461029990610683565b80601f01602080910402602001604051908101604052809291908181526020018280546102c590610683565b80156103125780601f106102e757610100808354040283529160200191610312565b820191906000526020600020905b8154815290600101906020018083116102f557829003601f168201915b505050505092506002805461032690610683565b80601f016020809104026020016040519081016040528092919081815260200182805461035290610683565b801561039f5780601f106103745761010080835404028352916020019161039f565b820191906000526020600020905b81548152906001019060200180831161038257829003601f168201915b50505050509150600380546103b390610683565b80601f01602080910402602001604051908101604052809291908181526020018280546103df90610683565b801561042c5780601f106104015761010080835404028352916020019161042c565b820191906000526020600020905b81548152906001019060200180831161040f57829003601f168201915b50505050509050909192565b61044181610614565b82525050565b6000610452826105f8565b61045c8185610603565b935061046c818560208601610650565b610475816106e4565b840191505092915050565b600061048d601883610603565b9150610498826106f5565b602082019050919050565b60006104b0602883610603565b91506104bb8261071e565b604082019050919050565b6104cf81610646565b82525050565b60006020820190506104ea6000830184610438565b92915050565b60006060820190506105056000830186610438565b6105126020830185610438565b61051f60408301846104c6565b949350505050565b600060808201905061053c6000830186610438565b6105496020830185610438565b61055660408301846104c6565b818103606083015261056781610480565b9050949350505050565b6000606082019050818103600083015261058b8186610447565b9050818103602083015261059f8185610447565b905081810360408301526105b38184610447565b9050949350505050565b600060208201905081810360008301526105d6816104a3565b9050919050565b60006020820190506105f260008301846104c6565b92915050565b600081519050919050565b600082825260208201905092915050565b600061061f82610626565b9050919050565b600073ffffffffffffffffffffffffffffffffffffffff82169050919050565b6000819050919050565b60005b8381101561066e578082015181840152602081019050610653565b8381111561067d576000848401525b50505050565b6000600282049050600182168061069b57607f821691505b602082108114156106af576106ae6106b5565b5b50919050565b7f4e487b7100000000000000000000000000000000000000000000000000000000600052602260045260246000fd5b6000601f19601f8301169050919050565b7f546f6b656e2072656365697665642066726f6d20506f6f6c0000000000000000600082015250565b7f596f75206d757374206265207265676973746572656420746f2077697468647260008201527f61772066756e647300000000000000000000000000000000000000000000000060208201525056fea2646970667358221220dd66dc7b5ca3bfd6f1f78cc4f9792d3f1d570cec87616dc9551f3a51afa6ea7064736f6c63430008040033",
  "linkReferences": {},
  "deployedLinkReferences": {}
}