{
  "_format": "hh-sol-artifact-1",
  "contractName": "ProjectContract",
  "sourceName": "contracts/ProjectContract.sol",
  "abi": [
    {
      "inputs": [
        {
          "internalType": "address",
          "name": "_owner",
          "type": "address"
        },
        {
          "internalType": "string",
          "name": "_name",
          "type": "string"
        },
        {
          "internalType": "string",
          "name": "_description",
          "type": "string"
        },
        {
          "internalType": "string",
          "name": "_link",
          "type": "string"
        },
        {
          "internalType": "string",
          "name": "_unit",
          "type": "string"
        },
        {
          "internalType": "int256",
          "name": "_valueRequired",
          "type": "int256"
        }
      ],
      "stateMutability": "nonpayable",
      "type": "constructor"
    },
    {
      "anonymous": false,
      "inputs": [
        {
          "indexed": false,
          "internalType": "address",
          "name": "from",
          "type": "address"
        },
        {
          "indexed": false,
          "internalType": "address",
          "name": "to",
          "type": "address"
        },
        {
          "indexed": false,
          "internalType": "string",
          "name": "message",
          "type": "string"
        }
      ],
      "name": "InternalError",
      "type": "event"
    },
    {
      "anonymous": false,
      "inputs": [
        {
          "indexed": false,
          "internalType": "address",
          "name": "from",
          "type": "address"
        },
        {
          "indexed": false,
          "internalType": "address",
          "name": "to",
          "type": "address"
        },
        {
          "indexed": false,
          "internalType": "uint256",
          "name": "amount",
          "type": "uint256"
        }
      ],
      "name": "MinimumTokenRequired",
      "type": "event"
    },
    {
      "anonymous": false,
      "inputs": [
        {
          "indexed": false,
          "internalType": "address",
          "name": "partyAddress",
          "type": "address"
        },
        {
          "indexed": false,
          "internalType": "address",
          "name": "contractAddress",
          "type": "address"
        },
        {
          "indexed": false,
          "internalType": "uint256",
          "name": "partyCount",
          "type": "uint256"
        },
        {
          "indexed": false,
          "internalType": "string",
          "name": "name",
          "type": "string"
        },
        {
          "indexed": false,
          "internalType": "string",
          "name": "description",
          "type": "string"
        },
        {
          "indexed": false,
          "internalType": "string",
          "name": "link",
          "type": "string"
        },
        {
          "indexed": false,
          "internalType": "string",
          "name": "unit",
          "type": "string"
        },
        {
          "indexed": false,
          "internalType": "int256",
          "name": "valueRequired",
          "type": "int256"
        }
      ],
      "name": "NewProjectRegistered",
      "type": "event"
    },
    {
      "anonymous": false,
      "inputs": [
        {
          "indexed": false,
          "internalType": "address",
          "name": "from",
          "type": "address"
        },
        {
          "indexed": false,
          "internalType": "address",
          "name": "to",
          "type": "address"
        },
        {
          "indexed": false,
          "internalType": "uint256",
          "name": "amount",
          "type": "uint256"
        },
        {
          "indexed": false,
          "internalType": "string",
          "name": "message",
          "type": "string"
        }
      ],
      "name": "ReceivedToken",
      "type": "event"
    },
    {
      "anonymous": false,
      "inputs": [
        {
          "indexed": false,
          "internalType": "address",
          "name": "from",
          "type": "address"
        },
        {
          "indexed": false,
          "internalType": "address",
          "name": "to",
          "type": "address"
        },
        {
          "indexed": false,
          "internalType": "uint256",
          "name": "amount",
          "type": "uint256"
        }
      ],
      "name": "TokensWithdrawn",
      "type": "event"
    },
    {
      "inputs": [],
      "name": "getPartyAddress",
      "outputs": [
        {
          "internalType": "address",
          "name": "",
          "type": "address"
        }
      ],
      "stateMutability": "view",
      "type": "function"
    },
    {
      "inputs": [],
      "name": "getProjectContractBalance",
      "outputs": [
        {
          "internalType": "uint256",
          "name": "",
          "type": "uint256"
        }
      ],
      "stateMutability": "view",
      "type": "function"
    },
    {
      "inputs": [],
      "name": "getProjectDetails",
      "outputs": [
        {
          "internalType": "string",
          "name": "_name",
          "type": "string"
        },
        {
          "internalType": "string",
          "name": "_description",
          "type": "string"
        },
        {
          "internalType": "string",
          "name": "_link",
          "type": "string"
        },
        {
          "internalType": "string",
          "name": "_unit",
          "type": "string"
        },
        {
          "internalType": "int256",
          "name": "_valueRequired",
          "type": "int256"
        }
      ],
      "stateMutability": "view",
      "type": "function"
    },
    {
      "inputs": [],
      "name": "withdraw",
      "outputs": [],
      "stateMutability": "nonpayable",
      "type": "function"
    },
    {
      "stateMutability": "payable",
      "type": "receive"
    }
  ],
  "bytecode": "0x60806040523480156200001157600080fd5b5060405162000da238038062000da283398181016040528101906200003791906200023e565b856000806101000a81548173ffffffffffffffffffffffffffffffffffffffff021916908373ffffffffffffffffffffffffffffffffffffffff16021790555084600190805190602001906200008f929190620000ee565b508360029080519060200190620000a8929190620000ee565b508260039080519060200190620000c1929190620000ee565b508160049080519060200190620000da929190620000ee565b50806005819055505050505050506200051a565b828054620000fc906200040b565b90600052602060002090601f0160209004810192826200012057600085556200016c565b82601f106200013b57805160ff19168380011785556200016c565b828001600101855582156200016c579182015b828111156200016b5782518255916020019190600101906200014e565b5b5090506200017b91906200017f565b5090565b5b808211156200019a57600081600090555060010162000180565b5090565b6000620001b5620001af8462000361565b62000338565b905082815260208101848484011115620001ce57600080fd5b620001db848285620003d5565b509392505050565b600081519050620001f481620004e6565b92915050565b6000815190506200020b8162000500565b92915050565b600082601f8301126200022357600080fd5b8151620002358482602086016200019e565b91505092915050565b60008060008060008060c087890312156200025857600080fd5b60006200026889828a01620001e3565b965050602087015167ffffffffffffffff8111156200028657600080fd5b6200029489828a0162000211565b955050604087015167ffffffffffffffff811115620002b257600080fd5b620002c089828a0162000211565b945050606087015167ffffffffffffffff811115620002de57600080fd5b620002ec89828a0162000211565b935050608087015167ffffffffffffffff8111156200030a57600080fd5b6200031889828a0162000211565b92505060a06200032b89828a01620001fa565b9150509295509295509295565b60006200034462000357565b905062000352828262000441565b919050565b6000604051905090565b600067ffffffffffffffff8211156200037f576200037e620004a6565b5b6200038a82620004d5565b9050602081019050919050565b6000620003a482620003b5565b9050919050565b6000819050919050565b600073ffffffffffffffffffffffffffffffffffffffff82169050919050565b60005b83811015620003f5578082015181840152602081019050620003d8565b8381111562000405576000848401525b50505050565b600060028204905060018216806200042457607f821691505b602082108114156200043b576200043a62000477565b5b50919050565b6200044c82620004d5565b810181811067ffffffffffffffff821117156200046e576200046d620004a6565b5b80604052505050565b7f4e487b7100000000000000000000000000000000000000000000000000000000600052602260045260246000fd5b7f4e487b7100000000000000000000000000000000000000000000000000000000600052604160045260246000fd5b6000601f19601f8301169050919050565b620004f18162000397565b8114620004fd57600080fd5b50565b6200050b81620003ab565b81146200051757600080fd5b50565b610878806200052a6000396000f3fe6080604052600436106100435760003560e01c8063028e136c1461008a5780633ccfd60b146100b55780638995bc2e146100cc578063ff3a9c7e146100f757610085565b36610085577f11bc892157fdd60df9ebcf9d5ad60ca17a129ed098afb31c5a34ebe3489ab15e33303460405161007b939291906105cf565b60405180910390a1005b600080fd5b34801561009657600080fd5b5061009f610126565b6040516100ac91906106a8565b60405180910390f35b3480156100c157600080fd5b506100ca61012e565b005b3480156100d857600080fd5b506100e1610260565b6040516100ee919061057d565b60405180910390f35b34801561010357600080fd5b5061010c610289565b60405161011d959493929190610619565b60405180910390f35b600047905090565b60008054906101000a900473ffffffffffffffffffffffffffffffffffffffff1673ffffffffffffffffffffffffffffffffffffffff163373ffffffffffffffffffffffffffffffffffffffff16146101bc576040517f08c379a00000000000000000000000000000000000000000000000000000000081526004016101b390610688565b60405180910390fd5b3373ffffffffffffffffffffffffffffffffffffffff166108fc479081150290604051600060405180830381858888f19350505050158015610202573d6000803e3d6000fd5b507f6337ed398c0e8467698c581374fdce4db14922df487b5a39483079f5f59b60a43060008054906101000a900473ffffffffffffffffffffffffffffffffffffffff164760405161025693929190610598565b60405180910390a1565b60008060009054906101000a900473ffffffffffffffffffffffffffffffffffffffff16905090565b60608060608060006001805461029e90610758565b80601f01602080910402602001604051908101604052809291908181526020018280546102ca90610758565b80156103175780601f106102ec57610100808354040283529160200191610317565b820191906000526020600020905b8154815290600101906020018083116102fa57829003601f168201915b505050505094506002805461032b90610758565b80601f016020809104026020016040519081016040528092919081815260200182805461035790610758565b80156103a45780601f10610379576101008083540402835291602001916103a4565b820191906000526020600020905b81548152906001019060200180831161038757829003601f168201915b50505050509350600380546103b890610758565b80601f01602080910402602001604051908101604052809291908181526020018280546103e490610758565b80156104315780601f1061040657610100808354040283529160200191610431565b820191906000526020600020905b81548152906001019060200180831161041457829003601f168201915b505050505092506004805461044590610758565b80601f016020809104026020016040519081016040528092919081815260200182805461047190610758565b80156104be5780601f10610493576101008083540402835291602001916104be565b820191906000526020600020905b8154815290600101906020018083116104a157829003601f168201915b5050505050915060055490509091929394565b6104da816106df565b82525050565b6104e9816106f1565b82525050565b60006104fa826106c3565b61050481856106ce565b9350610514818560208601610725565b61051d816107b9565b840191505092915050565b60006105356018836106ce565b9150610540826107ca565b602082019050919050565b60006105586028836106ce565b9150610563826107f3565b604082019050919050565b6105778161071b565b82525050565b600060208201905061059260008301846104d1565b92915050565b60006060820190506105ad60008301866104d1565b6105ba60208301856104d1565b6105c7604083018461056e565b949350505050565b60006080820190506105e460008301866104d1565b6105f160208301856104d1565b6105fe604083018461056e565b818103606083015261060f81610528565b9050949350505050565b600060a082019050818103600083015261063381886104ef565b9050818103602083015261064781876104ef565b9050818103604083015261065b81866104ef565b9050818103606083015261066f81856104ef565b905061067e60808301846104e0565b9695505050505050565b600060208201905081810360008301526106a18161054b565b9050919050565b60006020820190506106bd600083018461056e565b92915050565b600081519050919050565b600082825260208201905092915050565b60006106ea826106fb565b9050919050565b6000819050919050565b600073ffffffffffffffffffffffffffffffffffffffff82169050919050565b6000819050919050565b60005b83811015610743578082015181840152602081019050610728565b83811115610752576000848401525b50505050565b6000600282049050600182168061077057607f821691505b602082108114156107845761078361078a565b5b50919050565b7f4e487b7100000000000000000000000000000000000000000000000000000000600052602260045260246000fd5b6000601f19601f8301169050919050565b7f546f6b656e2072656365697665642066726f6d20506f6f6c0000000000000000600082015250565b7f596f75206d757374206265207265676973746572656420746f2077697468647260008201527f61772066756e647300000000000000000000000000000000000000000000000060208201525056fea2646970667358221220a175692678f358351a6037aed1580057877d004d4fd39ecc43bf79e9257e71b964736f6c63430008040033",
  "linkReferences": {},
  "deployedLinkReferences": {}
}