{
  "_format": "hh-sol-artifact-1",
  "contractName": "ProjectPool",
  "sourceName": "contracts/ProjectPool.sol",
  "abi": [
    {
      "inputs": [],
      "stateMutability": "nonpayable",
      "type": "constructor"
    },
    {
      "anonymous": false,
      "inputs": [
        {
          "indexed": false,
          "internalType": "address",
          "name": "from",
          "type": "address"
        },
        {
          "indexed": false,
          "internalType": "address",
          "name": "to",
          "type": "address"
        },
        {
          "indexed": false,
          "internalType": "string",
          "name": "message",
          "type": "string"
        }
      ],
      "name": "InternalError",
      "type": "event"
    },
    {
      "anonymous": false,
      "inputs": [
        {
          "indexed": false,
          "internalType": "address",
          "name": "from",
          "type": "address"
        },
        {
          "indexed": false,
          "internalType": "address",
          "name": "to",
          "type": "address"
        },
        {
          "indexed": false,
          "internalType": "uint256",
          "name": "amount",
          "type": "uint256"
        }
      ],
      "name": "MinimumTokenRequired",
      "type": "event"
    },
    {
      "anonymous": false,
      "inputs": [
        {
          "indexed": false,
          "internalType": "address",
          "name": "partyAddress",
          "type": "address"
        },
        {
          "indexed": false,
          "internalType": "address",
          "name": "contractAddress",
          "type": "address"
        },
        {
          "indexed": false,
          "internalType": "uint256",
          "name": "partyCount",
          "type": "uint256"
        },
        {
          "indexed": false,
          "internalType": "string",
          "name": "name",
          "type": "string"
        },
        {
          "indexed": false,
          "internalType": "string",
          "name": "description",
          "type": "string"
        },
        {
          "indexed": false,
          "internalType": "string",
          "name": "link",
          "type": "string"
        },
        {
          "indexed": false,
          "internalType": "string",
          "name": "unit",
          "type": "string"
        },
        {
          "indexed": false,
          "internalType": "int256",
          "name": "valueRequired",
          "type": "int256"
        }
      ],
      "name": "NewProjectRegistered",
      "type": "event"
    },
    {
      "anonymous": false,
      "inputs": [
        {
          "indexed": false,
          "internalType": "address",
          "name": "from",
          "type": "address"
        },
        {
          "indexed": false,
          "internalType": "address",
          "name": "to",
          "type": "address"
        },
        {
          "indexed": false,
          "internalType": "uint256",
          "name": "amount",
          "type": "uint256"
        },
        {
          "indexed": false,
          "internalType": "string",
          "name": "message",
          "type": "string"
        }
      ],
      "name": "ReceivedToken",
      "type": "event"
    },
    {
      "anonymous": false,
      "inputs": [
        {
          "indexed": false,
          "internalType": "address",
          "name": "from",
          "type": "address"
        },
        {
          "indexed": false,
          "internalType": "address",
          "name": "to",
          "type": "address"
        },
        {
          "indexed": false,
          "internalType": "uint256",
          "name": "amount",
          "type": "uint256"
        }
      ],
      "name": "TokensWithdrawn",
      "type": "event"
    },
    {
      "inputs": [
        {
          "internalType": "address",
          "name": "_address",
          "type": "address"
        },
        {
          "internalType": "string",
          "name": "name",
          "type": "string"
        },
        {
          "internalType": "string",
          "name": "description",
          "type": "string"
        },
        {
          "internalType": "string",
          "name": "link",
          "type": "string"
        },
        {
          "internalType": "string",
          "name": "unit",
          "type": "string"
        },
        {
          "internalType": "int256",
          "name": "valueRequired",
          "type": "int256"
        }
      ],
      "name": "addNewProject",
      "outputs": [
        {
          "internalType": "address",
          "name": "",
          "type": "address"
        }
      ],
      "stateMutability": "nonpayable",
      "type": "function"
    },
    {
      "inputs": [
        {
          "internalType": "uint256",
          "name": "index",
          "type": "uint256"
        },
        {
          "internalType": "string",
          "name": "unit",
          "type": "string"
        }
      ],
      "name": "donate",
      "outputs": [
        {
          "internalType": "bool",
          "name": "",
          "type": "bool"
        }
      ],
      "stateMutability": "payable",
      "type": "function"
    },
    {
      "inputs": [
        {
          "internalType": "uint256",
          "name": "index",
          "type": "uint256"
        }
      ],
      "name": "getContractAddress",
      "outputs": [
        {
          "internalType": "address",
          "name": "",
          "type": "address"
        }
      ],
      "stateMutability": "view",
      "type": "function"
    },
    {
      "inputs": [],
      "name": "getCurrentContractAddress",
      "outputs": [
        {
          "internalType": "address",
          "name": "",
          "type": "address"
        }
      ],
      "stateMutability": "view",
      "type": "function"
    },
    {
      "inputs": [],
      "name": "getCurrentContractBalance",
      "outputs": [
        {
          "internalType": "uint256",
          "name": "",
          "type": "uint256"
        }
      ],
      "stateMutability": "view",
      "type": "function"
    },
    {
      "inputs": [
        {
          "internalType": "uint256",
          "name": "index",
          "type": "uint256"
        }
      ],
      "name": "getProjectAddress",
      "outputs": [
        {
          "internalType": "address",
          "name": "",
          "type": "address"
        }
      ],
      "stateMutability": "view",
      "type": "function"
    },
    {
      "inputs": [
        {
          "internalType": "uint256",
          "name": "index",
          "type": "uint256"
        }
      ],
      "name": "getProjectBalance",
      "outputs": [
        {
          "internalType": "uint256",
          "name": "projectBalance",
          "type": "uint256"
        }
      ],
      "stateMutability": "view",
      "type": "function"
    },
    {
      "inputs": [
        {
          "internalType": "uint256",
          "name": "index",
          "type": "uint256"
        }
      ],
      "name": "getProjectDetails",
      "outputs": [
        {
          "internalType": "string",
          "name": "name",
          "type": "string"
        },
        {
          "internalType": "string",
          "name": "description",
          "type": "string"
        },
        {
          "internalType": "string",
          "name": "link",
          "type": "string"
        },
        {
          "internalType": "string",
          "name": "unit",
          "type": "string"
        },
        {
          "internalType": "int256",
          "name": "valueRequired",
          "type": "int256"
        }
      ],
      "stateMutability": "view",
      "type": "function"
    },
    {
      "inputs": [],
      "name": "getTotalProjects",
      "outputs": [
        {
          "internalType": "uint256",
          "name": "",
          "type": "uint256"
        }
      ],
      "stateMutability": "view",
      "type": "function"
    },
    {
      "inputs": [
        {
          "internalType": "uint256",
          "name": "",
          "type": "uint256"
        }
      ],
      "name": "projects",
      "outputs": [
        {
          "internalType": "contract ProjectContract",
          "name": "",
          "type": "address"
        }
      ],
      "stateMutability": "view",
      "type": "function"
    },
    {
      "inputs": [],
      "name": "totalEntries",
      "outputs": [
        {
          "internalType": "uint256",
          "name": "",
          "type": "uint256"
        }
      ],
      "stateMutability": "view",
      "type": "function"
    }
  ],
  "bytecode": "0x608060405234801561001057600080fd5b5060008081905550612233806100276000396000f3fe608060405260043610620000aa5760003560e01c80637fef036e116200006d5780637fef036e14620001f3578063812739a214620002235780638d59d1f11462000253578063aefa7d981462000289578063c6fd102014620002cd578063e00fe3e414620002fd57620000aa565b8063107046bd14620000af5780634ca3e9b814620000f35780635f8439e314620001375780636d790081146200017f5780637f90757d14620001af575b600080fd5b348015620000bc57600080fd5b50620000db6004803603810190620000d5919062000daf565b62000341565b604051620000ea9190620010ca565b60405180910390f35b3480156200010057600080fd5b506200011f600480360381019062000119919062000daf565b62000381565b6040516200012e919062000f09565b60405180910390f35b3480156200014457600080fd5b506200016360048036038101906200015d919062000daf565b62000476565b604051620001769594939291906200112b565b60405180910390f35b3480156200018c57600080fd5b506200019762000582565b604051620001a69190620011a4565b60405180910390f35b348015620001bc57600080fd5b50620001db6004803603810190620001d5919062000daf565b6200058a565b604051620001ea9190620011a4565b60405180910390f35b3480156200020057600080fd5b506200020b62000639565b6040516200021a9190620011a4565b60405180910390f35b3480156200023057600080fd5b506200023b6200063f565b6040516200024a9190620011a4565b60405180910390f35b6200027160048036038101906200026b919062000ddb565b62000648565b604051620002809190620010ad565b60405180910390f35b3480156200029657600080fd5b50620002b56004803603810190620002af919062000daf565b62000799565b604051620002c4919062000f09565b60405180910390f35b348015620002da57600080fd5b50620002e56200080d565b604051620002f4919062000f09565b60405180910390f35b3480156200030a57600080fd5b5062000329600480360381019062000323919062000bcf565b62000815565b60405162000338919062000f09565b60405180910390f35b600181815481106200035257600080fd5b906000526020600020016000915054906101000a900473ffffffffffffffffffffffffffffffffffffffff1681565b60008060018381548110620003bf577f4e487b7100000000000000000000000000000000000000000000000000000000600052603260045260246000fd5b9060005260206000200160009054906101000a900473ffffffffffffffffffffffffffffffffffffffff1690508073ffffffffffffffffffffffffffffffffffffffff16638995bc2e6040518163ffffffff1660e01b815260040160206040518083038186803b1580156200043357600080fd5b505afa15801562000448573d6000803e3d6000fd5b505050506040513d601f19601f820116820180604052508101906200046e919062000ba3565b915050919050565b60608060608060008060018781548110620004ba577f4e487b7100000000000000000000000000000000000000000000000000000000600052603260045260246000fd5b9060005260206000200160009054906101000a900473ffffffffffffffffffffffffffffffffffffffff1690508073ffffffffffffffffffffffffffffffffffffffff1663ff3a9c7e6040518163ffffffff1660e01b815260040160006040518083038186803b1580156200052e57600080fd5b505afa15801562000543573d6000803e3d6000fd5b505050506040513d6000823e3d601f19601f820116820180604052508101906200056e919062000cc9565b955095509550955095505091939590929450565b600047905090565b60003073ffffffffffffffffffffffffffffffffffffffff1663aefa7d98836040518263ffffffff1660e01b8152600401620005c79190620011a4565b60206040518083038186803b158015620005e057600080fd5b505afa158015620005f5573d6000803e3d6000fd5b505050506040513d601f19601f820116820180604052508101906200061b919062000ba3565b73ffffffffffffffffffffffffffffffffffffffff16319050919050565b60005481565b60008054905090565b60007f11bc892157fdd60df9ebcf9d5ad60ca17a129ed098afb31c5a34ebe3489ab15e3330348560405162000681949392919062000f26565b60405180910390a160003073ffffffffffffffffffffffffffffffffffffffff1663aefa7d98856040518263ffffffff1660e01b8152600401620006c69190620011a4565b60206040518083038186803b158015620006df57600080fd5b505afa158015620006f4573d6000803e3d6000fd5b505050506040513d601f19601f820116820180604052508101906200071a919062000ba3565b905060008173ffffffffffffffffffffffffffffffffffffffff1634604051620007449062000ef2565b60006040518083038185875af1925050503d806000811462000783576040519150601f19603f3d011682016040523d82523d6000602084013e62000788565b606091505b505080915050809250505092915050565b60008060018381548110620007d7577f4e487b7100000000000000000000000000000000000000000000000000000000600052603260045260246000fd5b9060005260206000200160009054906101000a900473ffffffffffffffffffffffffffffffffffffffff16905080915050919050565b600030905090565b6000808787878787876040516200082c9062000a3e565b6200083d9695949392919062001024565b604051809103906000f0801580156200085a573d6000803e3d6000fd5b5090506001819080600181540180825580915050600190039060005260206000200160009091909190916101000a81548173ffffffffffffffffffffffffffffffffffffffff021916908373ffffffffffffffffffffffffffffffffffffffff1602179055506001600054620008d1919062001247565b6000819055507f9f782a8bf3c3018bd8f429648550ab82a1d73368485490db528c5a84792c0d2588826000548a8a8a8a8a6040516200091898979695949392919062000f7a565b60405180910390a1620009646040518060400160405280600b81526020017f50617274792041646465640000000000000000000000000000000000000000008152508260005462000972565b809150509695505050505050565b62000a108383836040516024016200098d93929190620010e7565b6040516020818303038152906040527f07c81217000000000000000000000000000000000000000000000000000000007bffffffffffffffffffffffffffffffffffffffffffffffffffffffff19166020820180517bffffffffffffffffffffffffffffffffffffffffffffffffffffffff838183161783525050505062000a15565b505050565b60008151905060006a636f6e736f6c652e6c6f679050602083016000808483855afa5050505050565b610da2806200145c83390190565b600062000a6362000a5d84620011ea565b620011c1565b90508281526020810184848401111562000a7c57600080fd5b62000a8984828562001320565b509392505050565b600062000aa862000aa284620011ea565b620011c1565b90508281526020810184848401111562000ac157600080fd5b62000ace8482856200132f565b509392505050565b60008135905062000ae7816200140d565b92915050565b60008151905062000afe816200140d565b92915050565b60008135905062000b158162001427565b92915050565b60008151905062000b2c8162001427565b92915050565b600082601f83011262000b4457600080fd5b813562000b5684826020860162000a4c565b91505092915050565b600082601f83011262000b7157600080fd5b815162000b8384826020860162000a91565b91505092915050565b60008135905062000b9d8162001441565b92915050565b60006020828403121562000bb657600080fd5b600062000bc68482850162000aed565b91505092915050565b60008060008060008060c0878903121562000be957600080fd5b600062000bf989828a0162000ad6565b965050602087013567ffffffffffffffff81111562000c1757600080fd5b62000c2589828a0162000b32565b955050604087013567ffffffffffffffff81111562000c4357600080fd5b62000c5189828a0162000b32565b945050606087013567ffffffffffffffff81111562000c6f57600080fd5b62000c7d89828a0162000b32565b935050608087013567ffffffffffffffff81111562000c9b57600080fd5b62000ca989828a0162000b32565b92505060a062000cbc89828a0162000b04565b9150509295509295509295565b600080600080600060a0868803121562000ce257600080fd5b600086015167ffffffffffffffff81111562000cfd57600080fd5b62000d0b8882890162000b5f565b955050602086015167ffffffffffffffff81111562000d2957600080fd5b62000d378882890162000b5f565b945050604086015167ffffffffffffffff81111562000d5557600080fd5b62000d638882890162000b5f565b935050606086015167ffffffffffffffff81111562000d8157600080fd5b62000d8f8882890162000b5f565b925050608062000da28882890162000b1b565b9150509295509295909350565b60006020828403121562000dc257600080fd5b600062000dd28482850162000b8c565b91505092915050565b6000806040838503121562000def57600080fd5b600062000dff8582860162000b8c565b925050602083013567ffffffffffffffff81111562000e1d57600080fd5b62000e2b8582860162000b32565b9150509250929050565b62000e4081620012a4565b82525050565b62000e5181620012b8565b82525050565b62000e6281620012f8565b82525050565b62000e7381620012c4565b82525050565b600062000e868262001220565b62000e92818562001236565b935062000ea48185602086016200132f565b62000eaf81620013f9565b840191505092915050565b600062000ec96000836200122b565b915062000ed6826200140a565b600082019050919050565b62000eec81620012ee565b82525050565b600062000eff8262000eba565b9150819050919050565b600060208201905062000f20600083018462000e35565b92915050565b600060808201905062000f3d600083018762000e35565b62000f4c602083018662000e35565b62000f5b604083018562000ee1565b818103606083015262000f6f818462000e79565b905095945050505050565b60006101008201905062000f92600083018b62000e35565b62000fa1602083018a62000e35565b62000fb0604083018962000ee1565b818103606083015262000fc4818862000e79565b9050818103608083015262000fda818762000e79565b905081810360a083015262000ff0818662000e79565b905081810360c083015262001006818562000e79565b90506200101760e083018462000e68565b9998505050505050505050565b600060c0820190506200103b600083018962000e35565b81810360208301526200104f818862000e79565b9050818103604083015262001065818762000e79565b905081810360608301526200107b818662000e79565b9050818103608083015262001091818562000e79565b9050620010a260a083018462000e68565b979650505050505050565b6000602082019050620010c4600083018462000e46565b92915050565b6000602082019050620010e1600083018462000e57565b92915050565b6000606082019050818103600083015262001103818662000e79565b905062001114602083018562000e35565b62001123604083018462000ee1565b949350505050565b600060a082019050818103600083015262001147818862000e79565b905081810360208301526200115d818762000e79565b9050818103604083015262001173818662000e79565b9050818103606083015262001189818562000e79565b90506200119a608083018462000e68565b9695505050505050565b6000602082019050620011bb600083018462000ee1565b92915050565b6000620011cd620011e0565b9050620011db828262001365565b919050565b6000604051905090565b600067ffffffffffffffff821115620012085762001207620013ca565b5b6200121382620013f9565b9050602081019050919050565b600081519050919050565b600081905092915050565b600082825260208201905092915050565b60006200125482620012ee565b91506200126183620012ee565b9250827fffffffffffffffffffffffffffffffffffffffffffffffffffffffffffffffff038211156200129957620012986200139b565b5b828201905092915050565b6000620012b182620012ce565b9050919050565b60008115159050919050565b6000819050919050565b600073ffffffffffffffffffffffffffffffffffffffff82169050919050565b6000819050919050565b600062001305826200130c565b9050919050565b60006200131982620012ce565b9050919050565b82818337600083830152505050565b60005b838110156200134f57808201518184015260208101905062001332565b838111156200135f576000848401525b50505050565b6200137082620013f9565b810181811067ffffffffffffffff82111715620013925762001391620013ca565b5b80604052505050565b7f4e487b7100000000000000000000000000000000000000000000000000000000600052601160045260246000fd5b7f4e487b7100000000000000000000000000000000000000000000000000000000600052604160045260246000fd5b6000601f19601f8301169050919050565b50565b6200141881620012a4565b81146200142457600080fd5b50565b6200143281620012c4565b81146200143e57600080fd5b50565b6200144c81620012ee565b81146200145857600080fd5b5056fe60806040523480156200001157600080fd5b5060405162000da238038062000da283398181016040528101906200003791906200023e565b856000806101000a81548173ffffffffffffffffffffffffffffffffffffffff021916908373ffffffffffffffffffffffffffffffffffffffff16021790555084600190805190602001906200008f929190620000ee565b508360029080519060200190620000a8929190620000ee565b508260039080519060200190620000c1929190620000ee565b508160049080519060200190620000da929190620000ee565b50806005819055505050505050506200051a565b828054620000fc906200040b565b90600052602060002090601f0160209004810192826200012057600085556200016c565b82601f106200013b57805160ff19168380011785556200016c565b828001600101855582156200016c579182015b828111156200016b5782518255916020019190600101906200014e565b5b5090506200017b91906200017f565b5090565b5b808211156200019a57600081600090555060010162000180565b5090565b6000620001b5620001af8462000361565b62000338565b905082815260208101848484011115620001ce57600080fd5b620001db848285620003d5565b509392505050565b600081519050620001f481620004e6565b92915050565b6000815190506200020b8162000500565b92915050565b600082601f8301126200022357600080fd5b8151620002358482602086016200019e565b91505092915050565b60008060008060008060c087890312156200025857600080fd5b60006200026889828a01620001e3565b965050602087015167ffffffffffffffff8111156200028657600080fd5b6200029489828a0162000211565b955050604087015167ffffffffffffffff811115620002b257600080fd5b620002c089828a0162000211565b945050606087015167ffffffffffffffff811115620002de57600080fd5b620002ec89828a0162000211565b935050608087015167ffffffffffffffff8111156200030a57600080fd5b6200031889828a0162000211565b92505060a06200032b89828a01620001fa565b9150509295509295509295565b60006200034462000357565b905062000352828262000441565b919050565b6000604051905090565b600067ffffffffffffffff8211156200037f576200037e620004a6565b5b6200038a82620004d5565b9050602081019050919050565b6000620003a482620003b5565b9050919050565b6000819050919050565b600073ffffffffffffffffffffffffffffffffffffffff82169050919050565b60005b83811015620003f5578082015181840152602081019050620003d8565b8381111562000405576000848401525b50505050565b600060028204905060018216806200042457607f821691505b602082108114156200043b576200043a62000477565b5b50919050565b6200044c82620004d5565b810181811067ffffffffffffffff821117156200046e576200046d620004a6565b5b80604052505050565b7f4e487b7100000000000000000000000000000000000000000000000000000000600052602260045260246000fd5b7f4e487b7100000000000000000000000000000000000000000000000000000000600052604160045260246000fd5b6000601f19601f8301169050919050565b620004f18162000397565b8114620004fd57600080fd5b50565b6200050b81620003ab565b81146200051757600080fd5b50565b610878806200052a6000396000f3fe6080604052600436106100435760003560e01c8063028e136c1461008a5780633ccfd60b146100b55780638995bc2e146100cc578063ff3a9c7e146100f757610085565b36610085577f11bc892157fdd60df9ebcf9d5ad60ca17a129ed098afb31c5a34ebe3489ab15e33303460405161007b939291906105cf565b60405180910390a1005b600080fd5b34801561009657600080fd5b5061009f610126565b6040516100ac91906106a8565b60405180910390f35b3480156100c157600080fd5b506100ca61012e565b005b3480156100d857600080fd5b506100e1610260565b6040516100ee919061057d565b60405180910390f35b34801561010357600080fd5b5061010c610289565b60405161011d959493929190610619565b60405180910390f35b600047905090565b60008054906101000a900473ffffffffffffffffffffffffffffffffffffffff1673ffffffffffffffffffffffffffffffffffffffff163373ffffffffffffffffffffffffffffffffffffffff16146101bc576040517f08c379a00000000000000000000000000000000000000000000000000000000081526004016101b390610688565b60405180910390fd5b3373ffffffffffffffffffffffffffffffffffffffff166108fc479081150290604051600060405180830381858888f19350505050158015610202573d6000803e3d6000fd5b507f6337ed398c0e8467698c581374fdce4db14922df487b5a39483079f5f59b60a43060008054906101000a900473ffffffffffffffffffffffffffffffffffffffff164760405161025693929190610598565b60405180910390a1565b60008060009054906101000a900473ffffffffffffffffffffffffffffffffffffffff16905090565b60608060608060006001805461029e90610758565b80601f01602080910402602001604051908101604052809291908181526020018280546102ca90610758565b80156103175780601f106102ec57610100808354040283529160200191610317565b820191906000526020600020905b8154815290600101906020018083116102fa57829003601f168201915b505050505094506002805461032b90610758565b80601f016020809104026020016040519081016040528092919081815260200182805461035790610758565b80156103a45780601f10610379576101008083540402835291602001916103a4565b820191906000526020600020905b81548152906001019060200180831161038757829003601f168201915b50505050509350600380546103b890610758565b80601f01602080910402602001604051908101604052809291908181526020018280546103e490610758565b80156104315780601f1061040657610100808354040283529160200191610431565b820191906000526020600020905b81548152906001019060200180831161041457829003601f168201915b505050505092506004805461044590610758565b80601f016020809104026020016040519081016040528092919081815260200182805461047190610758565b80156104be5780601f10610493576101008083540402835291602001916104be565b820191906000526020600020905b8154815290600101906020018083116104a157829003601f168201915b5050505050915060055490509091929394565b6104da816106df565b82525050565b6104e9816106f1565b82525050565b60006104fa826106c3565b61050481856106ce565b9350610514818560208601610725565b61051d816107b9565b840191505092915050565b60006105356018836106ce565b9150610540826107ca565b602082019050919050565b60006105586028836106ce565b9150610563826107f3565b604082019050919050565b6105778161071b565b82525050565b600060208201905061059260008301846104d1565b92915050565b60006060820190506105ad60008301866104d1565b6105ba60208301856104d1565b6105c7604083018461056e565b949350505050565b60006080820190506105e460008301866104d1565b6105f160208301856104d1565b6105fe604083018461056e565b818103606083015261060f81610528565b9050949350505050565b600060a082019050818103600083015261063381886104ef565b9050818103602083015261064781876104ef565b9050818103604083015261065b81866104ef565b9050818103606083015261066f81856104ef565b905061067e60808301846104e0565b9695505050505050565b600060208201905081810360008301526106a18161054b565b9050919050565b60006020820190506106bd600083018461056e565b92915050565b600081519050919050565b600082825260208201905092915050565b60006106ea826106fb565b9050919050565b6000819050919050565b600073ffffffffffffffffffffffffffffffffffffffff82169050919050565b6000819050919050565b60005b83811015610743578082015181840152602081019050610728565b83811115610752576000848401525b50505050565b6000600282049050600182168061077057607f821691505b602082108114156107845761078361078a565b5b50919050565b7f4e487b7100000000000000000000000000000000000000000000000000000000600052602260045260246000fd5b6000601f19601f8301169050919050565b7f546f6b656e2072656365697665642066726f6d20506f6f6c0000000000000000600082015250565b7f596f75206d757374206265207265676973746572656420746f2077697468647260008201527f61772066756e647300000000000000000000000000000000000000000000000060208201525056fea2646970667358221220a175692678f358351a6037aed1580057877d004d4fd39ecc43bf79e9257e71b964736f6c63430008040033a2646970667358221220a35420de95c63a938449792b748a49969681a5bf574ae3cce49cb3803bfbab7264736f6c63430008040033",
  "linkReferences": {},
  "deployedLinkReferences": {}
}