{
  "_format": "hh-sol-artifact-1",
  "contractName": "CharityPool",
  "sourceName": "contracts/CharityPool.sol",
  "abi": [
    {
      "anonymous": false,
      "inputs": [
        {
          "indexed": false,
          "internalType": "address",
          "name": "from",
          "type": "address"
        },
        {
          "indexed": false,
          "internalType": "address",
          "name": "to",
          "type": "address"
        },
        {
          "indexed": false,
          "internalType": "string",
          "name": "message",
          "type": "string"
        }
      ],
      "name": "InternalError",
      "type": "event"
    },
    {
      "anonymous": false,
      "inputs": [
        {
          "indexed": false,
          "internalType": "address",
          "name": "from",
          "type": "address"
        },
        {
          "indexed": false,
          "internalType": "address",
          "name": "to",
          "type": "address"
        },
        {
          "indexed": false,
          "internalType": "uint256",
          "name": "amount",
          "type": "uint256"
        }
      ],
      "name": "MinimumTokenRequired",
      "type": "event"
    },
    {
      "anonymous": false,
      "inputs": [
        {
          "indexed": false,
          "internalType": "address",
          "name": "from",
          "type": "address"
        },
        {
          "indexed": false,
          "internalType": "address",
          "name": "to",
          "type": "address"
        },
        {
          "indexed": false,
          "internalType": "uint256",
          "name": "amount",
          "type": "uint256"
        },
        {
          "indexed": false,
          "internalType": "string",
          "name": "message",
          "type": "string"
        }
      ],
      "name": "ReceivedToken",
      "type": "event"
    },
    {
      "anonymous": false,
      "inputs": [
        {
          "indexed": false,
          "internalType": "address",
          "name": "from",
          "type": "address"
        },
        {
          "indexed": false,
          "internalType": "address",
          "name": "to",
          "type": "address"
        },
        {
          "indexed": false,
          "internalType": "uint256",
          "name": "amount",
          "type": "uint256"
        }
      ],
      "name": "TokensWithdrawn",
      "type": "event"
    },
    {
      "inputs": [
        {
          "internalType": "address",
          "name": "_address",
          "type": "address"
        },
        {
          "internalType": "string",
          "name": "name",
          "type": "string"
        },
        {
          "internalType": "string",
          "name": "cause",
          "type": "string"
        },
        {
          "internalType": "string",
          "name": "link",
          "type": "string"
        }
      ],
      "name": "addNewParty",
      "outputs": [
        {
          "internalType": "address",
          "name": "",
          "type": "address"
        }
      ],
      "stateMutability": "nonpayable",
      "type": "function"
    },
    {
      "inputs": [
        {
          "internalType": "uint256",
          "name": "index",
          "type": "uint256"
        },
        {
          "internalType": "string",
          "name": "unit",
          "type": "string"
        }
      ],
      "name": "donate",
      "outputs": [
        {
          "internalType": "bool",
          "name": "",
          "type": "bool"
        }
      ],
      "stateMutability": "payable",
      "type": "function"
    },
    {
      "inputs": [
        {
          "internalType": "uint256",
          "name": "index",
          "type": "uint256"
        }
      ],
      "name": "getContractAddress",
      "outputs": [
        {
          "internalType": "address",
          "name": "",
          "type": "address"
        }
      ],
      "stateMutability": "view",
      "type": "function"
    },
    {
      "inputs": [],
      "name": "getCurrentContractAddress",
      "outputs": [
        {
          "internalType": "address",
          "name": "",
          "type": "address"
        }
      ],
      "stateMutability": "view",
      "type": "function"
    },
    {
      "inputs": [],
      "name": "getCurrentContractBalance",
      "outputs": [
        {
          "internalType": "uint256",
          "name": "",
          "type": "uint256"
        }
      ],
      "stateMutability": "view",
      "type": "function"
    },
    {
      "inputs": [
        {
          "internalType": "uint256",
          "name": "index",
          "type": "uint256"
        }
      ],
      "name": "getPartyAddress",
      "outputs": [
        {
          "internalType": "address",
          "name": "",
          "type": "address"
        }
      ],
      "stateMutability": "view",
      "type": "function"
    },
    {
      "inputs": [
        {
          "internalType": "uint256",
          "name": "index",
          "type": "uint256"
        }
      ],
      "name": "getPartyBalance",
      "outputs": [
        {
          "internalType": "uint256",
          "name": "partyBalance",
          "type": "uint256"
        }
      ],
      "stateMutability": "view",
      "type": "function"
    },
    {
      "inputs": [
        {
          "internalType": "uint256",
          "name": "index",
          "type": "uint256"
        }
      ],
      "name": "getPartyDetails",
      "outputs": [
        {
          "internalType": "string",
          "name": "name",
          "type": "string"
        },
        {
          "internalType": "string",
          "name": "cause",
          "type": "string"
        },
        {
          "internalType": "string",
          "name": "link",
          "type": "string"
        }
      ],
      "stateMutability": "view",
      "type": "function"
    },
    {
      "inputs": [],
      "name": "getTotalParties",
      "outputs": [
        {
          "internalType": "uint256",
          "name": "",
          "type": "uint256"
        }
      ],
      "stateMutability": "view",
      "type": "function"
    },
    {
      "inputs": [
        {
          "internalType": "uint256",
          "name": "",
          "type": "uint256"
        }
      ],
      "name": "parties",
      "outputs": [
        {
          "internalType": "contract PartyContract",
          "name": "",
          "type": "address"
        }
      ],
      "stateMutability": "view",
      "type": "function"
    },
    {
      "inputs": [],
      "name": "totalEntries",
      "outputs": [
        {
          "internalType": "uint256",
          "name": "",
          "type": "uint256"
        }
      ],
      "stateMutability": "view",
      "type": "function"
    }
  ],
  "bytecode": "0x608060405234801561001057600080fd5b50611d2e806100206000396000f3fe608060405260043610620000aa5760003560e01c80638d59d1f1116200006d5780638d59d1f114620001dd578063a267d6a51462000213578063aefa7d981462000257578063be5e0077146200029b578063c236bf9b14620002df578063c6fd1020146200030f57620000aa565b8063024789a914620000af578063392b5f0214620000f55780636d790081146200013957806370651a1814620001695780637fef036e14620001ad575b600080fd5b348015620000bc57600080fd5b50620000db6004803603810190620000d5919062000b90565b6200033f565b604051620000ec9392919062000de6565b60405180910390f35b3480156200010257600080fd5b506200012160048036038101906200011b919062000b90565b62000443565b60405162000130919062000cd9565b60405180910390f35b3480156200014657600080fd5b506200015162000538565b60405162000160919062000e38565b60405180910390f35b3480156200017657600080fd5b506200019560048036038101906200018f919062000b90565b62000540565b604051620001a4919062000dc9565b60405180910390f35b348015620001ba57600080fd5b50620001c562000580565b604051620001d4919062000e38565b60405180910390f35b620001fb6004803603810190620001f5919062000bbc565b62000586565b6040516200020a919062000dac565b60405180910390f35b3480156200022057600080fd5b506200023f600480360381019062000239919062000b90565b620006d7565b6040516200024e919062000e38565b60405180910390f35b3480156200026457600080fd5b506200028360048036038101906200027d919062000b90565b62000786565b60405162000292919062000cd9565b60405180910390f35b348015620002a857600080fd5b50620002c76004803603810190620002c1919062000a38565b620007fa565b604051620002d6919062000cd9565b60405180910390f35b348015620002ec57600080fd5b50620002f7620008c4565b60405162000306919062000e38565b60405180910390f35b3480156200031c57600080fd5b5062000327620008cd565b60405162000336919062000cd9565b60405180910390f35b606080606060006001858154811062000381577f4e487b7100000000000000000000000000000000000000000000000000000000600052603260045260246000fd5b9060005260206000200160009054906101000a900473ffffffffffffffffffffffffffffffffffffffff1690508073ffffffffffffffffffffffffffffffffffffffff1663dd9eba576040518163ffffffff1660e01b815260040160006040518083038186803b158015620003f557600080fd5b505afa1580156200040a573d6000803e3d6000fd5b505050506040513d6000823e3d601f19601f8201168201806040525081019062000435919062000aef565b935093509350509193909250565b6000806001838154811062000481577f4e487b7100000000000000000000000000000000000000000000000000000000600052603260045260246000fd5b9060005260206000200160009054906101000a900473ffffffffffffffffffffffffffffffffffffffff1690508073ffffffffffffffffffffffffffffffffffffffff16638995bc2e6040518163ffffffff1660e01b815260040160206040518083038186803b158015620004f557600080fd5b505afa1580156200050a573d6000803e3d6000fd5b505050506040513d601f19601f8201168201806040525081019062000530919062000a0c565b915050919050565b600047905090565b600181815481106200055157600080fd5b906000526020600020016000915054906101000a900473ffffffffffffffffffffffffffffffffffffffff1681565b60005481565b60007f11bc892157fdd60df9ebcf9d5ad60ca17a129ed098afb31c5a34ebe3489ab15e33303485604051620005bf949392919062000cf6565b60405180910390a160003073ffffffffffffffffffffffffffffffffffffffff1663aefa7d98856040518263ffffffff1660e01b815260040162000604919062000e38565b60206040518083038186803b1580156200061d57600080fd5b505afa15801562000632573d6000803e3d6000fd5b505050506040513d601f19601f8201168201806040525081019062000658919062000a0c565b905060008173ffffffffffffffffffffffffffffffffffffffff1634604051620006829062000cc2565b60006040518083038185875af1925050503d8060008114620006c1576040519150601f19603f3d011682016040523d82523d6000602084013e620006c6565b606091505b505080915050809250505092915050565b60003073ffffffffffffffffffffffffffffffffffffffff1663aefa7d98836040518263ffffffff1660e01b815260040162000714919062000e38565b60206040518083038186803b1580156200072d57600080fd5b505afa15801562000742573d6000803e3d6000fd5b505050506040513d601f19601f8201168201806040525081019062000768919062000a0c565b73ffffffffffffffffffffffffffffffffffffffff16319050919050565b60008060018381548110620007c4577f4e487b7100000000000000000000000000000000000000000000000000000000600052603260045260246000fd5b9060005260206000200160009054906101000a900473ffffffffffffffffffffffffffffffffffffffff16905080915050919050565b600080858585856040516200080f90620008d5565b6200081e949392919062000d4a565b604051809103906000f0801580156200083b573d6000803e3d6000fd5b5090506001819080600181540180825580915050600190039060005260206000200160009091909190916101000a81548173ffffffffffffffffffffffffffffffffffffffff021916908373ffffffffffffffffffffffffffffffffffffffff1602179055506001600054620008b2919062000edb565b60008190555080915050949350505050565b60008054905090565b600030905090565b610c2d80620010cc83390190565b6000620008fa620008f48462000e7e565b62000e55565b9050828152602081018484840111156200091357600080fd5b6200092084828562000faa565b509392505050565b60006200093f620009398462000e7e565b62000e55565b9050828152602081018484840111156200095857600080fd5b6200096584828562000fb9565b509392505050565b6000813590506200097e8162001097565b92915050565b600081519050620009958162001097565b92915050565b600082601f830112620009ad57600080fd5b8135620009bf848260208601620008e3565b91505092915050565b600082601f830112620009da57600080fd5b8151620009ec84826020860162000928565b91505092915050565b60008135905062000a0681620010b1565b92915050565b60006020828403121562000a1f57600080fd5b600062000a2f8482850162000984565b91505092915050565b6000806000806080858703121562000a4f57600080fd5b600062000a5f878288016200096d565b945050602085013567ffffffffffffffff81111562000a7d57600080fd5b62000a8b878288016200099b565b935050604085013567ffffffffffffffff81111562000aa957600080fd5b62000ab7878288016200099b565b925050606085013567ffffffffffffffff81111562000ad557600080fd5b62000ae3878288016200099b565b91505092959194509250565b60008060006060848603121562000b0557600080fd5b600084015167ffffffffffffffff81111562000b2057600080fd5b62000b2e86828701620009c8565b935050602084015167ffffffffffffffff81111562000b4c57600080fd5b62000b5a86828701620009c8565b925050604084015167ffffffffffffffff81111562000b7857600080fd5b62000b8686828701620009c8565b9150509250925092565b60006020828403121562000ba357600080fd5b600062000bb384828501620009f5565b91505092915050565b6000806040838503121562000bd057600080fd5b600062000be085828601620009f5565b925050602083013567ffffffffffffffff81111562000bfe57600080fd5b62000c0c858286016200099b565b9150509250929050565b62000c218162000f38565b82525050565b62000c328162000f4c565b82525050565b62000c438162000f82565b82525050565b600062000c568262000eb4565b62000c62818562000eca565b935062000c7481856020860162000fb9565b62000c7f8162001083565b840191505092915050565b600062000c9960008362000ebf565b915062000ca68262001094565b600082019050919050565b62000cbc8162000f78565b82525050565b600062000ccf8262000c8a565b9150819050919050565b600060208201905062000cf0600083018462000c16565b92915050565b600060808201905062000d0d600083018762000c16565b62000d1c602083018662000c16565b62000d2b604083018562000cb1565b818103606083015262000d3f818462000c49565b905095945050505050565b600060808201905062000d61600083018762000c16565b818103602083015262000d75818662000c49565b9050818103604083015262000d8b818562000c49565b9050818103606083015262000da1818462000c49565b905095945050505050565b600060208201905062000dc3600083018462000c27565b92915050565b600060208201905062000de0600083018462000c38565b92915050565b6000606082019050818103600083015262000e02818662000c49565b9050818103602083015262000e18818562000c49565b9050818103604083015262000e2e818462000c49565b9050949350505050565b600060208201905062000e4f600083018462000cb1565b92915050565b600062000e6162000e74565b905062000e6f828262000fef565b919050565b6000604051905090565b600067ffffffffffffffff82111562000e9c5762000e9b62001054565b5b62000ea78262001083565b9050602081019050919050565b600081519050919050565b600081905092915050565b600082825260208201905092915050565b600062000ee88262000f78565b915062000ef58362000f78565b9250827fffffffffffffffffffffffffffffffffffffffffffffffffffffffffffffffff0382111562000f2d5762000f2c62001025565b5b828201905092915050565b600062000f458262000f58565b9050919050565b60008115159050919050565b600073ffffffffffffffffffffffffffffffffffffffff82169050919050565b6000819050919050565b600062000f8f8262000f96565b9050919050565b600062000fa38262000f58565b9050919050565b82818337600083830152505050565b60005b8381101562000fd957808201518184015260208101905062000fbc565b8381111562000fe9576000848401525b50505050565b62000ffa8262001083565b810181811067ffffffffffffffff821117156200101c576200101b62001054565b5b80604052505050565b7f4e487b7100000000000000000000000000000000000000000000000000000000600052601160045260246000fd5b7f4e487b7100000000000000000000000000000000000000000000000000000000600052604160045260246000fd5b6000601f19601f8301169050919050565b50565b620010a28162000f38565b8114620010ae57600080fd5b50565b620010bc8162000f78565b8114620010c857600080fd5b5056fe60806040523480156200001157600080fd5b5060405162000c2d38038062000c2d833981810160405281019062000037919062000205565b836000806101000a81548173ffffffffffffffffffffffffffffffffffffffff021916908373ffffffffffffffffffffffffffffffffffffffff16021790555082600190805190602001906200008f929190620000cc565b508160029080519060200190620000a8929190620000cc565b508060039080519060200190620000c1929190620000cc565b50505050506200047a565b828054620000da9062000385565b90600052602060002090601f016020900481019282620000fe57600085556200014a565b82601f106200011957805160ff19168380011785556200014a565b828001600101855582156200014a579182015b82811115620001495782518255916020019190600101906200012c565b5b5090506200015991906200015d565b5090565b5b80821115620001785760008160009055506001016200015e565b5090565b6000620001936200018d84620002e5565b620002bc565b905082815260208101848484011115620001ac57600080fd5b620001b98482856200034f565b509392505050565b600081519050620001d28162000460565b92915050565b600082601f830112620001ea57600080fd5b8151620001fc8482602086016200017c565b91505092915050565b600080600080608085870312156200021c57600080fd5b60006200022c87828801620001c1565b945050602085015167ffffffffffffffff8111156200024a57600080fd5b6200025887828801620001d8565b935050604085015167ffffffffffffffff8111156200027657600080fd5b6200028487828801620001d8565b925050606085015167ffffffffffffffff811115620002a257600080fd5b620002b087828801620001d8565b91505092959194509250565b6000620002c8620002db565b9050620002d68282620003bb565b919050565b6000604051905090565b600067ffffffffffffffff82111562000303576200030262000420565b5b6200030e826200044f565b9050602081019050919050565b600062000328826200032f565b9050919050565b600073ffffffffffffffffffffffffffffffffffffffff82169050919050565b60005b838110156200036f57808201518184015260208101905062000352565b838111156200037f576000848401525b50505050565b600060028204905060018216806200039e57607f821691505b60208210811415620003b557620003b4620003f1565b5b50919050565b620003c6826200044f565b810181811067ffffffffffffffff82111715620003e857620003e762000420565b5b80604052505050565b7f4e487b7100000000000000000000000000000000000000000000000000000000600052602260045260246000fd5b7f4e487b7100000000000000000000000000000000000000000000000000000000600052604160045260246000fd5b6000601f19601f8301169050919050565b6200046b816200031b565b81146200047757600080fd5b50565b6107a3806200048a6000396000f3fe6080604052600436106100435760003560e01c80633ccfd60b1461008a578063580aa5d3146100a15780638995bc2e146100cc578063dd9eba57146100f757610085565b36610085577f11bc892157fdd60df9ebcf9d5ad60ca17a129ed098afb31c5a34ebe3489ab15e33303460405161007b93929190610527565b60405180910390a1005b600080fd5b34801561009657600080fd5b5061009f610124565b005b3480156100ad57600080fd5b506100b6610256565b6040516100c391906105dd565b60405180910390f35b3480156100d857600080fd5b506100e161025e565b6040516100ee91906104d5565b60405180910390f35b34801561010357600080fd5b5061010c610287565b60405161011b93929190610571565b60405180910390f35b60008054906101000a900473ffffffffffffffffffffffffffffffffffffffff1673ffffffffffffffffffffffffffffffffffffffff163373ffffffffffffffffffffffffffffffffffffffff16146101b2576040517f08c379a00000000000000000000000000000000000000000000000000000000081526004016101a9906105bd565b60405180910390fd5b3373ffffffffffffffffffffffffffffffffffffffff166108fc479081150290604051600060405180830381858888f193505050501580156101f8573d6000803e3d6000fd5b507f6337ed398c0e8467698c581374fdce4db14922df487b5a39483079f5f59b60a43060008054906101000a900473ffffffffffffffffffffffffffffffffffffffff164760405161024c939291906104f0565b60405180910390a1565b600047905090565b60008060009054906101000a900473ffffffffffffffffffffffffffffffffffffffff16905090565b60608060606001805461029990610683565b80601f01602080910402602001604051908101604052809291908181526020018280546102c590610683565b80156103125780601f106102e757610100808354040283529160200191610312565b820191906000526020600020905b8154815290600101906020018083116102f557829003601f168201915b505050505092506002805461032690610683565b80601f016020809104026020016040519081016040528092919081815260200182805461035290610683565b801561039f5780601f106103745761010080835404028352916020019161039f565b820191906000526020600020905b81548152906001019060200180831161038257829003601f168201915b50505050509150600380546103b390610683565b80601f01602080910402602001604051908101604052809291908181526020018280546103df90610683565b801561042c5780601f106104015761010080835404028352916020019161042c565b820191906000526020600020905b81548152906001019060200180831161040f57829003601f168201915b50505050509050909192565b61044181610614565b82525050565b6000610452826105f8565b61045c8185610603565b935061046c818560208601610650565b610475816106e4565b840191505092915050565b600061048d601883610603565b9150610498826106f5565b602082019050919050565b60006104b0602883610603565b91506104bb8261071e565b604082019050919050565b6104cf81610646565b82525050565b60006020820190506104ea6000830184610438565b92915050565b60006060820190506105056000830186610438565b6105126020830185610438565b61051f60408301846104c6565b949350505050565b600060808201905061053c6000830186610438565b6105496020830185610438565b61055660408301846104c6565b818103606083015261056781610480565b9050949350505050565b6000606082019050818103600083015261058b8186610447565b9050818103602083015261059f8185610447565b905081810360408301526105b38184610447565b9050949350505050565b600060208201905081810360008301526105d6816104a3565b9050919050565b60006020820190506105f260008301846104c6565b92915050565b600081519050919050565b600082825260208201905092915050565b600061061f82610626565b9050919050565b600073ffffffffffffffffffffffffffffffffffffffff82169050919050565b6000819050919050565b60005b8381101561066e578082015181840152602081019050610653565b8381111561067d576000848401525b50505050565b6000600282049050600182168061069b57607f821691505b602082108114156106af576106ae6106b5565b5b50919050565b7f4e487b7100000000000000000000000000000000000000000000000000000000600052602260045260246000fd5b6000601f19601f8301169050919050565b7f546f6b656e2072656365697665642066726f6d20506f6f6c0000000000000000600082015250565b7f596f75206d757374206265207265676973746572656420746f2077697468647260008201527f61772066756e647300000000000000000000000000000000000000000000000060208201525056fea2646970667358221220833a4d19092dd1f5b84e9b8cf65e6c4dca3b4c0d71566a171f9c543c093db1a964736f6c63430008040033a2646970667358221220239c9b644c5a36a9f68c60d75b28a87ef9448e2b1bba32ae50aa2f1bf9e0307864736f6c63430008040033",
  "linkReferences": {},
  "deployedLinkReferences": {}
}